{"contracts/Verifier.sol":{"TurboVerifier":{"abi":[{"inputs":[{"internalType":"bytes","name":"","type":"bytes"}],"name":"verify","outputs":[{"internalType":"bool","name":"result","type":"bool"}],"stateMutability":"view","type":"function"}],"evm":{"bytecode":{"linkReferences":{},"object":"608060405234801561001057600080fd5b50613ee1806100206000396000f3fe608060405234801561001057600080fd5b506004361061002b5760003560e01c80638e760afe14610030575b600080fd5b61004a6004803603810190610045919061384c565b610060565b60405161005791906138b4565b60405180910390f35b60008061006b610201565b905060008160200151905060006100828284610828565b905061008c6134bd565b6100a98460000151856020015183610bc09092919063ffffffff16565b6100b16134d3565b6100ca81866020015184610c219092919063ffffffff16565b6100e381846080015184610cc29092919063ffffffff16565b61010f818460a001518560c001518660e0015187610100015187610d3d9095949392919063ffffffff16565b60008061011d858885610de6565b91509150818561038001818152505061014583886020015186610e769092919063ffffffff16565b6101668386610300015187610320015187610ff9909392919063ffffffff16565b8260200151836000018181525050600061018284838a8961107c565b90506000610192858a848a6111d3565b905060006101a088876116d6565b90506101af8282888b8e611899565b9a508a6101f1576040517f08c379a00000000000000000000000000000000000000000000000000000000081526004016101e89061392c565b60405180910390fd5b5050505050505050505092915050565b610209613557565b610211613557565b620100006000820152604160208201527eeeb2cb5981ed45649abebde081dcff16c8601de4347e7dd1628ba2daac43b760408201527f30641e0e92bebef818268d663bcad6dbcfd6c0149170f6d7d350b1b1fa6c100160608201527f0b5d56b77fe704e8e92338c0082f37e091126414c830e4c6922d5ac802d842d460808201527f072320b560ad7a012441db4b88d5f9bcfe8aa8b89f54b264b5ea8243acb35d4360a0820151527f0d3bd17bb4bc763b4cc852cdc6aaa908a76217e4251753bf08f2624fb0a83a2b602060a083015101527f01d594f4733a3252952b407c8e958b526f62f32743783380a0e970f91665733d60c0820151527f2a4ebfdbd1ee8edb78738683ade031fe90d743323b17fc2b436f195895fd70e5602060c083015101527f067e83ed9ef401729232a78b6192164dbf98ec8eba0d81d54e69fb5afffb9ee760e0820151527f23c1ac6893eaad729c0844014a5a68e460361f16853c468d3329a02ecf299e70602060e083015101527f2e7824260be4da9a5edc1dea9a64674e19b2851311270c702ce0f42d79206694610100820151527f123d26d4e51aea4a0dcf48567b9ce1956149ffd600b7a969a3d523bedd186ef3602061010083015101527f08ab5e5348d115ffe18f442dfb09428de39d093f841f2b85b313ce330f5fb999610120820151527f215f5a4e7249021f710f68ee59b2105bf64e65ea5af90f75b4b28e023c13c0fd602061012083015101527f0b3505fb8da03c645aaadd23536c1f246c3c704f57f676ff6343cb78bbaff0b2610140820151527f2758723cdf8f0469d13c9c1880d450982302334b2a63bb12354c6ddb36cd3714602061014083015101527f144c0d4dccfba981cbe86c7f6cc7999d25837e1044c2872addf28eb1186d31da610160820151527f07ee800b497a4a2c088e792b72c98c75a71f468fa6e347ffc351869f83dd4912602061016083015101527f13a52c17790ecec0d887165390c6d9717b3c5ef90fc9b415152925099eefd59d610180820151527f158c9522b74e9755c2e46cd16b0dae6ca89c3e96b988255cd1bfb514f60cc55d602061018083015101527f14b8d7e74ad55dbaec1638052964445a746262e822825e4529f690868da8f3176101a0820151527f04be344f00a1bbbaa53beeebd02e62fab792e2a1f8a85ac0158d6ed0cabc929960206101a083015101527f1df2adf36b9c70f1ab993c0b5c430044d1a6b6dca42896a1c4765aed03283e236101c0820151527f237543ab50e6c8aeeeb27aa1fe4d012db1959bd3db4369d21b167cc23c95f23a60206101c083015101527f0df1ca06c4bbc77e7949965850348385f79d8a45673364c4fc299a9b969d381d6101e0820151527f0ec17c451f7143c2df5576839e8b5fe7703963f65c8ef569c288396fcf52a43b60206101e083015101527eb745d0869e35b6bb5f48c14eed8b244026a6accdb4fa90a8c25f7900960712610200820151527f0f5d8dcf5e181f5158e75ea22608ca67e754684b6a57ab49e1121a8086877d4c602061020083015101527f0d6401dd8c1bbe302793f97ee76c8afc61e00eaeac51e556932bc2ff0c9cb2a9610220820151527f092ade5f728328893b90e2c6fb79b2761fefd1643348b721e2beb149d258c6d2602061022083015101527f2caacaa755ddd17e6377334686d129752f4469133b81ed79608c615d119862d1610240820151527f04bb08d9d49976aefafcc8c9ab1a8ce9ccaf78a8d8324cf1a04bfb76696f1867602061024083015101527f2303f9ee2dea55fbb8e416232d883772aa63ca8bedaff25993621b7546912ed6610260820151527f27a2fce645099eb3ea9afa0f3077fe86e21d080e5ece6dc95b19d2633b5e9f3a60206102608301510152600061028082015260006102a08201527f260e01b251f6f1c7e7ff4e580791dee8ea51d87a358e038b4efe30fac09383c16102c0820151527f0118c4d5b837bcc2bc89b5b398b5974e9f5944073b32078b7e231fec938883b060206102c083015101527f04fc6369f7110fe3d25156c1bb9a72859cf2a04641f99ba4ee413c80da6a5fe460406102c083015101527f22febda3c0c0632a56475b4214e5615e11e6dd3f96e6cea2854a87d4dacc5e5560606102c083015101528091505090565b610830613675565b60007f30644e72e131a029b85045b68181585d2833e84879b9709143e1f593f0000001905060007f30644e72e131a029b85045b68181585d97816a916871ca8d3c208c16d87cfd4790506000806024600435019150849050856102800151156109915760006020876102a001516108a79190613985565b9050600080600080868501945084359350602085013560441b84019350604085013560881b84019350606085013560cc1b840193506080850135925060a085013560441b8301925060c085013560881b8301925060e085013560cc1b83019250610100850135915061012085013560441b8201915061014085013560881b8201915061016085013560cc1b8201915061018085013590506101a085013560441b810190506101c085013560881b810190506101e085013560cc1b8101905061096f8484611b7c565b8a61034001819052506109828282611b7c565b8a610360018190525050505050505b6020870280830192508360208401350682515283833506602083510152836060840135066020830151528360408401350660208084015101528360a084013506604083015152836080840135066020604084015101528360e0840135066060830151528360c08401350660206060840151015283610120840135066080830151528361010084013506602060808401510152836101608401350660a0830151528361014084013506602060a08401510152836101a08401350660c0830151528361018084013506602060c08401510152836101e08401350660e083015152836101c084013506602060e08401510152836102208401350661010083015152836102008401350660206101008401510152846102408401350661012083015284610260840135066101408301528461028084013506610160830152846102a084013506610180830152846102c0840135066101a0830152846102e0840135066101c083015284610300840135066101e08301528461032084013506610200830152846103408401350661022083015284610360840135066102408301528461038084013506610260830152846103a084013506610280830152846103c0840135066102a0830152846103e0840135066102c083015284610400840135066102e0830152836104408401350661030083015152836104208401350660206103008401510152836104808401350661032083015152836104608401350660206103208401510152505050505092915050565b60006040518360181c60208201538360101c60218201538360081c60228201538360238201538260181c60248201538260101c60258201538260081c6026820153826027820153600860208201209150508084600001818152505050505050565b6000808460000151905060007f30644e72e131a029b85045b68181585d2833e84879b9709143e1f593f0000001905060006040518381526020810190506024600435016020870261010001808284376040516020820180822098508689069550505050505080866060018181525050836000526001602053602160002093508184069050808660800181815250508387600001818152505050505050505050565b6000808460000151905060007f30644e72e131a029b85045b68181585d2833e84879b9709143e1f593f000000190506000604051838152602086015160208201528551604082015260608120945082850691505080866020018181525050808660000181815250508387600001818152505050505050505050565b6000808760000151905060007f30644e72e131a029b85045b68181585d2833e84879b9709143e1f593f00000019050600060405183815260208901516020820152885160408201526020880151606082015287516080820152602087015160a0820152865160c0820152602086015160e082015285516101008201526101208120945082850691505080896040018181525050838a600001818152505050505050505050505050565b600080600080600080600080610dfc898b611bf0565b915091506000806000806000610e168f8f60400151611d8c565b94509450945094509450610e2f87878787878787611e97565b809b50819c50829e50839d5050505050898f610300018181525050505050505050506000610e6184868a86868f611fc7565b90508083965096505050505050935093915050565b60007f30644e72e131a029b85045b68181585d2833e84879b9709143e1f593f000000190506000846000015190506000806024600435016020860281019050610240810190506040518481526101e08260208301376102008120935085840692505050808660c0018181525050816000526001602053836021600020069050808660e00181815250506002602053836021600020069050808661010001818152505060036020538360216000200690508086610120018181525050600460205383602160002006905080866101400181815250506005602053836021600020069050808661016001818152505060066020538360216000200690508086610180018181525050600760205383602160002006905080866101a0018181525050600860205383602160002006905080866101c0018181525050600960205383602160002006905080866101e00181815250506000600a6020536021600020905084810691508187610200018181525050808860000181815250505050505050505050565b6000808560000151905060007f30644e72e131a029b85045b68181585d2833e84879b9709143e1f593f0000001905060006040518381526020870151602082015286516040820152602086015160608201528551608082015260a081209450828506915050808760a0018181525050838860000181815250505050505050505050565b61108461379b565b600061109283858888612036565b905060006110a1848689612282565b905060006110af858961292e565b905060006110bd868a612ad4565b90506000876101c0015190506000886101e0015190506110dc82612d36565b6110e581612d36565b6000604051835181526020840151602082015285604082015260408160608360075afa9150875160408201526020880151606082015260408160808360065afa821691508251604082015260208301516060820152846080820152604080820160606040840160075afa8216915060408160808360065afa82169150865160408201526020870151606082015260408860808360065afa8216915050806111c1576040517f08c379a00000000000000000000000000000000000000000000000000000000081526004016111b890613a39565b60405180910390fd5b86975050505050505050949350505050565b6111db61379b565b60008060007f30644e72e131a029b85045b68181585d2833e84879b9709143e1f593f00000019050604051915060a082016040526000876103000151826112229190613a59565b905060008660a00151905061123681612d36565b805184526020810151602085015281604085015260408460608660075afa94506000896102e00151905060008190508860c00151925061127583612d36565b8251604087015260208301516060870152848483096080870152604080870160606040890160075afa965060408660808860065afa871696508860e0015192506112be83612d36565b8482830991508251604087015260208301516060870152848483096080870152604080870160606040890160075afa8716965060408660808860065afa87169650886101000151925061131083612d36565b8481830991508251604087015260208301516060870152848483096080870152604080870160606040890160075afa8716965060408660808860065afa8716965089925061135d83612d36565b8951604087015260208a0151606087015260408660808860065afa8716965060008c60a00151905060008d60c0015190508a60000151945061139e85612d36565b8660018308915086828209935084516040890152602085015160608901528360808901526040808901606060408b0160075afa8916985060408860808a60065afa891698508d60e0015190508a6020015194506113fa85612d36565b86828209935084516040890152602085015160608901528360808901526040808901606060408b0160075afa8916985060408860808a60065afa891698508d610100015190508a60400151945061145085612d36565b86828209935084516040890152602085015160608901528360808901526040808901606060408b0160075afa8916985060408860808a60065afa891698508d610120015190508a6060015194506114a685612d36565b86828209935084516040890152602085015160608901528360808901526040808901606060408b0160075afa8916985060408860808a60065afa891698508d610140015193508c610200015194506114fd85612d36565b84516040890152602085015160608901528360808901526040808901606060408b0160075afa8916985060408860808a60065afa891698508d610160015193508c6102200151945061154e85612d36565b84516040890152602085015160608901528360808901526040808901606060408b0160075afa8916985060408860808a60065afa891698508d610180015193508c6102400151945061159f85612d36565b84516040890152602085015160608901528360808901526040808901606060408b0160075afa8916985060408860808a60065afa891698508d6101a0015193508c610180015194506115f085612d36565b84516040890152602085015160608901528360808901526040808901606060408b0160075afa8916985060408860808a60065afa8916985061163061379b565b8e6101c0015194508d6101a00151955061164986612d36565b855160408a0152602086015160608a01528460808a01526040808a01606060408c0160075afa8a16995060408160808b60065afa8a169950896116c1576040517f08c379a00000000000000000000000000000000000000000000000000000000081526004016116b890613aff565b60405180910390fd5b809a5050505050505050505050949350505050565b6000807f30644e72e131a029b85045b68181585d2833e84879b9709143e1f593f0000001905060008060008560c00151915086610120015190508384828409840892508560e001519150866101400151905083848284098408925085610100015191508661016001519050838482840984089250856101200151915086610180015190508384828409840892508561014001519150866101a0015190508384828409840892508561016001519150866101c0015190508384828409840892508561018001519150866101e001519050838482840984089250856101a0015191508661020001519050838482840984089250856101c0015191508661022001519050838482840984089250856101e0015191508661024001519050838482840984089250866103800151905083818503840892508560c001519150866102800151905060008482840990508660e001519250876102a0015191508485838509820890508661010001519250876102c0015191508485838509820890508661012001519250876102e00151915084858385098208905087610260015192508483820890508660a001519250848382099050848185089350839550505050505092915050565b6000808460a0015190506000807f30644e72e131a029b85045b68181585d2833e84879b9709143e1f593f000000190506118d161379b565b60008761032001519050600088610300015190506118ee81612d36565b6118f782612d36565b60008a6040015190506000896040015190508582820990508588820990508c86039c506040518e51815260208f015160208201528351604082015260208401516060820152826080820152604080820160606040840160075afa975060408160808360065afa881697508451604082015260208501516060820152816080820152604080820160606040840160075afa8816975060408160808360065afa8816975060016040820152600260608201528d6080820152604080820160606040840160075afa8816975060408660808360065afa881697505050506119d961379b565b60405182518152602083015160208201528351604082015260208401516060820152876080820152604080820160606040840160075afa8716965060408260808360065afa871696505060007f30644e72e131a029b85045b68181585d97816a916871ca8d3c208c16d87cfd47905060208201518103602083015289610280015115611b115760008b6103400151905060008c61036001519050611a7c82612d36565b611a8581612d36565b6040518251815260208301516020820152888b8c09604082015260406060820160608360075afa8a169950815181526020820151602082015260408160608360075afa8a169950875160a0820152602088015160c082015260408860806060840160065afa8a169950845160408201526020850151606082015260408560808360065afa8a1699505050505b86611b51576040517f08c379a0000000000000000000000000000000000000000000000000000000008152600401611b4890613b91565b60405180910390fd5b611b6985611b5d612dcb565b848d6102c00151612e79565b9850505050505050505095945050505050565b611b8461379b565b6000807f30644e72e131a029b85045b68181585d2833e84879b9709143e1f593f0000001850691507f30644e72e131a029b85045b68181585d2833e84879b9709143e1f593f0000001840690506040518060400160405280838152602001828152509250505092915050565b60008060008460800151905060008460400151905060006020808760200151611c199190613985565b611c239190613a59565b90506000808860600151905060008960600151905060006001905060006001905060007f30644e72e131a029b85045b68181585d2833e84879b9709143e1f593f000000190506000600190508160058709955081600786099450602460043501965086880197505b87871015611cee5786358a81018701808701848c8a099850848c8909975060208a01358d81018a01868a8201888a8609099750868988868409099850868e8c099a50868e8b099950868210878610168616955060408c019b505050505050611c8b565b6020880197505b87871015611d3557863582811082169150828b820883818901870995508381888a010186099450838b89099750838b880996505050602087019650611cf5565b80611d75576040517f08c379a0000000000000000000000000000000000000000000000000000000008152600401611d6c90613c23565b60405180910390fd5b83839b509b50505050505050505050509250929050565b6000806000806000807f30644e72e131a029b85045b68181585d2833e84879b9709143e1f593f000000190506000611dc9888a6000015184612f65565b905080896102e001818152505081600183038208905060008960800151905060008a6080015190506000808c60600151905060008060008e905088868a03820894508887870995508889878b038308860994508887870995508889878b038308860994508887870995508889878b038308860994508f604001519550600089858a0990508960018b03830893508987880997508988890997508987890997508960018b038b848b0908925088868286869e509e509e509e509e50505050505050505050509295509295909350565b6000806000806000807f30644e72e131a029b85045b68181585d2833e84879b9709143e1f593f00000019050600060019050604051925061020083016040528c83528a6020840152886040840152876060840152806080840152818351820990508060a0840152816020840151820990508060c0840152816040840151820990508060e084015281606084015182099050611f3181612fb1565b90508160e0840151820982606085015183099150806060850152508160c0840151820982604085015183099150806040850152508160a084015182098260208501518309915080602085015250816080840151820982845183099150808452508183518f0995508160208401518d0996508160408401518b0994508160608401518b099350505050975097509750979350505050565b600080611fd78787878787613061565b90506000611fe587856131a5565b90506000611ff38886613264565b90506000807f30644e72e131a029b85045b68181585d2833e84879b9709143e1f593f0000001905080818486088608915081955050505050509695505050505050565b61203e61379b565b60008360600151905060008460400151905060008560800151905060007f30644e72e131a029b85045b68181585d2833e84879b9709143e1f593f0000001905060008060008b6101200151905060008c6101a001519050848683088581878a8c090894508581878b850908935050505060008b6101400151905060008c6101c00151905084868308858682888c8a60058e09090886099450858682888c8609088509935050505060008b6101600151905060008c6101e00151905084868308858682888c8a60068e09090886099450858682888c8609088509935050505060008b610180015190508384828688888c8a60078e09090808840992505060008960000151905060008a60200151905060008b60a00151905060008e6102600151905060008c9050878588099650878b89878b868b09098a030995508784898688090994508783898a8885098a08089650878486099450848e6000018181525050505050505060008b60800151905060008b610260015190506121bd61379b565b6121c683612d36565b6121cf82612d36565b6000604051845181526020850151602082015286604082015260408160608360075afa91508351604082015260208401516060820152856080820152604080820160606040840160075afa8216915060408360808360065afa82169150508061226d576040517f08c379a000000000000000000000000000000000000000000000000000000000815260040161226490613cb5565b60405180910390fd5b819a5050505050505050505050949350505050565b61228a61379b565b600084610200015190506000856102200151905060008460000151905060008560000151905060008660200151905060007f30644e72e131a029b85045b68181585d2833e84879b9709143e1f593f00000019050600080604051905060a081016040526000808d6101800151905060008e6102e001519050858660048409870382089250505060008d61012001519050809350848885099350848a8509935084868809965084868809965084868809965084828309858a820990508588820990508581860894505060008d60a00151905061236481612d36565b6000604051825181526020830151602082015286604082015260408660608360075afa915050806123ca576040517f08c379a00000000000000000000000000000000000000000000000000000000081526004016123c190613d21565b60405180910390fd5b50505060008d61014001519050809350848885099350848a85099350848988098581860894505060008d60c00151905061240381612d36565b60006040518251815260208301516020820152866040820152604080870160608360075afa915060408660808860065afa821691505080612479576040517f08c379a000000000000000000000000000000000000000000000000000000000815260040161247090613d21565b60405180910390fd5b50505060008d61016001519050809350848885099350848a85099350506000808e6102c0015190508581840991505060008e61014001519050858789099750858183099150858883099150858283089150858a83099150858286089450505060008d6102800151905060008e6101200151905085878909975085818703830891508583830991505060008e6102c001519050858183099150858883099150858a83099150858286089450505060008c60e00151905061253781612d36565b60006040518251815260208301516020820152856040820152604080860160608360075afa915060408560808760065afa8216915050806125ad576040517f08c379a00000000000000000000000000000000000000000000000000000000081526004016125a490613d21565b60405180910390fd5b50505060008c6101600151905060008d6101800151905060008e61024001519050819450858986099450858b86099450858688890989099750858a84098682820990508689820990508681870895505060008e6101000151905061261081612d36565b60006040518251815260208301516020820152876040820152604080880160608360075afa915060408760808960065afa821691505080612686576040517f08c379a000000000000000000000000000000000000000000000000000000000815260040161267d90613d21565b60405180910390fd5b505050505060008c6101800151905060008d61024001519050818503858384099450858186089450858660028803850886099450858986099450858786099450858b860994508581600108868b82099050868382099050868982099050868187089550505060008d610120015190506126fe81612d36565b60006040518251815260208301516020820152866040820152604080870160608360075afa915060408660808860065afa821691505080612774576040517f08c379a000000000000000000000000000000000000000000000000000000000815260040161276b90613d21565b60405180910390fd5b5050505060008c6101200151905060008d61014001519050848183099350848885099350848a85099350505060008c6101600151905060008d61024001519050848688099650848983098582820990508588820990508581860894505060008d610140015190506127e481612d36565b60006040518251815260208301516020820152866040820152604080870160608360075afa915060408660808860065afa82169150508061285a576040517f08c379a000000000000000000000000000000000000000000000000000000000815260040161285190613d21565b60405180910390fd5b5050505061286661379b565b60008b6101e001519050879350848a8509935084818508935084868809975060008d6101600151905061289881612d36565b60006040518251815260208301516020820152866040820152604080870160608360075afa915060408560808860065afa82169150508061290e576040517f08c379a000000000000000000000000000000000000000000000000000000000815260040161290590613d21565b60405180910390fd5b505050868b60000181815250508099505050505050505050509392505050565b60008083610120015190506000846101400151905060008561016001519050600086610180015190506000876102e0015190506000876020015190506000886000015190506000807f30644e72e131a029b85045b68181585d2833e84879b9709143e1f593f0000001905080816004880982038808818260048a0983038a08828360048c0984038c08838460048e098503890884848509858587038208905085600287038608868183099150866003880387089050868183099150868983099150819750868a8a0998508685860991508685880383089150866002880386089050868183099150866003880386089050868183099150868983099150868289089750868a8a0998508684850991508684880383089150866002880385089050868183099150866003880385089050868183099150868983099150868289089750868a8a0998508683840991508683880383089150866002880384089050868183099150866003880384089050868183099150868983099150868289089750868a8a099850505050505050828b600001818152505081995050505050505050505092915050565b6000806000905060007f30644e72e131a029b85045b68181585d2833e84879b9709143e1f593f0000001905060008060008060008060008b6102800151905060008c610120015190508889600483098a0383089550505060008b6102a00151905060008c610140015190508889600483098a038308945088858708975088868709935088858609925088838508965088888909995088878a038b08995050506000808b60200151905060008d610160015190508960028209925089838b038c089a5089828c099a505088828308915088868a03850893508860048709955088868a03850895508860068708955088848709955088868b08995088818b09995088858a03840892508860048609945088858a03840894508860068608945088838609945088858b08995088818b099950886003890995508860038709945088858608975088600489099350888486089450886003880993508860068509965088888a03830897508860518908975088858a03880894508860538608945060008d6101600151905089818a09985089868a08985089818a0998505060008d61018001519050896004820994505060008d6102e00151905089858b03820894505060008d6102400151905089858608935089848608945089858608935089858508935089878b038508935089818509935089878608945089898a08985089898b038608945089848608945089858c089a505060008c60000151905089818c099a50505050505050505050600084600001519050600085602001519050828182099050828182099050828183099150818660000181815250508394505050505092915050565b6000807f30644e72e131a029b85045b68181585d97816a916871ca8d3c208c16d87cfd47905082516020840151826003848585860985090883828309148115831517198483108585101616169350505081612dc6576040517f08c379a0000000000000000000000000000000000000000000000000000000008152600401612dbd90613db3565b60405180910390fd5b505050565b612dd36137b5565b60405180608001604052807f198e9393920d483a7260bfb731fb5d25f1aa493335a9e71297e485b7aef312c281526020017f1800deef121f1e76426a00665e5c4479674322d4f75edadd46debd5cd992f6ed81526020017f090689d0585ff075ec9e99ad690c3395bc4b313370b38ef355acdadcd122975b81526020017f12c85ea5db8c6deb4aab71808dcb408fe3d1e7690c43d37b4ce6cc0166fa7daa815250905090565b6000612e8485612d36565b612e8d83612d36565b6000806040518751815260208801516020820152865160408201526020870151606082015260408701516080820152606087015160a0820152855160c0820152602086015160e08201528451610100820152602085015161012082015260408501516101408201526060850151610160820152602060006101808360085afa925060005191505081612f54576040517f08c379a0000000000000000000000000000000000000000000000000000000008152600401612f4b90613e1f565b60405180910390fd5b600081141592505050949350505050565b600080600190506000859050600060019050600186015b80821015612fa35781871615612f93578583850993505b8583840992508182019150612f7c565b508293505050509392505050565b6000806000807f30644e72e131a029b85045b68181585d2833e84879b9709143e1f593f0000001905060405160208152602080820152602060408201528560608201526002820360808201528160a08201526020600060c08360055afa925060005193505081613056576040517f08c379a000000000000000000000000000000000000000000000000000000000815260040161304d90613e8b565b60405180910390fd5b829350505050919050565b60008060008660200151905060008760600151905060007f30644e72e131a029b85045b68181585d2833e84879b9709143e1f593f000000190506000866102600151905060008a608001519050600088610120015190506000896101400151905060008a6101600151905060008b6101800151905060008c6101a00151905060008d6101c00151905060008e6101e00151905089838c09888801018a838d09898801018b838e098a8801018c8d828409840992508c8b8801840992508c8c840992508c8f84099250828d039f50505050505050505050505060008a60000151905060008a905060008a905060008e90508588890986818a09878186098883860989858b038a088a81830991508a838c038f089d508a828f089d508a848a0998505050505050505050808b600001818152505085965050505050505095945050505050565b600080826102000151905060008361016001519050600084610180015190506000866000015190506000876020015190506000807f30644e72e131a029b85045b68181585d2833e84879b9709143e1f593f000000190508087820382898a0908915080868260048809830308816002838384090982600983098384600786038487030882089050838184099250838785858809099450838688099650838688099650505050838a60000181815250508197505050505050505092915050565b600080836020015190506000808560000151905060007f30644e72e131a029b85045b68181585d2833e84879b9709143e1f593f0000001905060008087610180015190506000886102e0015190506000896102c001519050828503858660048309840894508587876003890388018960018b038a018b60038c0160018d0109090909975085898809965085868884098703890897508589880996505060008a610220015190508a610120015193508a610280015192508a6101400151915060008b6102c0015190506000806000898a858a088808925089888b0385089150898283099150898284099250898a858609850991508986870990508960118b038b838508088a03915089858b888c09099050898182089050898b8b8c848608860809925089838d089b50898d8c099a508e610120015197508e6102a0015196508e610140015195508e6102c00151935060008f610280015190508a8b8a8d0387088c898b080993508a818c038a0892508a878c8c89098d030891508a8b8d8d8587098701098e089c508a8e8d099b508f610240015195508f610180015197508f610160015196508a60018c0389088b888d03820893508b8c8e8609820990508b87820990508b818f089d508b8f8e099c50508a8b8d89098c888c09098b038b818f089d508b8f8e099c50508f610140015198508f610160015197508f610180015196508a86888d03600101098b898b098c0393508b8c888f098583010990508b818f089d508b8f8e099c50508f610220015195508a868e099c5050505050505050505050508086600001818152505081935050505092915050565b6040518060200160405280600080191681525090565b60405180610220016040528060008152602001600081526020016000815260200160008152602001600081526020016000815260200160008152602001600081526020016000815260200160008152602001600081526020016000815260200160008152602001600081526020016000815260200160008152602001600081525090565b604051806103200160405280600081526020016000815260200160008152602001600081526020016000815260200161358e61379b565b815260200161359b61379b565b81526020016135a861379b565b81526020016135b561379b565b81526020016135c261379b565b81526020016135cf61379b565b81526020016135dc61379b565b81526020016135e961379b565b81526020016135f661379b565b815260200161360361379b565b815260200161361061379b565b815260200161361d61379b565b815260200161362a61379b565b815260200161363761379b565b815260200161364461379b565b8152602001600015158152602001600081526020016136616137b5565b815260200160008152602001600081525090565b604051806103a0016040528061368961379b565b815260200161369661379b565b81526020016136a361379b565b81526020016136b061379b565b81526020016136bd61379b565b81526020016136ca61379b565b81526020016136d761379b565b81526020016136e461379b565b81526020016136f161379b565b815260200160008152602001600081526020016000815260200160008152602001600081526020016000815260200160008152602001600081526020016000815260200160008152602001600081526020016000815260200160008152602001600081526020016000815260200161376761379b565b815260200161377461379b565b815260200161378161379b565b815260200161378e61379b565b8152602001600081525090565b604051806040016040528060008152602001600081525090565b6040518060800160405280600081526020016000815260200160008152602001600081525090565b600080fd5b600080fd5b600080fd5b600080fd5b600080fd5b60008083601f84011261380c5761380b6137e7565b5b8235905067ffffffffffffffff811115613829576138286137ec565b5b602083019150836001820283011115613845576138446137f1565b5b9250929050565b60008060208385031215613863576138626137dd565b5b600083013567ffffffffffffffff811115613881576138806137e2565b5b61388d858286016137f6565b92509250509250929050565b60008115159050919050565b6138ae81613899565b82525050565b60006020820190506138c960008301846138a5565b92915050565b600082825260208201905092915050565b7f50726f6f66206661696c65640000000000000000000000000000000000000000600082015250565b6000613916600c836138cf565b9150613921826138e0565b602082019050919050565b6000602082019050818103600083015261394581613909565b9050919050565b6000819050919050565b7f4e487b7100000000000000000000000000000000000000000000000000000000600052601160045260246000fd5b60006139908261394c565b915061399b8361394c565b92508282026139a98161394c565b915082820484148315176139c0576139bf613956565b5b5092915050565b7f636f6d707574655f6c696e656172697365645f6f70656e696e675f7465726d7360008201527f2067726f7570206f7065726174696f6e73206661696c00000000000000000000602082015250565b6000613a236036836138cf565b9150613a2e826139c7565b604082019050919050565b60006020820190508181036000830152613a5281613a16565b9050919050565b6000613a648261394c565b9150613a6f8361394c565b9250828203905081811115613a8757613a86613956565b5b92915050565b7f636f6d707574655f62617463685f6f70656e696e675f636f6d6d69746d656e7460008201527f2067726f7570206f7065726174696f6e73206572726f72000000000000000000602082015250565b6000613ae96037836138cf565b9150613af482613a8d565b604082019050919050565b60006020820190508181036000830152613b1881613adc565b9050919050565b7f706572666f726d5f70616972696e67204731206f7065726174696f6e7320707260008201527f65616d626c65206661696c000000000000000000000000000000000000000000602082015250565b6000613b7b602b836138cf565b9150613b8682613b1f565b604082019050919050565b60006020820190508181036000830152613baa81613b6e565b9050919050565b7f7075626c696320696e70757473206172652067726561746572207468616e206360008201527f697263756974206d6f64756c7573000000000000000000000000000000000000602082015250565b6000613c0d602e836138cf565b9150613c1882613bb1565b604082019050919050565b60006020820190508181036000830152613c3c81613c00565b9050919050565b7f636f6d707574655f6772616e645f70726f647563745f6f70656e696e675f736360008201527f616c61722067726f7570206f7065726174696f6e73206661696c757265000000602082015250565b6000613c9f603d836138cf565b9150613caa82613c43565b604082019050919050565b60006020820190508181036000830152613cce81613c92565b9050919050565b7f473120706f696e74206d756c7469706c69636174696f6e206661696c65642100600082015250565b6000613d0b601f836138cf565b9150613d1682613cd5565b602082019050919050565b60006020820190508181036000830152613d3a81613cfe565b9050919050565b7f426e3235343a20473120706f696e74206e6f74206f6e2063757276652c206f7260008201527f206973206d616c666f726d656400000000000000000000000000000000000000602082015250565b6000613d9d602d836138cf565b9150613da882613d41565b604082019050919050565b60006020820190508181036000830152613dcc81613d90565b9050919050565b7f50616972696e6720636865636b206661696c6564210000000000000000000000600082015250565b6000613e096015836138cf565b9150613e1482613dd3565b602082019050919050565b60006020820190508181036000830152613e3881613dfc565b9050919050565b7f706f7720707265636f6d70696c652063616c6c206661696c6564210000000000600082015250565b6000613e75601b836138cf565b9150613e8082613e3f565b602082019050919050565b60006020820190508181036000830152613ea481613e68565b905091905056fea2646970667358221220ea5c5924949381656fae8114e69ace0925d82d27eebd1833b1dc1631ce810bec64736f6c63430008120033","opcodes":"PUSH1 0x80 PUSH1 0x40 MSTORE CALLVALUE DUP1 ISZERO PUSH2 0x10 JUMPI PUSH1 0x0 DUP1 REVERT JUMPDEST POP PUSH2 0x3EE1 DUP1 PUSH2 0x20 PUSH1 0x0 CODECOPY PUSH1 0x0 RETURN INVALID PUSH1 0x80 PUSH1 0x40 MSTORE CALLVALUE DUP1 ISZERO PUSH2 0x10 JUMPI PUSH1 0x0 DUP1 REVERT JUMPDEST POP PUSH1 0x4 CALLDATASIZE LT PUSH2 0x2B JUMPI PUSH1 0x0 CALLDATALOAD PUSH1 0xE0 SHR DUP1 PUSH4 0x8E760AFE EQ PUSH2 0x30 JUMPI JUMPDEST PUSH1 0x0 DUP1 REVERT JUMPDEST PUSH2 0x4A PUSH1 0x4 DUP1 CALLDATASIZE SUB DUP2 ADD SWAP1 PUSH2 0x45 SWAP2 SWAP1 PUSH2 0x384C JUMP JUMPDEST PUSH2 0x60 JUMP JUMPDEST PUSH1 0x40 MLOAD PUSH2 0x57 SWAP2 SWAP1 PUSH2 0x38B4 JUMP JUMPDEST PUSH1 0x40 MLOAD DUP1 SWAP2 SUB SWAP1 RETURN JUMPDEST PUSH1 0x0 DUP1 PUSH2 0x6B PUSH2 0x201 JUMP JUMPDEST SWAP1 POP PUSH1 0x0 DUP2 PUSH1 0x20 ADD MLOAD SWAP1 POP PUSH1 0x0 PUSH2 0x82 DUP3 DUP5 PUSH2 0x828 JUMP JUMPDEST SWAP1 POP PUSH2 0x8C PUSH2 0x34BD JUMP JUMPDEST PUSH2 0xA9 DUP5 PUSH1 0x0 ADD MLOAD DUP6 PUSH1 0x20 ADD MLOAD DUP4 PUSH2 0xBC0 SWAP1 SWAP3 SWAP2 SWAP1 PUSH4 0xFFFFFFFF AND JUMP JUMPDEST PUSH2 0xB1 PUSH2 0x34D3 JUMP JUMPDEST PUSH2 0xCA DUP2 DUP7 PUSH1 0x20 ADD MLOAD DUP5 PUSH2 0xC21 SWAP1 SWAP3 SWAP2 SWAP1 PUSH4 0xFFFFFFFF AND JUMP JUMPDEST PUSH2 0xE3 DUP2 DUP5 PUSH1 0x80 ADD MLOAD DUP5 PUSH2 0xCC2 SWAP1 SWAP3 SWAP2 SWAP1 PUSH4 0xFFFFFFFF AND JUMP JUMPDEST PUSH2 0x10F DUP2 DUP5 PUSH1 0xA0 ADD MLOAD DUP6 PUSH1 0xC0 ADD MLOAD DUP7 PUSH1 0xE0 ADD MLOAD DUP8 PUSH2 0x100 ADD MLOAD DUP8 PUSH2 0xD3D SWAP1 SWAP6 SWAP5 SWAP4 SWAP3 SWAP2 SWAP1 PUSH4 0xFFFFFFFF AND JUMP JUMPDEST PUSH1 0x0 DUP1 PUSH2 0x11D DUP6 DUP9 DUP6 PUSH2 0xDE6 JUMP JUMPDEST SWAP2 POP SWAP2 POP DUP2 DUP6 PUSH2 0x380 ADD DUP2 DUP2 MSTORE POP POP PUSH2 0x145 DUP4 DUP9 PUSH1 0x20 ADD MLOAD DUP7 PUSH2 0xE76 SWAP1 SWAP3 SWAP2 SWAP1 PUSH4 0xFFFFFFFF AND JUMP JUMPDEST PUSH2 0x166 DUP4 DUP7 PUSH2 0x300 ADD MLOAD DUP8 PUSH2 0x320 ADD MLOAD DUP8 PUSH2 0xFF9 SWAP1 SWAP4 SWAP3 SWAP2 SWAP1 PUSH4 0xFFFFFFFF AND JUMP JUMPDEST DUP3 PUSH1 0x20 ADD MLOAD DUP4 PUSH1 0x0 ADD DUP2 DUP2 MSTORE POP POP PUSH1 0x0 PUSH2 0x182 DUP5 DUP4 DUP11 DUP10 PUSH2 0x107C JUMP JUMPDEST SWAP1 POP PUSH1 0x0 PUSH2 0x192 DUP6 DUP11 DUP5 DUP11 PUSH2 0x11D3 JUMP JUMPDEST SWAP1 POP PUSH1 0x0 PUSH2 0x1A0 DUP9 DUP8 PUSH2 0x16D6 JUMP JUMPDEST SWAP1 POP PUSH2 0x1AF DUP3 DUP3 DUP9 DUP12 DUP15 PUSH2 0x1899 JUMP JUMPDEST SWAP11 POP DUP11 PUSH2 0x1F1 JUMPI PUSH1 0x40 MLOAD PUSH32 0x8C379A000000000000000000000000000000000000000000000000000000000 DUP2 MSTORE PUSH1 0x4 ADD PUSH2 0x1E8 SWAP1 PUSH2 0x392C JUMP JUMPDEST PUSH1 0x40 MLOAD DUP1 SWAP2 SUB SWAP1 REVERT JUMPDEST POP POP POP POP POP POP POP POP POP POP SWAP3 SWAP2 POP POP JUMP JUMPDEST PUSH2 0x209 PUSH2 0x3557 JUMP JUMPDEST PUSH2 0x211 PUSH2 0x3557 JUMP JUMPDEST PUSH3 0x10000 PUSH1 0x0 DUP3 ADD MSTORE PUSH1 0x41 PUSH1 0x20 DUP3 ADD MSTORE PUSH31 0xEEB2CB5981ED45649ABEBDE081DCFF16C8601DE4347E7DD1628BA2DAAC43B7 PUSH1 0x40 DUP3 ADD MSTORE PUSH32 0x30641E0E92BEBEF818268D663BCAD6DBCFD6C0149170F6D7D350B1B1FA6C1001 PUSH1 0x60 DUP3 ADD MSTORE PUSH32 0xB5D56B77FE704E8E92338C0082F37E091126414C830E4C6922D5AC802D842D4 PUSH1 0x80 DUP3 ADD MSTORE PUSH32 0x72320B560AD7A012441DB4B88D5F9BCFE8AA8B89F54B264B5EA8243ACB35D43 PUSH1 0xA0 DUP3 ADD MLOAD MSTORE PUSH32 0xD3BD17BB4BC763B4CC852CDC6AAA908A76217E4251753BF08F2624FB0A83A2B PUSH1 0x20 PUSH1 0xA0 DUP4 ADD MLOAD ADD MSTORE PUSH32 0x1D594F4733A3252952B407C8E958B526F62F32743783380A0E970F91665733D PUSH1 0xC0 DUP3 ADD MLOAD MSTORE PUSH32 0x2A4EBFDBD1EE8EDB78738683ADE031FE90D743323B17FC2B436F195895FD70E5 PUSH1 0x20 PUSH1 0xC0 DUP4 ADD MLOAD ADD MSTORE PUSH32 0x67E83ED9EF401729232A78B6192164DBF98EC8EBA0D81D54E69FB5AFFFB9EE7 PUSH1 0xE0 DUP3 ADD MLOAD MSTORE PUSH32 0x23C1AC6893EAAD729C0844014A5A68E460361F16853C468D3329A02ECF299E70 PUSH1 0x20 PUSH1 0xE0 DUP4 ADD MLOAD ADD MSTORE PUSH32 0x2E7824260BE4DA9A5EDC1DEA9A64674E19B2851311270C702CE0F42D79206694 PUSH2 0x100 DUP3 ADD MLOAD MSTORE PUSH32 0x123D26D4E51AEA4A0DCF48567B9CE1956149FFD600B7A969A3D523BEDD186EF3 PUSH1 0x20 PUSH2 0x100 DUP4 ADD MLOAD ADD MSTORE PUSH32 0x8AB5E5348D115FFE18F442DFB09428DE39D093F841F2B85B313CE330F5FB999 PUSH2 0x120 DUP3 ADD MLOAD MSTORE PUSH32 0x215F5A4E7249021F710F68EE59B2105BF64E65EA5AF90F75B4B28E023C13C0FD PUSH1 0x20 PUSH2 0x120 DUP4 ADD MLOAD ADD MSTORE PUSH32 0xB3505FB8DA03C645AAADD23536C1F246C3C704F57F676FF6343CB78BBAFF0B2 PUSH2 0x140 DUP3 ADD MLOAD MSTORE PUSH32 0x2758723CDF8F0469D13C9C1880D450982302334B2A63BB12354C6DDB36CD3714 PUSH1 0x20 PUSH2 0x140 DUP4 ADD MLOAD ADD MSTORE PUSH32 0x144C0D4DCCFBA981CBE86C7F6CC7999D25837E1044C2872ADDF28EB1186D31DA PUSH2 0x160 DUP3 ADD MLOAD MSTORE PUSH32 0x7EE800B497A4A2C088E792B72C98C75A71F468FA6E347FFC351869F83DD4912 PUSH1 0x20 PUSH2 0x160 DUP4 ADD MLOAD ADD MSTORE PUSH32 0x13A52C17790ECEC0D887165390C6D9717B3C5EF90FC9B415152925099EEFD59D PUSH2 0x180 DUP3 ADD MLOAD MSTORE PUSH32 0x158C9522B74E9755C2E46CD16B0DAE6CA89C3E96B988255CD1BFB514F60CC55D PUSH1 0x20 PUSH2 0x180 DUP4 ADD MLOAD ADD MSTORE PUSH32 0x14B8D7E74AD55DBAEC1638052964445A746262E822825E4529F690868DA8F317 PUSH2 0x1A0 DUP3 ADD MLOAD MSTORE PUSH32 0x4BE344F00A1BBBAA53BEEEBD02E62FAB792E2A1F8A85AC0158D6ED0CABC9299 PUSH1 0x20 PUSH2 0x1A0 DUP4 ADD MLOAD ADD MSTORE PUSH32 0x1DF2ADF36B9C70F1AB993C0B5C430044D1A6B6DCA42896A1C4765AED03283E23 PUSH2 0x1C0 DUP3 ADD MLOAD MSTORE PUSH32 0x237543AB50E6C8AEEEB27AA1FE4D012DB1959BD3DB4369D21B167CC23C95F23A PUSH1 0x20 PUSH2 0x1C0 DUP4 ADD MLOAD ADD MSTORE PUSH32 0xDF1CA06C4BBC77E7949965850348385F79D8A45673364C4FC299A9B969D381D PUSH2 0x1E0 DUP3 ADD MLOAD MSTORE PUSH32 0xEC17C451F7143C2DF5576839E8B5FE7703963F65C8EF569C288396FCF52A43B PUSH1 0x20 PUSH2 0x1E0 DUP4 ADD MLOAD ADD MSTORE PUSH31 0xB745D0869E35B6BB5F48C14EED8B244026A6ACCDB4FA90A8C25F7900960712 PUSH2 0x200 DUP3 ADD MLOAD MSTORE PUSH32 0xF5D8DCF5E181F5158E75EA22608CA67E754684B6A57AB49E1121A8086877D4C PUSH1 0x20 PUSH2 0x200 DUP4 ADD MLOAD ADD MSTORE PUSH32 0xD6401DD8C1BBE302793F97EE76C8AFC61E00EAEAC51E556932BC2FF0C9CB2A9 PUSH2 0x220 DUP3 ADD MLOAD MSTORE PUSH32 0x92ADE5F728328893B90E2C6FB79B2761FEFD1643348B721E2BEB149D258C6D2 PUSH1 0x20 PUSH2 0x220 DUP4 ADD MLOAD ADD MSTORE PUSH32 0x2CAACAA755DDD17E6377334686D129752F4469133B81ED79608C615D119862D1 PUSH2 0x240 DUP3 ADD MLOAD MSTORE PUSH32 0x4BB08D9D49976AEFAFCC8C9AB1A8CE9CCAF78A8D8324CF1A04BFB76696F1867 PUSH1 0x20 PUSH2 0x240 DUP4 ADD MLOAD ADD MSTORE PUSH32 0x2303F9EE2DEA55FBB8E416232D883772AA63CA8BEDAFF25993621B7546912ED6 PUSH2 0x260 DUP3 ADD MLOAD MSTORE PUSH32 0x27A2FCE645099EB3EA9AFA0F3077FE86E21D080E5ECE6DC95B19D2633B5E9F3A PUSH1 0x20 PUSH2 0x260 DUP4 ADD MLOAD ADD MSTORE PUSH1 0x0 PUSH2 0x280 DUP3 ADD MSTORE PUSH1 0x0 PUSH2 0x2A0 DUP3 ADD MSTORE PUSH32 0x260E01B251F6F1C7E7FF4E580791DEE8EA51D87A358E038B4EFE30FAC09383C1 PUSH2 0x2C0 DUP3 ADD MLOAD MSTORE PUSH32 0x118C4D5B837BCC2BC89B5B398B5974E9F5944073B32078B7E231FEC938883B0 PUSH1 0x20 PUSH2 0x2C0 DUP4 ADD MLOAD ADD MSTORE PUSH32 0x4FC6369F7110FE3D25156C1BB9A72859CF2A04641F99BA4EE413C80DA6A5FE4 PUSH1 0x40 PUSH2 0x2C0 DUP4 ADD MLOAD ADD MSTORE PUSH32 0x22FEBDA3C0C0632A56475B4214E5615E11E6DD3F96E6CEA2854A87D4DACC5E55 PUSH1 0x60 PUSH2 0x2C0 DUP4 ADD MLOAD ADD MSTORE DUP1 SWAP2 POP POP SWAP1 JUMP JUMPDEST PUSH2 0x830 PUSH2 0x3675 JUMP JUMPDEST PUSH1 0x0 PUSH32 0x30644E72E131A029B85045B68181585D2833E84879B9709143E1F593F0000001 SWAP1 POP PUSH1 0x0 PUSH32 0x30644E72E131A029B85045B68181585D97816A916871CA8D3C208C16D87CFD47 SWAP1 POP PUSH1 0x0 DUP1 PUSH1 0x24 PUSH1 0x4 CALLDATALOAD ADD SWAP2 POP DUP5 SWAP1 POP DUP6 PUSH2 0x280 ADD MLOAD ISZERO PUSH2 0x991 JUMPI PUSH1 0x0 PUSH1 0x20 DUP8 PUSH2 0x2A0 ADD MLOAD PUSH2 0x8A7 SWAP2 SWAP1 PUSH2 0x3985 JUMP JUMPDEST SWAP1 POP PUSH1 0x0 DUP1 PUSH1 0x0 DUP1 DUP7 DUP6 ADD SWAP5 POP DUP5 CALLDATALOAD SWAP4 POP PUSH1 0x20 DUP6 ADD CALLDATALOAD PUSH1 0x44 SHL DUP5 ADD SWAP4 POP PUSH1 0x40 DUP6 ADD CALLDATALOAD PUSH1 0x88 SHL DUP5 ADD SWAP4 POP PUSH1 0x60 DUP6 ADD CALLDATALOAD PUSH1 0xCC SHL DUP5 ADD SWAP4 POP PUSH1 0x80 DUP6 ADD CALLDATALOAD SWAP3 POP PUSH1 0xA0 DUP6 ADD CALLDATALOAD PUSH1 0x44 SHL DUP4 ADD SWAP3 POP PUSH1 0xC0 DUP6 ADD CALLDATALOAD PUSH1 0x88 SHL DUP4 ADD SWAP3 POP PUSH1 0xE0 DUP6 ADD CALLDATALOAD PUSH1 0xCC SHL DUP4 ADD SWAP3 POP PUSH2 0x100 DUP6 ADD CALLDATALOAD SWAP2 POP PUSH2 0x120 DUP6 ADD CALLDATALOAD PUSH1 0x44 SHL DUP3 ADD SWAP2 POP PUSH2 0x140 DUP6 ADD CALLDATALOAD PUSH1 0x88 SHL DUP3 ADD SWAP2 POP PUSH2 0x160 DUP6 ADD CALLDATALOAD PUSH1 0xCC SHL DUP3 ADD SWAP2 POP PUSH2 0x180 DUP6 ADD CALLDATALOAD SWAP1 POP PUSH2 0x1A0 DUP6 ADD CALLDATALOAD PUSH1 0x44 SHL DUP2 ADD SWAP1 POP PUSH2 0x1C0 DUP6 ADD CALLDATALOAD PUSH1 0x88 SHL DUP2 ADD SWAP1 POP PUSH2 0x1E0 DUP6 ADD CALLDATALOAD PUSH1 0xCC SHL DUP2 ADD SWAP1 POP PUSH2 0x96F DUP5 DUP5 PUSH2 0x1B7C JUMP JUMPDEST DUP11 PUSH2 0x340 ADD DUP2 SWAP1 MSTORE POP PUSH2 0x982 DUP3 DUP3 PUSH2 0x1B7C JUMP JUMPDEST DUP11 PUSH2 0x360 ADD DUP2 SWAP1 MSTORE POP POP POP POP POP POP JUMPDEST PUSH1 0x20 DUP8 MUL DUP1 DUP4 ADD SWAP3 POP DUP4 PUSH1 0x20 DUP5 ADD CALLDATALOAD MOD DUP3 MLOAD MSTORE DUP4 DUP4 CALLDATALOAD MOD PUSH1 0x20 DUP4 MLOAD ADD MSTORE DUP4 PUSH1 0x60 DUP5 ADD CALLDATALOAD MOD PUSH1 0x20 DUP4 ADD MLOAD MSTORE DUP4 PUSH1 0x40 DUP5 ADD CALLDATALOAD MOD PUSH1 0x20 DUP1 DUP5 ADD MLOAD ADD MSTORE DUP4 PUSH1 0xA0 DUP5 ADD CALLDATALOAD MOD PUSH1 0x40 DUP4 ADD MLOAD MSTORE DUP4 PUSH1 0x80 DUP5 ADD CALLDATALOAD MOD PUSH1 0x20 PUSH1 0x40 DUP5 ADD MLOAD ADD MSTORE DUP4 PUSH1 0xE0 DUP5 ADD CALLDATALOAD MOD PUSH1 0x60 DUP4 ADD MLOAD MSTORE DUP4 PUSH1 0xC0 DUP5 ADD CALLDATALOAD MOD PUSH1 0x20 PUSH1 0x60 DUP5 ADD MLOAD ADD MSTORE DUP4 PUSH2 0x120 DUP5 ADD CALLDATALOAD MOD PUSH1 0x80 DUP4 ADD MLOAD MSTORE DUP4 PUSH2 0x100 DUP5 ADD CALLDATALOAD MOD PUSH1 0x20 PUSH1 0x80 DUP5 ADD MLOAD ADD MSTORE DUP4 PUSH2 0x160 DUP5 ADD CALLDATALOAD MOD PUSH1 0xA0 DUP4 ADD MLOAD MSTORE DUP4 PUSH2 0x140 DUP5 ADD CALLDATALOAD MOD PUSH1 0x20 PUSH1 0xA0 DUP5 ADD MLOAD ADD MSTORE DUP4 PUSH2 0x1A0 DUP5 ADD CALLDATALOAD MOD PUSH1 0xC0 DUP4 ADD MLOAD MSTORE DUP4 PUSH2 0x180 DUP5 ADD CALLDATALOAD MOD PUSH1 0x20 PUSH1 0xC0 DUP5 ADD MLOAD ADD MSTORE DUP4 PUSH2 0x1E0 DUP5 ADD CALLDATALOAD MOD PUSH1 0xE0 DUP4 ADD MLOAD MSTORE DUP4 PUSH2 0x1C0 DUP5 ADD CALLDATALOAD MOD PUSH1 0x20 PUSH1 0xE0 DUP5 ADD MLOAD ADD MSTORE DUP4 PUSH2 0x220 DUP5 ADD CALLDATALOAD MOD PUSH2 0x100 DUP4 ADD MLOAD MSTORE DUP4 PUSH2 0x200 DUP5 ADD CALLDATALOAD MOD PUSH1 0x20 PUSH2 0x100 DUP5 ADD MLOAD ADD MSTORE DUP5 PUSH2 0x240 DUP5 ADD CALLDATALOAD MOD PUSH2 0x120 DUP4 ADD MSTORE DUP5 PUSH2 0x260 DUP5 ADD CALLDATALOAD MOD PUSH2 0x140 DUP4 ADD MSTORE DUP5 PUSH2 0x280 DUP5 ADD CALLDATALOAD MOD PUSH2 0x160 DUP4 ADD MSTORE DUP5 PUSH2 0x2A0 DUP5 ADD CALLDATALOAD MOD PUSH2 0x180 DUP4 ADD MSTORE DUP5 PUSH2 0x2C0 DUP5 ADD CALLDATALOAD MOD PUSH2 0x1A0 DUP4 ADD MSTORE DUP5 PUSH2 0x2E0 DUP5 ADD CALLDATALOAD MOD PUSH2 0x1C0 DUP4 ADD MSTORE DUP5 PUSH2 0x300 DUP5 ADD CALLDATALOAD MOD PUSH2 0x1E0 DUP4 ADD MSTORE DUP5 PUSH2 0x320 DUP5 ADD CALLDATALOAD MOD PUSH2 0x200 DUP4 ADD MSTORE DUP5 PUSH2 0x340 DUP5 ADD CALLDATALOAD MOD PUSH2 0x220 DUP4 ADD MSTORE DUP5 PUSH2 0x360 DUP5 ADD CALLDATALOAD MOD PUSH2 0x240 DUP4 ADD MSTORE DUP5 PUSH2 0x380 DUP5 ADD CALLDATALOAD MOD PUSH2 0x260 DUP4 ADD MSTORE DUP5 PUSH2 0x3A0 DUP5 ADD CALLDATALOAD MOD PUSH2 0x280 DUP4 ADD MSTORE DUP5 PUSH2 0x3C0 DUP5 ADD CALLDATALOAD MOD PUSH2 0x2A0 DUP4 ADD MSTORE DUP5 PUSH2 0x3E0 DUP5 ADD CALLDATALOAD MOD PUSH2 0x2C0 DUP4 ADD MSTORE DUP5 PUSH2 0x400 DUP5 ADD CALLDATALOAD MOD PUSH2 0x2E0 DUP4 ADD MSTORE DUP4 PUSH2 0x440 DUP5 ADD CALLDATALOAD MOD PUSH2 0x300 DUP4 ADD MLOAD MSTORE DUP4 PUSH2 0x420 DUP5 ADD CALLDATALOAD MOD PUSH1 0x20 PUSH2 0x300 DUP5 ADD MLOAD ADD MSTORE DUP4 PUSH2 0x480 DUP5 ADD CALLDATALOAD MOD PUSH2 0x320 DUP4 ADD MLOAD MSTORE DUP4 PUSH2 0x460 DUP5 ADD CALLDATALOAD MOD PUSH1 0x20 PUSH2 0x320 DUP5 ADD MLOAD ADD MSTORE POP POP POP POP POP SWAP3 SWAP2 POP POP JUMP JUMPDEST PUSH1 0x0 PUSH1 0x40 MLOAD DUP4 PUSH1 0x18 SHR PUSH1 0x20 DUP3 ADD MSTORE8 DUP4 PUSH1 0x10 SHR PUSH1 0x21 DUP3 ADD MSTORE8 DUP4 PUSH1 0x8 SHR PUSH1 0x22 DUP3 ADD MSTORE8 DUP4 PUSH1 0x23 DUP3 ADD MSTORE8 DUP3 PUSH1 0x18 SHR PUSH1 0x24 DUP3 ADD MSTORE8 DUP3 PUSH1 0x10 SHR PUSH1 0x25 DUP3 ADD MSTORE8 DUP3 PUSH1 0x8 SHR PUSH1 0x26 DUP3 ADD MSTORE8 DUP3 PUSH1 0x27 DUP3 ADD MSTORE8 PUSH1 0x8 PUSH1 0x20 DUP3 ADD KECCAK256 SWAP2 POP POP DUP1 DUP5 PUSH1 0x0 ADD DUP2 DUP2 MSTORE POP POP POP POP POP POP JUMP JUMPDEST PUSH1 0x0 DUP1 DUP5 PUSH1 0x0 ADD MLOAD SWAP1 POP PUSH1 0x0 PUSH32 0x30644E72E131A029B85045B68181585D2833E84879B9709143E1F593F0000001 SWAP1 POP PUSH1 0x0 PUSH1 0x40 MLOAD DUP4 DUP2 MSTORE PUSH1 0x20 DUP2 ADD SWAP1 POP PUSH1 0x24 PUSH1 0x4 CALLDATALOAD ADD PUSH1 0x20 DUP8 MUL PUSH2 0x100 ADD DUP1 DUP3 DUP5 CALLDATACOPY PUSH1 0x40 MLOAD PUSH1 0x20 DUP3 ADD DUP1 DUP3 KECCAK256 SWAP9 POP DUP7 DUP10 MOD SWAP6 POP POP POP POP POP POP DUP1 DUP7 PUSH1 0x60 ADD DUP2 DUP2 MSTORE POP POP DUP4 PUSH1 0x0 MSTORE PUSH1 0x1 PUSH1 0x20 MSTORE8 PUSH1 0x21 PUSH1 0x0 KECCAK256 SWAP4 POP DUP2 DUP5 MOD SWAP1 POP DUP1 DUP7 PUSH1 0x80 ADD DUP2 DUP2 MSTORE POP POP DUP4 DUP8 PUSH1 0x0 ADD DUP2 DUP2 MSTORE POP POP POP POP POP POP POP POP POP JUMP JUMPDEST PUSH1 0x0 DUP1 DUP5 PUSH1 0x0 ADD MLOAD SWAP1 POP PUSH1 0x0 PUSH32 0x30644E72E131A029B85045B68181585D2833E84879B9709143E1F593F0000001 SWAP1 POP PUSH1 0x0 PUSH1 0x40 MLOAD DUP4 DUP2 MSTORE PUSH1 0x20 DUP7 ADD MLOAD PUSH1 0x20 DUP3 ADD MSTORE DUP6 MLOAD PUSH1 0x40 DUP3 ADD MSTORE PUSH1 0x60 DUP2 KECCAK256 SWAP5 POP DUP3 DUP6 MOD SWAP2 POP POP DUP1 DUP7 PUSH1 0x20 ADD DUP2 DUP2 MSTORE POP POP DUP1 DUP7 PUSH1 0x0 ADD DUP2 DUP2 MSTORE POP POP DUP4 DUP8 PUSH1 0x0 ADD DUP2 DUP2 MSTORE POP POP POP POP POP POP POP POP POP JUMP JUMPDEST PUSH1 0x0 DUP1 DUP8 PUSH1 0x0 ADD MLOAD SWAP1 POP PUSH1 0x0 PUSH32 0x30644E72E131A029B85045B68181585D2833E84879B9709143E1F593F0000001 SWAP1 POP PUSH1 0x0 PUSH1 0x40 MLOAD DUP4 DUP2 MSTORE PUSH1 0x20 DUP10 ADD MLOAD PUSH1 0x20 DUP3 ADD MSTORE DUP9 MLOAD PUSH1 0x40 DUP3 ADD MSTORE PUSH1 0x20 DUP9 ADD MLOAD PUSH1 0x60 DUP3 ADD MSTORE DUP8 MLOAD PUSH1 0x80 DUP3 ADD MSTORE PUSH1 0x20 DUP8 ADD MLOAD PUSH1 0xA0 DUP3 ADD MSTORE DUP7 MLOAD PUSH1 0xC0 DUP3 ADD MSTORE PUSH1 0x20 DUP7 ADD MLOAD PUSH1 0xE0 DUP3 ADD MSTORE DUP6 MLOAD PUSH2 0x100 DUP3 ADD MSTORE PUSH2 0x120 DUP2 KECCAK256 SWAP5 POP DUP3 DUP6 MOD SWAP2 POP POP DUP1 DUP10 PUSH1 0x40 ADD DUP2 DUP2 MSTORE POP POP DUP4 DUP11 PUSH1 0x0 ADD DUP2 DUP2 MSTORE POP POP POP POP POP POP POP POP POP POP POP POP JUMP JUMPDEST PUSH1 0x0 DUP1 PUSH1 0x0 DUP1 PUSH1 0x0 DUP1 PUSH1 0x0 DUP1 PUSH2 0xDFC DUP10 DUP12 PUSH2 0x1BF0 JUMP JUMPDEST SWAP2 POP SWAP2 POP PUSH1 0x0 DUP1 PUSH1 0x0 DUP1 PUSH1 0x0 PUSH2 0xE16 DUP16 DUP16 PUSH1 0x40 ADD MLOAD PUSH2 0x1D8C JUMP JUMPDEST SWAP5 POP SWAP5 POP SWAP5 POP SWAP5 POP SWAP5 POP PUSH2 0xE2F DUP8 DUP8 DUP8 DUP8 DUP8 DUP8 DUP8 PUSH2 0x1E97 JUMP JUMPDEST DUP1 SWAP12 POP DUP2 SWAP13 POP DUP3 SWAP15 POP DUP4 SWAP14 POP POP POP POP POP DUP10 DUP16 PUSH2 0x300 ADD DUP2 DUP2 MSTORE POP POP POP POP POP POP POP POP POP PUSH1 0x0 PUSH2 0xE61 DUP5 DUP7 DUP11 DUP7 DUP7 DUP16 PUSH2 0x1FC7 JUMP JUMPDEST SWAP1 POP DUP1 DUP4 SWAP7 POP SWAP7 POP POP POP POP POP POP SWAP4 POP SWAP4 SWAP2 POP POP JUMP JUMPDEST PUSH1 0x0 PUSH32 0x30644E72E131A029B85045B68181585D2833E84879B9709143E1F593F0000001 SWAP1 POP PUSH1 0x0 DUP5 PUSH1 0x0 ADD MLOAD SWAP1 POP PUSH1 0x0 DUP1 PUSH1 0x24 PUSH1 0x4 CALLDATALOAD ADD PUSH1 0x20 DUP7 MUL DUP2 ADD SWAP1 POP PUSH2 0x240 DUP2 ADD SWAP1 POP PUSH1 0x40 MLOAD DUP5 DUP2 MSTORE PUSH2 0x1E0 DUP3 PUSH1 0x20 DUP4 ADD CALLDATACOPY PUSH2 0x200 DUP2 KECCAK256 SWAP4 POP DUP6 DUP5 MOD SWAP3 POP POP POP DUP1 DUP7 PUSH1 0xC0 ADD DUP2 DUP2 MSTORE POP POP DUP2 PUSH1 0x0 MSTORE PUSH1 0x1 PUSH1 0x20 MSTORE8 DUP4 PUSH1 0x21 PUSH1 0x0 KECCAK256 MOD SWAP1 POP DUP1 DUP7 PUSH1 0xE0 ADD DUP2 DUP2 MSTORE POP POP PUSH1 0x2 PUSH1 0x20 MSTORE8 DUP4 PUSH1 0x21 PUSH1 0x0 KECCAK256 MOD SWAP1 POP DUP1 DUP7 PUSH2 0x100 ADD DUP2 DUP2 MSTORE POP POP PUSH1 0x3 PUSH1 0x20 MSTORE8 DUP4 PUSH1 0x21 PUSH1 0x0 KECCAK256 MOD SWAP1 POP DUP1 DUP7 PUSH2 0x120 ADD DUP2 DUP2 MSTORE POP POP PUSH1 0x4 PUSH1 0x20 MSTORE8 DUP4 PUSH1 0x21 PUSH1 0x0 KECCAK256 MOD SWAP1 POP DUP1 DUP7 PUSH2 0x140 ADD DUP2 DUP2 MSTORE POP POP PUSH1 0x5 PUSH1 0x20 MSTORE8 DUP4 PUSH1 0x21 PUSH1 0x0 KECCAK256 MOD SWAP1 POP DUP1 DUP7 PUSH2 0x160 ADD DUP2 DUP2 MSTORE POP POP PUSH1 0x6 PUSH1 0x20 MSTORE8 DUP4 PUSH1 0x21 PUSH1 0x0 KECCAK256 MOD SWAP1 POP DUP1 DUP7 PUSH2 0x180 ADD DUP2 DUP2 MSTORE POP POP PUSH1 0x7 PUSH1 0x20 MSTORE8 DUP4 PUSH1 0x21 PUSH1 0x0 KECCAK256 MOD SWAP1 POP DUP1 DUP7 PUSH2 0x1A0 ADD DUP2 DUP2 MSTORE POP POP PUSH1 0x8 PUSH1 0x20 MSTORE8 DUP4 PUSH1 0x21 PUSH1 0x0 KECCAK256 MOD SWAP1 POP DUP1 DUP7 PUSH2 0x1C0 ADD DUP2 DUP2 MSTORE POP POP PUSH1 0x9 PUSH1 0x20 MSTORE8 DUP4 PUSH1 0x21 PUSH1 0x0 KECCAK256 MOD SWAP1 POP DUP1 DUP7 PUSH2 0x1E0 ADD DUP2 DUP2 MSTORE POP POP PUSH1 0x0 PUSH1 0xA PUSH1 0x20 MSTORE8 PUSH1 0x21 PUSH1 0x0 KECCAK256 SWAP1 POP DUP5 DUP2 MOD SWAP2 POP DUP2 DUP8 PUSH2 0x200 ADD DUP2 DUP2 MSTORE POP POP DUP1 DUP9 PUSH1 0x0 ADD DUP2 DUP2 MSTORE POP POP POP POP POP POP POP POP POP POP JUMP JUMPDEST PUSH1 0x0 DUP1 DUP6 PUSH1 0x0 ADD MLOAD SWAP1 POP PUSH1 0x0 PUSH32 0x30644E72E131A029B85045B68181585D2833E84879B9709143E1F593F0000001 SWAP1 POP PUSH1 0x0 PUSH1 0x40 MLOAD DUP4 DUP2 MSTORE PUSH1 0x20 DUP8 ADD MLOAD PUSH1 0x20 DUP3 ADD MSTORE DUP7 MLOAD PUSH1 0x40 DUP3 ADD MSTORE PUSH1 0x20 DUP7 ADD MLOAD PUSH1 0x60 DUP3 ADD MSTORE DUP6 MLOAD PUSH1 0x80 DUP3 ADD MSTORE PUSH1 0xA0 DUP2 KECCAK256 SWAP5 POP DUP3 DUP6 MOD SWAP2 POP POP DUP1 DUP8 PUSH1 0xA0 ADD DUP2 DUP2 MSTORE POP POP DUP4 DUP9 PUSH1 0x0 ADD DUP2 DUP2 MSTORE POP POP POP POP POP POP POP POP POP POP JUMP JUMPDEST PUSH2 0x1084 PUSH2 0x379B JUMP JUMPDEST PUSH1 0x0 PUSH2 0x1092 DUP4 DUP6 DUP9 DUP9 PUSH2 0x2036 JUMP JUMPDEST SWAP1 POP PUSH1 0x0 PUSH2 0x10A1 DUP5 DUP7 DUP10 PUSH2 0x2282 JUMP JUMPDEST SWAP1 POP PUSH1 0x0 PUSH2 0x10AF DUP6 DUP10 PUSH2 0x292E JUMP JUMPDEST SWAP1 POP PUSH1 0x0 PUSH2 0x10BD DUP7 DUP11 PUSH2 0x2AD4 JUMP JUMPDEST SWAP1 POP PUSH1 0x0 DUP8 PUSH2 0x1C0 ADD MLOAD SWAP1 POP PUSH1 0x0 DUP9 PUSH2 0x1E0 ADD MLOAD SWAP1 POP PUSH2 0x10DC DUP3 PUSH2 0x2D36 JUMP JUMPDEST PUSH2 0x10E5 DUP2 PUSH2 0x2D36 JUMP JUMPDEST PUSH1 0x0 PUSH1 0x40 MLOAD DUP4 MLOAD DUP2 MSTORE PUSH1 0x20 DUP5 ADD MLOAD PUSH1 0x20 DUP3 ADD MSTORE DUP6 PUSH1 0x40 DUP3 ADD MSTORE PUSH1 0x40 DUP2 PUSH1 0x60 DUP4 PUSH1 0x7 GAS STATICCALL SWAP2 POP DUP8 MLOAD PUSH1 0x40 DUP3 ADD MSTORE PUSH1 0x20 DUP9 ADD MLOAD PUSH1 0x60 DUP3 ADD MSTORE PUSH1 0x40 DUP2 PUSH1 0x80 DUP4 PUSH1 0x6 GAS STATICCALL DUP3 AND SWAP2 POP DUP3 MLOAD PUSH1 0x40 DUP3 ADD MSTORE PUSH1 0x20 DUP4 ADD MLOAD PUSH1 0x60 DUP3 ADD MSTORE DUP5 PUSH1 0x80 DUP3 ADD MSTORE PUSH1 0x40 DUP1 DUP3 ADD PUSH1 0x60 PUSH1 0x40 DUP5 ADD PUSH1 0x7 GAS STATICCALL DUP3 AND SWAP2 POP PUSH1 0x40 DUP2 PUSH1 0x80 DUP4 PUSH1 0x6 GAS STATICCALL DUP3 AND SWAP2 POP DUP7 MLOAD PUSH1 0x40 DUP3 ADD MSTORE PUSH1 0x20 DUP8 ADD MLOAD PUSH1 0x60 DUP3 ADD MSTORE PUSH1 0x40 DUP9 PUSH1 0x80 DUP4 PUSH1 0x6 GAS STATICCALL DUP3 AND SWAP2 POP POP DUP1 PUSH2 0x11C1 JUMPI PUSH1 0x40 MLOAD PUSH32 0x8C379A000000000000000000000000000000000000000000000000000000000 DUP2 MSTORE PUSH1 0x4 ADD PUSH2 0x11B8 SWAP1 PUSH2 0x3A39 JUMP JUMPDEST PUSH1 0x40 MLOAD DUP1 SWAP2 SUB SWAP1 REVERT JUMPDEST DUP7 SWAP8 POP POP POP POP POP POP POP POP SWAP5 SWAP4 POP POP POP POP JUMP JUMPDEST PUSH2 0x11DB PUSH2 0x379B JUMP JUMPDEST PUSH1 0x0 DUP1 PUSH1 0x0 PUSH32 0x30644E72E131A029B85045B68181585D2833E84879B9709143E1F593F0000001 SWAP1 POP PUSH1 0x40 MLOAD SWAP2 POP PUSH1 0xA0 DUP3 ADD PUSH1 0x40 MSTORE PUSH1 0x0 DUP8 PUSH2 0x300 ADD MLOAD DUP3 PUSH2 0x1222 SWAP2 SWAP1 PUSH2 0x3A59 JUMP JUMPDEST SWAP1 POP PUSH1 0x0 DUP7 PUSH1 0xA0 ADD MLOAD SWAP1 POP PUSH2 0x1236 DUP2 PUSH2 0x2D36 JUMP JUMPDEST DUP1 MLOAD DUP5 MSTORE PUSH1 0x20 DUP2 ADD MLOAD PUSH1 0x20 DUP6 ADD MSTORE DUP2 PUSH1 0x40 DUP6 ADD MSTORE PUSH1 0x40 DUP5 PUSH1 0x60 DUP7 PUSH1 0x7 GAS STATICCALL SWAP5 POP PUSH1 0x0 DUP10 PUSH2 0x2E0 ADD MLOAD SWAP1 POP PUSH1 0x0 DUP2 SWAP1 POP DUP9 PUSH1 0xC0 ADD MLOAD SWAP3 POP PUSH2 0x1275 DUP4 PUSH2 0x2D36 JUMP JUMPDEST DUP3 MLOAD PUSH1 0x40 DUP8 ADD MSTORE PUSH1 0x20 DUP4 ADD MLOAD PUSH1 0x60 DUP8 ADD MSTORE DUP5 DUP5 DUP4 MULMOD PUSH1 0x80 DUP8 ADD MSTORE PUSH1 0x40 DUP1 DUP8 ADD PUSH1 0x60 PUSH1 0x40 DUP10 ADD PUSH1 0x7 GAS STATICCALL SWAP7 POP PUSH1 0x40 DUP7 PUSH1 0x80 DUP9 PUSH1 0x6 GAS STATICCALL DUP8 AND SWAP7 POP DUP9 PUSH1 0xE0 ADD MLOAD SWAP3 POP PUSH2 0x12BE DUP4 PUSH2 0x2D36 JUMP JUMPDEST DUP5 DUP3 DUP4 MULMOD SWAP2 POP DUP3 MLOAD PUSH1 0x40 DUP8 ADD MSTORE PUSH1 0x20 DUP4 ADD MLOAD PUSH1 0x60 DUP8 ADD MSTORE DUP5 DUP5 DUP4 MULMOD PUSH1 0x80 DUP8 ADD MSTORE PUSH1 0x40 DUP1 DUP8 ADD PUSH1 0x60 PUSH1 0x40 DUP10 ADD PUSH1 0x7 GAS STATICCALL DUP8 AND SWAP7 POP PUSH1 0x40 DUP7 PUSH1 0x80 DUP9 PUSH1 0x6 GAS STATICCALL DUP8 AND SWAP7 POP DUP9 PUSH2 0x100 ADD MLOAD SWAP3 POP PUSH2 0x1310 DUP4 PUSH2 0x2D36 JUMP JUMPDEST DUP5 DUP2 DUP4 MULMOD SWAP2 POP DUP3 MLOAD PUSH1 0x40 DUP8 ADD MSTORE PUSH1 0x20 DUP4 ADD MLOAD PUSH1 0x60 DUP8 ADD MSTORE DUP5 DUP5 DUP4 MULMOD PUSH1 0x80 DUP8 ADD MSTORE PUSH1 0x40 DUP1 DUP8 ADD PUSH1 0x60 PUSH1 0x40 DUP10 ADD PUSH1 0x7 GAS STATICCALL DUP8 AND SWAP7 POP PUSH1 0x40 DUP7 PUSH1 0x80 DUP9 PUSH1 0x6 GAS STATICCALL DUP8 AND SWAP7 POP DUP10 SWAP3 POP PUSH2 0x135D DUP4 PUSH2 0x2D36 JUMP JUMPDEST DUP10 MLOAD PUSH1 0x40 DUP8 ADD MSTORE PUSH1 0x20 DUP11 ADD MLOAD PUSH1 0x60 DUP8 ADD MSTORE PUSH1 0x40 DUP7 PUSH1 0x80 DUP9 PUSH1 0x6 GAS STATICCALL DUP8 AND SWAP7 POP PUSH1 0x0 DUP13 PUSH1 0xA0 ADD MLOAD SWAP1 POP PUSH1 0x0 DUP14 PUSH1 0xC0 ADD MLOAD SWAP1 POP DUP11 PUSH1 0x0 ADD MLOAD SWAP5 POP PUSH2 0x139E DUP6 PUSH2 0x2D36 JUMP JUMPDEST DUP7 PUSH1 0x1 DUP4 ADDMOD SWAP2 POP DUP7 DUP3 DUP3 MULMOD SWAP4 POP DUP5 MLOAD PUSH1 0x40 DUP10 ADD MSTORE PUSH1 0x20 DUP6 ADD MLOAD PUSH1 0x60 DUP10 ADD MSTORE DUP4 PUSH1 0x80 DUP10 ADD MSTORE PUSH1 0x40 DUP1 DUP10 ADD PUSH1 0x60 PUSH1 0x40 DUP12 ADD PUSH1 0x7 GAS STATICCALL DUP10 AND SWAP9 POP PUSH1 0x40 DUP9 PUSH1 0x80 DUP11 PUSH1 0x6 GAS STATICCALL DUP10 AND SWAP9 POP DUP14 PUSH1 0xE0 ADD MLOAD SWAP1 POP DUP11 PUSH1 0x20 ADD MLOAD SWAP5 POP PUSH2 0x13FA DUP6 PUSH2 0x2D36 JUMP JUMPDEST DUP7 DUP3 DUP3 MULMOD SWAP4 POP DUP5 MLOAD PUSH1 0x40 DUP10 ADD MSTORE PUSH1 0x20 DUP6 ADD MLOAD PUSH1 0x60 DUP10 ADD MSTORE DUP4 PUSH1 0x80 DUP10 ADD MSTORE PUSH1 0x40 DUP1 DUP10 ADD PUSH1 0x60 PUSH1 0x40 DUP12 ADD PUSH1 0x7 GAS STATICCALL DUP10 AND SWAP9 POP PUSH1 0x40 DUP9 PUSH1 0x80 DUP11 PUSH1 0x6 GAS STATICCALL DUP10 AND SWAP9 POP DUP14 PUSH2 0x100 ADD MLOAD SWAP1 POP DUP11 PUSH1 0x40 ADD MLOAD SWAP5 POP PUSH2 0x1450 DUP6 PUSH2 0x2D36 JUMP JUMPDEST DUP7 DUP3 DUP3 MULMOD SWAP4 POP DUP5 MLOAD PUSH1 0x40 DUP10 ADD MSTORE PUSH1 0x20 DUP6 ADD MLOAD PUSH1 0x60 DUP10 ADD MSTORE DUP4 PUSH1 0x80 DUP10 ADD MSTORE PUSH1 0x40 DUP1 DUP10 ADD PUSH1 0x60 PUSH1 0x40 DUP12 ADD PUSH1 0x7 GAS STATICCALL DUP10 AND SWAP9 POP PUSH1 0x40 DUP9 PUSH1 0x80 DUP11 PUSH1 0x6 GAS STATICCALL DUP10 AND SWAP9 POP DUP14 PUSH2 0x120 ADD MLOAD SWAP1 POP DUP11 PUSH1 0x60 ADD MLOAD SWAP5 POP PUSH2 0x14A6 DUP6 PUSH2 0x2D36 JUMP JUMPDEST DUP7 DUP3 DUP3 MULMOD SWAP4 POP DUP5 MLOAD PUSH1 0x40 DUP10 ADD MSTORE PUSH1 0x20 DUP6 ADD MLOAD PUSH1 0x60 DUP10 ADD MSTORE DUP4 PUSH1 0x80 DUP10 ADD MSTORE PUSH1 0x40 DUP1 DUP10 ADD PUSH1 0x60 PUSH1 0x40 DUP12 ADD PUSH1 0x7 GAS STATICCALL DUP10 AND SWAP9 POP PUSH1 0x40 DUP9 PUSH1 0x80 DUP11 PUSH1 0x6 GAS STATICCALL DUP10 AND SWAP9 POP DUP14 PUSH2 0x140 ADD MLOAD SWAP4 POP DUP13 PUSH2 0x200 ADD MLOAD SWAP5 POP PUSH2 0x14FD DUP6 PUSH2 0x2D36 JUMP JUMPDEST DUP5 MLOAD PUSH1 0x40 DUP10 ADD MSTORE PUSH1 0x20 DUP6 ADD MLOAD PUSH1 0x60 DUP10 ADD MSTORE DUP4 PUSH1 0x80 DUP10 ADD MSTORE PUSH1 0x40 DUP1 DUP10 ADD PUSH1 0x60 PUSH1 0x40 DUP12 ADD PUSH1 0x7 GAS STATICCALL DUP10 AND SWAP9 POP PUSH1 0x40 DUP9 PUSH1 0x80 DUP11 PUSH1 0x6 GAS STATICCALL DUP10 AND SWAP9 POP DUP14 PUSH2 0x160 ADD MLOAD SWAP4 POP DUP13 PUSH2 0x220 ADD MLOAD SWAP5 POP PUSH2 0x154E DUP6 PUSH2 0x2D36 JUMP JUMPDEST DUP5 MLOAD PUSH1 0x40 DUP10 ADD MSTORE PUSH1 0x20 DUP6 ADD MLOAD PUSH1 0x60 DUP10 ADD MSTORE DUP4 PUSH1 0x80 DUP10 ADD MSTORE PUSH1 0x40 DUP1 DUP10 ADD PUSH1 0x60 PUSH1 0x40 DUP12 ADD PUSH1 0x7 GAS STATICCALL DUP10 AND SWAP9 POP PUSH1 0x40 DUP9 PUSH1 0x80 DUP11 PUSH1 0x6 GAS STATICCALL DUP10 AND SWAP9 POP DUP14 PUSH2 0x180 ADD MLOAD SWAP4 POP DUP13 PUSH2 0x240 ADD MLOAD SWAP5 POP PUSH2 0x159F DUP6 PUSH2 0x2D36 JUMP JUMPDEST DUP5 MLOAD PUSH1 0x40 DUP10 ADD MSTORE PUSH1 0x20 DUP6 ADD MLOAD PUSH1 0x60 DUP10 ADD MSTORE DUP4 PUSH1 0x80 DUP10 ADD MSTORE PUSH1 0x40 DUP1 DUP10 ADD PUSH1 0x60 PUSH1 0x40 DUP12 ADD PUSH1 0x7 GAS STATICCALL DUP10 AND SWAP9 POP PUSH1 0x40 DUP9 PUSH1 0x80 DUP11 PUSH1 0x6 GAS STATICCALL DUP10 AND SWAP9 POP DUP14 PUSH2 0x1A0 ADD MLOAD SWAP4 POP DUP13 PUSH2 0x180 ADD MLOAD SWAP5 POP PUSH2 0x15F0 DUP6 PUSH2 0x2D36 JUMP JUMPDEST DUP5 MLOAD PUSH1 0x40 DUP10 ADD MSTORE PUSH1 0x20 DUP6 ADD MLOAD PUSH1 0x60 DUP10 ADD MSTORE DUP4 PUSH1 0x80 DUP10 ADD MSTORE PUSH1 0x40 DUP1 DUP10 ADD PUSH1 0x60 PUSH1 0x40 DUP12 ADD PUSH1 0x7 GAS STATICCALL DUP10 AND SWAP9 POP PUSH1 0x40 DUP9 PUSH1 0x80 DUP11 PUSH1 0x6 GAS STATICCALL DUP10 AND SWAP9 POP PUSH2 0x1630 PUSH2 0x379B JUMP JUMPDEST DUP15 PUSH2 0x1C0 ADD MLOAD SWAP5 POP DUP14 PUSH2 0x1A0 ADD MLOAD SWAP6 POP PUSH2 0x1649 DUP7 PUSH2 0x2D36 JUMP JUMPDEST DUP6 MLOAD PUSH1 0x40 DUP11 ADD MSTORE PUSH1 0x20 DUP7 ADD MLOAD PUSH1 0x60 DUP11 ADD MSTORE DUP5 PUSH1 0x80 DUP11 ADD MSTORE PUSH1 0x40 DUP1 DUP11 ADD PUSH1 0x60 PUSH1 0x40 DUP13 ADD PUSH1 0x7 GAS STATICCALL DUP11 AND SWAP10 POP PUSH1 0x40 DUP2 PUSH1 0x80 DUP12 PUSH1 0x6 GAS STATICCALL DUP11 AND SWAP10 POP DUP10 PUSH2 0x16C1 JUMPI PUSH1 0x40 MLOAD PUSH32 0x8C379A000000000000000000000000000000000000000000000000000000000 DUP2 MSTORE PUSH1 0x4 ADD PUSH2 0x16B8 SWAP1 PUSH2 0x3AFF JUMP JUMPDEST PUSH1 0x40 MLOAD DUP1 SWAP2 SUB SWAP1 REVERT JUMPDEST DUP1 SWAP11 POP POP POP POP POP POP POP POP POP POP POP SWAP5 SWAP4 POP POP POP POP JUMP JUMPDEST PUSH1 0x0 DUP1 PUSH32 0x30644E72E131A029B85045B68181585D2833E84879B9709143E1F593F0000001 SWAP1 POP PUSH1 0x0 DUP1 PUSH1 0x0 DUP6 PUSH1 0xC0 ADD MLOAD SWAP2 POP DUP7 PUSH2 0x120 ADD MLOAD SWAP1 POP DUP4 DUP5 DUP3 DUP5 MULMOD DUP5 ADDMOD SWAP3 POP DUP6 PUSH1 0xE0 ADD MLOAD SWAP2 POP DUP7 PUSH2 0x140 ADD MLOAD SWAP1 POP DUP4 DUP5 DUP3 DUP5 MULMOD DUP5 ADDMOD SWAP3 POP DUP6 PUSH2 0x100 ADD MLOAD SWAP2 POP DUP7 PUSH2 0x160 ADD MLOAD SWAP1 POP DUP4 DUP5 DUP3 DUP5 MULMOD DUP5 ADDMOD SWAP3 POP DUP6 PUSH2 0x120 ADD MLOAD SWAP2 POP DUP7 PUSH2 0x180 ADD MLOAD SWAP1 POP DUP4 DUP5 DUP3 DUP5 MULMOD DUP5 ADDMOD SWAP3 POP DUP6 PUSH2 0x140 ADD MLOAD SWAP2 POP DUP7 PUSH2 0x1A0 ADD MLOAD SWAP1 POP DUP4 DUP5 DUP3 DUP5 MULMOD DUP5 ADDMOD SWAP3 POP DUP6 PUSH2 0x160 ADD MLOAD SWAP2 POP DUP7 PUSH2 0x1C0 ADD MLOAD SWAP1 POP DUP4 DUP5 DUP3 DUP5 MULMOD DUP5 ADDMOD SWAP3 POP DUP6 PUSH2 0x180 ADD MLOAD SWAP2 POP DUP7 PUSH2 0x1E0 ADD MLOAD SWAP1 POP DUP4 DUP5 DUP3 DUP5 MULMOD DUP5 ADDMOD SWAP3 POP DUP6 PUSH2 0x1A0 ADD MLOAD SWAP2 POP DUP7 PUSH2 0x200 ADD MLOAD SWAP1 POP DUP4 DUP5 DUP3 DUP5 MULMOD DUP5 ADDMOD SWAP3 POP DUP6 PUSH2 0x1C0 ADD MLOAD SWAP2 POP DUP7 PUSH2 0x220 ADD MLOAD SWAP1 POP DUP4 DUP5 DUP3 DUP5 MULMOD DUP5 ADDMOD SWAP3 POP DUP6 PUSH2 0x1E0 ADD MLOAD SWAP2 POP DUP7 PUSH2 0x240 ADD MLOAD SWAP1 POP DUP4 DUP5 DUP3 DUP5 MULMOD DUP5 ADDMOD SWAP3 POP DUP7 PUSH2 0x380 ADD MLOAD SWAP1 POP DUP4 DUP2 DUP6 SUB DUP5 ADDMOD SWAP3 POP DUP6 PUSH1 0xC0 ADD MLOAD SWAP2 POP DUP7 PUSH2 0x280 ADD MLOAD SWAP1 POP PUSH1 0x0 DUP5 DUP3 DUP5 MULMOD SWAP1 POP DUP7 PUSH1 0xE0 ADD MLOAD SWAP3 POP DUP8 PUSH2 0x2A0 ADD MLOAD SWAP2 POP DUP5 DUP6 DUP4 DUP6 MULMOD DUP3 ADDMOD SWAP1 POP DUP7 PUSH2 0x100 ADD MLOAD SWAP3 POP DUP8 PUSH2 0x2C0 ADD MLOAD SWAP2 POP DUP5 DUP6 DUP4 DUP6 MULMOD DUP3 ADDMOD SWAP1 POP DUP7 PUSH2 0x120 ADD MLOAD SWAP3 POP DUP8 PUSH2 0x2E0 ADD MLOAD SWAP2 POP DUP5 DUP6 DUP4 DUP6 MULMOD DUP3 ADDMOD SWAP1 POP DUP8 PUSH2 0x260 ADD MLOAD SWAP3 POP DUP5 DUP4 DUP3 ADDMOD SWAP1 POP DUP7 PUSH1 0xA0 ADD MLOAD SWAP3 POP DUP5 DUP4 DUP3 MULMOD SWAP1 POP DUP5 DUP2 DUP6 ADDMOD SWAP4 POP DUP4 SWAP6 POP POP POP POP POP POP SWAP3 SWAP2 POP POP JUMP JUMPDEST PUSH1 0x0 DUP1 DUP5 PUSH1 0xA0 ADD MLOAD SWAP1 POP PUSH1 0x0 DUP1 PUSH32 0x30644E72E131A029B85045B68181585D2833E84879B9709143E1F593F0000001 SWAP1 POP PUSH2 0x18D1 PUSH2 0x379B JUMP JUMPDEST PUSH1 0x0 DUP8 PUSH2 0x320 ADD MLOAD SWAP1 POP PUSH1 0x0 DUP9 PUSH2 0x300 ADD MLOAD SWAP1 POP PUSH2 0x18EE DUP2 PUSH2 0x2D36 JUMP JUMPDEST PUSH2 0x18F7 DUP3 PUSH2 0x2D36 JUMP JUMPDEST PUSH1 0x0 DUP11 PUSH1 0x40 ADD MLOAD SWAP1 POP PUSH1 0x0 DUP10 PUSH1 0x40 ADD MLOAD SWAP1 POP DUP6 DUP3 DUP3 MULMOD SWAP1 POP DUP6 DUP9 DUP3 MULMOD SWAP1 POP DUP13 DUP7 SUB SWAP13 POP PUSH1 0x40 MLOAD DUP15 MLOAD DUP2 MSTORE PUSH1 0x20 DUP16 ADD MLOAD PUSH1 0x20 DUP3 ADD MSTORE DUP4 MLOAD PUSH1 0x40 DUP3 ADD MSTORE PUSH1 0x20 DUP5 ADD MLOAD PUSH1 0x60 DUP3 ADD MSTORE DUP3 PUSH1 0x80 DUP3 ADD MSTORE PUSH1 0x40 DUP1 DUP3 ADD PUSH1 0x60 PUSH1 0x40 DUP5 ADD PUSH1 0x7 GAS STATICCALL SWAP8 POP PUSH1 0x40 DUP2 PUSH1 0x80 DUP4 PUSH1 0x6 GAS STATICCALL DUP9 AND SWAP8 POP DUP5 MLOAD PUSH1 0x40 DUP3 ADD MSTORE PUSH1 0x20 DUP6 ADD MLOAD PUSH1 0x60 DUP3 ADD MSTORE DUP2 PUSH1 0x80 DUP3 ADD MSTORE PUSH1 0x40 DUP1 DUP3 ADD PUSH1 0x60 PUSH1 0x40 DUP5 ADD PUSH1 0x7 GAS STATICCALL DUP9 AND SWAP8 POP PUSH1 0x40 DUP2 PUSH1 0x80 DUP4 PUSH1 0x6 GAS STATICCALL DUP9 AND SWAP8 POP PUSH1 0x1 PUSH1 0x40 DUP3 ADD MSTORE PUSH1 0x2 PUSH1 0x60 DUP3 ADD MSTORE DUP14 PUSH1 0x80 DUP3 ADD MSTORE PUSH1 0x40 DUP1 DUP3 ADD PUSH1 0x60 PUSH1 0x40 DUP5 ADD PUSH1 0x7 GAS STATICCALL DUP9 AND SWAP8 POP PUSH1 0x40 DUP7 PUSH1 0x80 DUP4 PUSH1 0x6 GAS STATICCALL DUP9 AND SWAP8 POP POP POP POP PUSH2 0x19D9 PUSH2 0x379B JUMP JUMPDEST PUSH1 0x40 MLOAD DUP3 MLOAD DUP2 MSTORE PUSH1 0x20 DUP4 ADD MLOAD PUSH1 0x20 DUP3 ADD MSTORE DUP4 MLOAD PUSH1 0x40 DUP3 ADD MSTORE PUSH1 0x20 DUP5 ADD MLOAD PUSH1 0x60 DUP3 ADD MSTORE DUP8 PUSH1 0x80 DUP3 ADD MSTORE PUSH1 0x40 DUP1 DUP3 ADD PUSH1 0x60 PUSH1 0x40 DUP5 ADD PUSH1 0x7 GAS STATICCALL DUP8 AND SWAP7 POP PUSH1 0x40 DUP3 PUSH1 0x80 DUP4 PUSH1 0x6 GAS STATICCALL DUP8 AND SWAP7 POP POP PUSH1 0x0 PUSH32 0x30644E72E131A029B85045B68181585D97816A916871CA8D3C208C16D87CFD47 SWAP1 POP PUSH1 0x20 DUP3 ADD MLOAD DUP2 SUB PUSH1 0x20 DUP4 ADD MSTORE DUP10 PUSH2 0x280 ADD MLOAD ISZERO PUSH2 0x1B11 JUMPI PUSH1 0x0 DUP12 PUSH2 0x340 ADD MLOAD SWAP1 POP PUSH1 0x0 DUP13 PUSH2 0x360 ADD MLOAD SWAP1 POP PUSH2 0x1A7C DUP3 PUSH2 0x2D36 JUMP JUMPDEST PUSH2 0x1A85 DUP2 PUSH2 0x2D36 JUMP JUMPDEST PUSH1 0x40 MLOAD DUP3 MLOAD DUP2 MSTORE PUSH1 0x20 DUP4 ADD MLOAD PUSH1 0x20 DUP3 ADD MSTORE DUP9 DUP12 DUP13 MULMOD PUSH1 0x40 DUP3 ADD MSTORE PUSH1 0x40 PUSH1 0x60 DUP3 ADD PUSH1 0x60 DUP4 PUSH1 0x7 GAS STATICCALL DUP11 AND SWAP10 POP DUP2 MLOAD DUP2 MSTORE PUSH1 0x20 DUP3 ADD MLOAD PUSH1 0x20 DUP3 ADD MSTORE PUSH1 0x40 DUP2 PUSH1 0x60 DUP4 PUSH1 0x7 GAS STATICCALL DUP11 AND SWAP10 POP DUP8 MLOAD PUSH1 0xA0 DUP3 ADD MSTORE PUSH1 0x20 DUP9 ADD MLOAD PUSH1 0xC0 DUP3 ADD MSTORE PUSH1 0x40 DUP9 PUSH1 0x80 PUSH1 0x60 DUP5 ADD PUSH1 0x6 GAS STATICCALL DUP11 AND SWAP10 POP DUP5 MLOAD PUSH1 0x40 DUP3 ADD MSTORE PUSH1 0x20 DUP6 ADD MLOAD PUSH1 0x60 DUP3 ADD MSTORE PUSH1 0x40 DUP6 PUSH1 0x80 DUP4 PUSH1 0x6 GAS STATICCALL DUP11 AND SWAP10 POP POP POP POP JUMPDEST DUP7 PUSH2 0x1B51 JUMPI PUSH1 0x40 MLOAD PUSH32 0x8C379A000000000000000000000000000000000000000000000000000000000 DUP2 MSTORE PUSH1 0x4 ADD PUSH2 0x1B48 SWAP1 PUSH2 0x3B91 JUMP JUMPDEST PUSH1 0x40 MLOAD DUP1 SWAP2 SUB SWAP1 REVERT JUMPDEST PUSH2 0x1B69 DUP6 PUSH2 0x1B5D PUSH2 0x2DCB JUMP JUMPDEST DUP5 DUP14 PUSH2 0x2C0 ADD MLOAD PUSH2 0x2E79 JUMP JUMPDEST SWAP9 POP POP POP POP POP POP POP POP POP SWAP6 SWAP5 POP POP POP POP POP JUMP JUMPDEST PUSH2 0x1B84 PUSH2 0x379B JUMP JUMPDEST PUSH1 0x0 DUP1 PUSH32 0x30644E72E131A029B85045B68181585D2833E84879B9709143E1F593F0000001 DUP6 MOD SWAP2 POP PUSH32 0x30644E72E131A029B85045B68181585D2833E84879B9709143E1F593F0000001 DUP5 MOD SWAP1 POP PUSH1 0x40 MLOAD DUP1 PUSH1 0x40 ADD PUSH1 0x40 MSTORE DUP1 DUP4 DUP2 MSTORE PUSH1 0x20 ADD DUP3 DUP2 MSTORE POP SWAP3 POP POP POP SWAP3 SWAP2 POP POP JUMP JUMPDEST PUSH1 0x0 DUP1 PUSH1 0x0 DUP5 PUSH1 0x80 ADD MLOAD SWAP1 POP PUSH1 0x0 DUP5 PUSH1 0x40 ADD MLOAD SWAP1 POP PUSH1 0x0 PUSH1 0x20 DUP1 DUP8 PUSH1 0x20 ADD MLOAD PUSH2 0x1C19 SWAP2 SWAP1 PUSH2 0x3985 JUMP JUMPDEST PUSH2 0x1C23 SWAP2 SWAP1 PUSH2 0x3A59 JUMP JUMPDEST SWAP1 POP PUSH1 0x0 DUP1 DUP9 PUSH1 0x60 ADD MLOAD SWAP1 POP PUSH1 0x0 DUP10 PUSH1 0x60 ADD MLOAD SWAP1 POP PUSH1 0x0 PUSH1 0x1 SWAP1 POP PUSH1 0x0 PUSH1 0x1 SWAP1 POP PUSH1 0x0 PUSH32 0x30644E72E131A029B85045B68181585D2833E84879B9709143E1F593F0000001 SWAP1 POP PUSH1 0x0 PUSH1 0x1 SWAP1 POP DUP2 PUSH1 0x5 DUP8 MULMOD SWAP6 POP DUP2 PUSH1 0x7 DUP7 MULMOD SWAP5 POP PUSH1 0x24 PUSH1 0x4 CALLDATALOAD ADD SWAP7 POP DUP7 DUP9 ADD SWAP8 POP JUMPDEST DUP8 DUP8 LT ISZERO PUSH2 0x1CEE JUMPI DUP7 CALLDATALOAD DUP11 DUP2 ADD DUP8 ADD DUP1 DUP8 ADD DUP5 DUP13 DUP11 MULMOD SWAP9 POP DUP5 DUP13 DUP10 MULMOD SWAP8 POP PUSH1 0x20 DUP11 ADD CALLDATALOAD DUP14 DUP2 ADD DUP11 ADD DUP7 DUP11 DUP3 ADD DUP9 DUP11 DUP7 MULMOD MULMOD SWAP8 POP DUP7 DUP10 DUP9 DUP7 DUP5 MULMOD MULMOD SWAP9 POP DUP7 DUP15 DUP13 MULMOD SWAP11 POP DUP7 DUP15 DUP12 MULMOD SWAP10 POP DUP7 DUP3 LT DUP8 DUP7 LT AND DUP7 AND SWAP6 POP PUSH1 0x40 DUP13 ADD SWAP12 POP POP POP POP POP POP PUSH2 0x1C8B JUMP JUMPDEST PUSH1 0x20 DUP9 ADD SWAP8 POP JUMPDEST DUP8 DUP8 LT ISZERO PUSH2 0x1D35 JUMPI DUP7 CALLDATALOAD DUP3 DUP2 LT DUP3 AND SWAP2 POP DUP3 DUP12 DUP3 ADDMOD DUP4 DUP2 DUP10 ADD DUP8 MULMOD SWAP6 POP DUP4 DUP2 DUP9 DUP11 ADD ADD DUP7 MULMOD SWAP5 POP DUP4 DUP12 DUP10 MULMOD SWAP8 POP DUP4 DUP12 DUP9 MULMOD SWAP7 POP POP POP PUSH1 0x20 DUP8 ADD SWAP7 POP PUSH2 0x1CF5 JUMP JUMPDEST DUP1 PUSH2 0x1D75 JUMPI PUSH1 0x40 MLOAD PUSH32 0x8C379A000000000000000000000000000000000000000000000000000000000 DUP2 MSTORE PUSH1 0x4 ADD PUSH2 0x1D6C SWAP1 PUSH2 0x3C23 JUMP JUMPDEST PUSH1 0x40 MLOAD DUP1 SWAP2 SUB SWAP1 REVERT JUMPDEST DUP4 DUP4 SWAP12 POP SWAP12 POP POP POP POP POP POP POP POP POP POP POP SWAP3 POP SWAP3 SWAP1 POP JUMP JUMPDEST PUSH1 0x0 DUP1 PUSH1 0x0 DUP1 PUSH1 0x0 DUP1 PUSH32 0x30644E72E131A029B85045B68181585D2833E84879B9709143E1F593F0000001 SWAP1 POP PUSH1 0x0 PUSH2 0x1DC9 DUP9 DUP11 PUSH1 0x0 ADD MLOAD DUP5 PUSH2 0x2F65 JUMP JUMPDEST SWAP1 POP DUP1 DUP10 PUSH2 0x2E0 ADD DUP2 DUP2 MSTORE POP POP DUP2 PUSH1 0x1 DUP4 SUB DUP3 ADDMOD SWAP1 POP PUSH1 0x0 DUP10 PUSH1 0x80 ADD MLOAD SWAP1 POP PUSH1 0x0 DUP11 PUSH1 0x80 ADD MLOAD SWAP1 POP PUSH1 0x0 DUP1 DUP13 PUSH1 0x60 ADD MLOAD SWAP1 POP PUSH1 0x0 DUP1 PUSH1 0x0 DUP15 SWAP1 POP DUP9 DUP7 DUP11 SUB DUP3 ADDMOD SWAP5 POP DUP9 DUP8 DUP8 MULMOD SWAP6 POP DUP9 DUP10 DUP8 DUP12 SUB DUP4 ADDMOD DUP7 MULMOD SWAP5 POP DUP9 DUP8 DUP8 MULMOD SWAP6 POP DUP9 DUP10 DUP8 DUP12 SUB DUP4 ADDMOD DUP7 MULMOD SWAP5 POP DUP9 DUP8 DUP8 MULMOD SWAP6 POP DUP9 DUP10 DUP8 DUP12 SUB DUP4 ADDMOD DUP7 MULMOD SWAP5 POP DUP16 PUSH1 0x40 ADD MLOAD SWAP6 POP PUSH1 0x0 DUP10 DUP6 DUP11 MULMOD SWAP1 POP DUP10 PUSH1 0x1 DUP12 SUB DUP4 ADDMOD SWAP4 POP DUP10 DUP8 DUP9 MULMOD SWAP8 POP DUP10 DUP9 DUP10 MULMOD SWAP8 POP DUP10 DUP8 DUP10 MULMOD SWAP8 POP DUP10 PUSH1 0x1 DUP12 SUB DUP12 DUP5 DUP12 MULMOD ADDMOD SWAP3 POP DUP9 DUP7 DUP3 DUP7 DUP7 SWAP15 POP SWAP15 POP SWAP15 POP SWAP15 POP SWAP15 POP POP POP POP POP POP POP POP POP POP POP SWAP3 SWAP6 POP SWAP3 SWAP6 SWAP1 SWAP4 POP JUMP JUMPDEST PUSH1 0x0 DUP1 PUSH1 0x0 DUP1 PUSH1 0x0 DUP1 PUSH32 0x30644E72E131A029B85045B68181585D2833E84879B9709143E1F593F0000001 SWAP1 POP PUSH1 0x0 PUSH1 0x1 SWAP1 POP PUSH1 0x40 MLOAD SWAP3 POP PUSH2 0x200 DUP4 ADD PUSH1 0x40 MSTORE DUP13 DUP4 MSTORE DUP11 PUSH1 0x20 DUP5 ADD MSTORE DUP9 PUSH1 0x40 DUP5 ADD MSTORE DUP8 PUSH1 0x60 DUP5 ADD MSTORE DUP1 PUSH1 0x80 DUP5 ADD MSTORE DUP2 DUP4 MLOAD DUP3 MULMOD SWAP1 POP DUP1 PUSH1 0xA0 DUP5 ADD MSTORE DUP2 PUSH1 0x20 DUP5 ADD MLOAD DUP3 MULMOD SWAP1 POP DUP1 PUSH1 0xC0 DUP5 ADD MSTORE DUP2 PUSH1 0x40 DUP5 ADD MLOAD DUP3 MULMOD SWAP1 POP DUP1 PUSH1 0xE0 DUP5 ADD MSTORE DUP2 PUSH1 0x60 DUP5 ADD MLOAD DUP3 MULMOD SWAP1 POP PUSH2 0x1F31 DUP2 PUSH2 0x2FB1 JUMP JUMPDEST SWAP1 POP DUP2 PUSH1 0xE0 DUP5 ADD MLOAD DUP3 MULMOD DUP3 PUSH1 0x60 DUP6 ADD MLOAD DUP4 MULMOD SWAP2 POP DUP1 PUSH1 0x60 DUP6 ADD MSTORE POP DUP2 PUSH1 0xC0 DUP5 ADD MLOAD DUP3 MULMOD DUP3 PUSH1 0x40 DUP6 ADD MLOAD DUP4 MULMOD SWAP2 POP DUP1 PUSH1 0x40 DUP6 ADD MSTORE POP DUP2 PUSH1 0xA0 DUP5 ADD MLOAD DUP3 MULMOD DUP3 PUSH1 0x20 DUP6 ADD MLOAD DUP4 MULMOD SWAP2 POP DUP1 PUSH1 0x20 DUP6 ADD MSTORE POP DUP2 PUSH1 0x80 DUP5 ADD MLOAD DUP3 MULMOD DUP3 DUP5 MLOAD DUP4 MULMOD SWAP2 POP DUP1 DUP5 MSTORE POP DUP2 DUP4 MLOAD DUP16 MULMOD SWAP6 POP DUP2 PUSH1 0x20 DUP5 ADD MLOAD DUP14 MULMOD SWAP7 POP DUP2 PUSH1 0x40 DUP5 ADD MLOAD DUP12 MULMOD SWAP5 POP DUP2 PUSH1 0x60 DUP5 ADD MLOAD DUP12 MULMOD SWAP4 POP POP POP POP SWAP8 POP SWAP8 POP SWAP8 POP SWAP8 SWAP4 POP POP POP POP JUMP JUMPDEST PUSH1 0x0 DUP1 PUSH2 0x1FD7 DUP8 DUP8 DUP8 DUP8 DUP8 PUSH2 0x3061 JUMP JUMPDEST SWAP1 POP PUSH1 0x0 PUSH2 0x1FE5 DUP8 DUP6 PUSH2 0x31A5 JUMP JUMPDEST SWAP1 POP PUSH1 0x0 PUSH2 0x1FF3 DUP9 DUP7 PUSH2 0x3264 JUMP JUMPDEST SWAP1 POP PUSH1 0x0 DUP1 PUSH32 0x30644E72E131A029B85045B68181585D2833E84879B9709143E1F593F0000001 SWAP1 POP DUP1 DUP2 DUP5 DUP7 ADDMOD DUP7 ADDMOD SWAP2 POP DUP2 SWAP6 POP POP POP POP POP POP SWAP7 SWAP6 POP POP POP POP POP POP JUMP JUMPDEST PUSH2 0x203E PUSH2 0x379B JUMP JUMPDEST PUSH1 0x0 DUP4 PUSH1 0x60 ADD MLOAD SWAP1 POP PUSH1 0x0 DUP5 PUSH1 0x40 ADD MLOAD SWAP1 POP PUSH1 0x0 DUP6 PUSH1 0x80 ADD MLOAD SWAP1 POP PUSH1 0x0 PUSH32 0x30644E72E131A029B85045B68181585D2833E84879B9709143E1F593F0000001 SWAP1 POP PUSH1 0x0 DUP1 PUSH1 0x0 DUP12 PUSH2 0x120 ADD MLOAD SWAP1 POP PUSH1 0x0 DUP13 PUSH2 0x1A0 ADD MLOAD SWAP1 POP DUP5 DUP7 DUP4 ADDMOD DUP6 DUP2 DUP8 DUP11 DUP13 MULMOD ADDMOD SWAP5 POP DUP6 DUP2 DUP8 DUP12 DUP6 MULMOD ADDMOD SWAP4 POP POP POP POP PUSH1 0x0 DUP12 PUSH2 0x140 ADD MLOAD SWAP1 POP PUSH1 0x0 DUP13 PUSH2 0x1C0 ADD MLOAD SWAP1 POP DUP5 DUP7 DUP4 ADDMOD DUP6 DUP7 DUP3 DUP9 DUP13 DUP11 PUSH1 0x5 DUP15 MULMOD MULMOD ADDMOD DUP7 MULMOD SWAP5 POP DUP6 DUP7 DUP3 DUP9 DUP13 DUP7 MULMOD ADDMOD DUP6 MULMOD SWAP4 POP POP POP POP PUSH1 0x0 DUP12 PUSH2 0x160 ADD MLOAD SWAP1 POP PUSH1 0x0 DUP13 PUSH2 0x1E0 ADD MLOAD SWAP1 POP DUP5 DUP7 DUP4 ADDMOD DUP6 DUP7 DUP3 DUP9 DUP13 DUP11 PUSH1 0x6 DUP15 MULMOD MULMOD ADDMOD DUP7 MULMOD SWAP5 POP DUP6 DUP7 DUP3 DUP9 DUP13 DUP7 MULMOD ADDMOD DUP6 MULMOD SWAP4 POP POP POP POP PUSH1 0x0 DUP12 PUSH2 0x180 ADD MLOAD SWAP1 POP DUP4 DUP5 DUP3 DUP7 DUP9 DUP9 DUP13 DUP11 PUSH1 0x7 DUP15 MULMOD MULMOD ADDMOD ADDMOD DUP5 MULMOD SWAP3 POP POP PUSH1 0x0 DUP10 PUSH1 0x0 ADD MLOAD SWAP1 POP PUSH1 0x0 DUP11 PUSH1 0x20 ADD MLOAD SWAP1 POP PUSH1 0x0 DUP12 PUSH1 0xA0 ADD MLOAD SWAP1 POP PUSH1 0x0 DUP15 PUSH2 0x260 ADD MLOAD SWAP1 POP PUSH1 0x0 DUP13 SWAP1 POP DUP8 DUP6 DUP9 MULMOD SWAP7 POP DUP8 DUP12 DUP10 DUP8 DUP12 DUP7 DUP12 MULMOD MULMOD DUP11 SUB MULMOD SWAP6 POP DUP8 DUP5 DUP10 DUP7 DUP9 MULMOD MULMOD SWAP5 POP DUP8 DUP4 DUP10 DUP11 DUP9 DUP6 MULMOD DUP11 ADDMOD ADDMOD SWAP7 POP DUP8 DUP5 DUP7 MULMOD SWAP5 POP DUP5 DUP15 PUSH1 0x0 ADD DUP2 DUP2 MSTORE POP POP POP POP POP POP POP PUSH1 0x0 DUP12 PUSH1 0x80 ADD MLOAD SWAP1 POP PUSH1 0x0 DUP12 PUSH2 0x260 ADD MLOAD SWAP1 POP PUSH2 0x21BD PUSH2 0x379B JUMP JUMPDEST PUSH2 0x21C6 DUP4 PUSH2 0x2D36 JUMP JUMPDEST PUSH2 0x21CF DUP3 PUSH2 0x2D36 JUMP JUMPDEST PUSH1 0x0 PUSH1 0x40 MLOAD DUP5 MLOAD DUP2 MSTORE PUSH1 0x20 DUP6 ADD MLOAD PUSH1 0x20 DUP3 ADD MSTORE DUP7 PUSH1 0x40 DUP3 ADD MSTORE PUSH1 0x40 DUP2 PUSH1 0x60 DUP4 PUSH1 0x7 GAS STATICCALL SWAP2 POP DUP4 MLOAD PUSH1 0x40 DUP3 ADD MSTORE PUSH1 0x20 DUP5 ADD MLOAD PUSH1 0x60 DUP3 ADD MSTORE DUP6 PUSH1 0x80 DUP3 ADD MSTORE PUSH1 0x40 DUP1 DUP3 ADD PUSH1 0x60 PUSH1 0x40 DUP5 ADD PUSH1 0x7 GAS STATICCALL DUP3 AND SWAP2 POP PUSH1 0x40 DUP4 PUSH1 0x80 DUP4 PUSH1 0x6 GAS STATICCALL DUP3 AND SWAP2 POP POP DUP1 PUSH2 0x226D JUMPI PUSH1 0x40 MLOAD PUSH32 0x8C379A000000000000000000000000000000000000000000000000000000000 DUP2 MSTORE PUSH1 0x4 ADD PUSH2 0x2264 SWAP1 PUSH2 0x3CB5 JUMP JUMPDEST PUSH1 0x40 MLOAD DUP1 SWAP2 SUB SWAP1 REVERT JUMPDEST DUP2 SWAP11 POP POP POP POP POP POP POP POP POP POP POP SWAP5 SWAP4 POP POP POP POP JUMP JUMPDEST PUSH2 0x228A PUSH2 0x379B JUMP JUMPDEST PUSH1 0x0 DUP5 PUSH2 0x200 ADD MLOAD SWAP1 POP PUSH1 0x0 DUP6 PUSH2 0x220 ADD MLOAD SWAP1 POP PUSH1 0x0 DUP5 PUSH1 0x0 ADD MLOAD SWAP1 POP PUSH1 0x0 DUP6 PUSH1 0x0 ADD MLOAD SWAP1 POP PUSH1 0x0 DUP7 PUSH1 0x20 ADD MLOAD SWAP1 POP PUSH1 0x0 PUSH32 0x30644E72E131A029B85045B68181585D2833E84879B9709143E1F593F0000001 SWAP1 POP PUSH1 0x0 DUP1 PUSH1 0x40 MLOAD SWAP1 POP PUSH1 0xA0 DUP2 ADD PUSH1 0x40 MSTORE PUSH1 0x0 DUP1 DUP14 PUSH2 0x180 ADD MLOAD SWAP1 POP PUSH1 0x0 DUP15 PUSH2 0x2E0 ADD MLOAD SWAP1 POP DUP6 DUP7 PUSH1 0x4 DUP5 MULMOD DUP8 SUB DUP3 ADDMOD SWAP3 POP POP POP PUSH1 0x0 DUP14 PUSH2 0x120 ADD MLOAD SWAP1 POP DUP1 SWAP4 POP DUP5 DUP9 DUP6 MULMOD SWAP4 POP DUP5 DUP11 DUP6 MULMOD SWAP4 POP DUP5 DUP7 DUP9 MULMOD SWAP7 POP DUP5 DUP7 DUP9 MULMOD SWAP7 POP DUP5 DUP7 DUP9 MULMOD SWAP7 POP DUP5 DUP3 DUP4 MULMOD DUP6 DUP11 DUP3 MULMOD SWAP1 POP DUP6 DUP9 DUP3 MULMOD SWAP1 POP DUP6 DUP2 DUP7 ADDMOD SWAP5 POP POP PUSH1 0x0 DUP14 PUSH1 0xA0 ADD MLOAD SWAP1 POP PUSH2 0x2364 DUP2 PUSH2 0x2D36 JUMP JUMPDEST PUSH1 0x0 PUSH1 0x40 MLOAD DUP3 MLOAD DUP2 MSTORE PUSH1 0x20 DUP4 ADD MLOAD PUSH1 0x20 DUP3 ADD MSTORE DUP7 PUSH1 0x40 DUP3 ADD MSTORE PUSH1 0x40 DUP7 PUSH1 0x60 DUP4 PUSH1 0x7 GAS STATICCALL SWAP2 POP POP DUP1 PUSH2 0x23CA JUMPI PUSH1 0x40 MLOAD PUSH32 0x8C379A000000000000000000000000000000000000000000000000000000000 DUP2 MSTORE PUSH1 0x4 ADD PUSH2 0x23C1 SWAP1 PUSH2 0x3D21 JUMP JUMPDEST PUSH1 0x40 MLOAD DUP1 SWAP2 SUB SWAP1 REVERT JUMPDEST POP POP POP PUSH1 0x0 DUP14 PUSH2 0x140 ADD MLOAD SWAP1 POP DUP1 SWAP4 POP DUP5 DUP9 DUP6 MULMOD SWAP4 POP DUP5 DUP11 DUP6 MULMOD SWAP4 POP DUP5 DUP10 DUP9 MULMOD DUP6 DUP2 DUP7 ADDMOD SWAP5 POP POP PUSH1 0x0 DUP14 PUSH1 0xC0 ADD MLOAD SWAP1 POP PUSH2 0x2403 DUP2 PUSH2 0x2D36 JUMP JUMPDEST PUSH1 0x0 PUSH1 0x40 MLOAD DUP3 MLOAD DUP2 MSTORE PUSH1 0x20 DUP4 ADD MLOAD PUSH1 0x20 DUP3 ADD MSTORE DUP7 PUSH1 0x40 DUP3 ADD MSTORE PUSH1 0x40 DUP1 DUP8 ADD PUSH1 0x60 DUP4 PUSH1 0x7 GAS STATICCALL SWAP2 POP PUSH1 0x40 DUP7 PUSH1 0x80 DUP9 PUSH1 0x6 GAS STATICCALL DUP3 AND SWAP2 POP POP DUP1 PUSH2 0x2479 JUMPI PUSH1 0x40 MLOAD PUSH32 0x8C379A000000000000000000000000000000000000000000000000000000000 DUP2 MSTORE PUSH1 0x4 ADD PUSH2 0x2470 SWAP1 PUSH2 0x3D21 JUMP JUMPDEST PUSH1 0x40 MLOAD DUP1 SWAP2 SUB SWAP1 REVERT JUMPDEST POP POP POP PUSH1 0x0 DUP14 PUSH2 0x160 ADD MLOAD SWAP1 POP DUP1 SWAP4 POP DUP5 DUP9 DUP6 MULMOD SWAP4 POP DUP5 DUP11 DUP6 MULMOD SWAP4 POP POP PUSH1 0x0 DUP1 DUP15 PUSH2 0x2C0 ADD MLOAD SWAP1 POP DUP6 DUP2 DUP5 MULMOD SWAP2 POP POP PUSH1 0x0 DUP15 PUSH2 0x140 ADD MLOAD SWAP1 POP DUP6 DUP8 DUP10 MULMOD SWAP8 POP DUP6 DUP2 DUP4 MULMOD SWAP2 POP DUP6 DUP9 DUP4 MULMOD SWAP2 POP DUP6 DUP3 DUP4 ADDMOD SWAP2 POP DUP6 DUP11 DUP4 MULMOD SWAP2 POP DUP6 DUP3 DUP7 ADDMOD SWAP5 POP POP POP PUSH1 0x0 DUP14 PUSH2 0x280 ADD MLOAD SWAP1 POP PUSH1 0x0 DUP15 PUSH2 0x120 ADD MLOAD SWAP1 POP DUP6 DUP8 DUP10 MULMOD SWAP8 POP DUP6 DUP2 DUP8 SUB DUP4 ADDMOD SWAP2 POP DUP6 DUP4 DUP4 MULMOD SWAP2 POP POP PUSH1 0x0 DUP15 PUSH2 0x2C0 ADD MLOAD SWAP1 POP DUP6 DUP2 DUP4 MULMOD SWAP2 POP DUP6 DUP9 DUP4 MULMOD SWAP2 POP DUP6 DUP11 DUP4 MULMOD SWAP2 POP DUP6 DUP3 DUP7 ADDMOD SWAP5 POP POP POP PUSH1 0x0 DUP13 PUSH1 0xE0 ADD MLOAD SWAP1 POP PUSH2 0x2537 DUP2 PUSH2 0x2D36 JUMP JUMPDEST PUSH1 0x0 PUSH1 0x40 MLOAD DUP3 MLOAD DUP2 MSTORE PUSH1 0x20 DUP4 ADD MLOAD PUSH1 0x20 DUP3 ADD MSTORE DUP6 PUSH1 0x40 DUP3 ADD MSTORE PUSH1 0x40 DUP1 DUP7 ADD PUSH1 0x60 DUP4 PUSH1 0x7 GAS STATICCALL SWAP2 POP PUSH1 0x40 DUP6 PUSH1 0x80 DUP8 PUSH1 0x6 GAS STATICCALL DUP3 AND SWAP2 POP POP DUP1 PUSH2 0x25AD JUMPI PUSH1 0x40 MLOAD PUSH32 0x8C379A000000000000000000000000000000000000000000000000000000000 DUP2 MSTORE PUSH1 0x4 ADD PUSH2 0x25A4 SWAP1 PUSH2 0x3D21 JUMP JUMPDEST PUSH1 0x40 MLOAD DUP1 SWAP2 SUB SWAP1 REVERT JUMPDEST POP POP POP PUSH1 0x0 DUP13 PUSH2 0x160 ADD MLOAD SWAP1 POP PUSH1 0x0 DUP14 PUSH2 0x180 ADD MLOAD SWAP1 POP PUSH1 0x0 DUP15 PUSH2 0x240 ADD MLOAD SWAP1 POP DUP2 SWAP5 POP DUP6 DUP10 DUP7 MULMOD SWAP5 POP DUP6 DUP12 DUP7 MULMOD SWAP5 POP DUP6 DUP7 DUP9 DUP10 MULMOD DUP10 MULMOD SWAP8 POP DUP6 DUP11 DUP5 MULMOD DUP7 DUP3 DUP3 MULMOD SWAP1 POP DUP7 DUP10 DUP3 MULMOD SWAP1 POP DUP7 DUP2 DUP8 ADDMOD SWAP6 POP POP PUSH1 0x0 DUP15 PUSH2 0x100 ADD MLOAD SWAP1 POP PUSH2 0x2610 DUP2 PUSH2 0x2D36 JUMP JUMPDEST PUSH1 0x0 PUSH1 0x40 MLOAD DUP3 MLOAD DUP2 MSTORE PUSH1 0x20 DUP4 ADD MLOAD PUSH1 0x20 DUP3 ADD MSTORE DUP8 PUSH1 0x40 DUP3 ADD MSTORE PUSH1 0x40 DUP1 DUP9 ADD PUSH1 0x60 DUP4 PUSH1 0x7 GAS STATICCALL SWAP2 POP PUSH1 0x40 DUP8 PUSH1 0x80 DUP10 PUSH1 0x6 GAS STATICCALL DUP3 AND SWAP2 POP POP DUP1 PUSH2 0x2686 JUMPI PUSH1 0x40 MLOAD PUSH32 0x8C379A000000000000000000000000000000000000000000000000000000000 DUP2 MSTORE PUSH1 0x4 ADD PUSH2 0x267D SWAP1 PUSH2 0x3D21 JUMP JUMPDEST PUSH1 0x40 MLOAD DUP1 SWAP2 SUB SWAP1 REVERT JUMPDEST POP POP POP POP POP PUSH1 0x0 DUP13 PUSH2 0x180 ADD MLOAD SWAP1 POP PUSH1 0x0 DUP14 PUSH2 0x240 ADD MLOAD SWAP1 POP DUP2 DUP6 SUB DUP6 DUP4 DUP5 MULMOD SWAP5 POP DUP6 DUP2 DUP7 ADDMOD SWAP5 POP DUP6 DUP7 PUSH1 0x2 DUP9 SUB DUP6 ADDMOD DUP7 MULMOD SWAP5 POP DUP6 DUP10 DUP7 MULMOD SWAP5 POP DUP6 DUP8 DUP7 MULMOD SWAP5 POP DUP6 DUP12 DUP7 MULMOD SWAP5 POP DUP6 DUP2 PUSH1 0x1 ADDMOD DUP7 DUP12 DUP3 MULMOD SWAP1 POP DUP7 DUP4 DUP3 MULMOD SWAP1 POP DUP7 DUP10 DUP3 MULMOD SWAP1 POP DUP7 DUP2 DUP8 ADDMOD SWAP6 POP POP POP PUSH1 0x0 DUP14 PUSH2 0x120 ADD MLOAD SWAP1 POP PUSH2 0x26FE DUP2 PUSH2 0x2D36 JUMP JUMPDEST PUSH1 0x0 PUSH1 0x40 MLOAD DUP3 MLOAD DUP2 MSTORE PUSH1 0x20 DUP4 ADD MLOAD PUSH1 0x20 DUP3 ADD MSTORE DUP7 PUSH1 0x40 DUP3 ADD MSTORE PUSH1 0x40 DUP1 DUP8 ADD PUSH1 0x60 DUP4 PUSH1 0x7 GAS STATICCALL SWAP2 POP PUSH1 0x40 DUP7 PUSH1 0x80 DUP9 PUSH1 0x6 GAS STATICCALL DUP3 AND SWAP2 POP POP DUP1 PUSH2 0x2774 JUMPI PUSH1 0x40 MLOAD PUSH32 0x8C379A000000000000000000000000000000000000000000000000000000000 DUP2 MSTORE PUSH1 0x4 ADD PUSH2 0x276B SWAP1 PUSH2 0x3D21 JUMP JUMPDEST PUSH1 0x40 MLOAD DUP1 SWAP2 SUB SWAP1 REVERT JUMPDEST POP POP POP POP PUSH1 0x0 DUP13 PUSH2 0x120 ADD MLOAD SWAP1 POP PUSH1 0x0 DUP14 PUSH2 0x140 ADD MLOAD SWAP1 POP DUP5 DUP2 DUP4 MULMOD SWAP4 POP DUP5 DUP9 DUP6 MULMOD SWAP4 POP DUP5 DUP11 DUP6 MULMOD SWAP4 POP POP POP PUSH1 0x0 DUP13 PUSH2 0x160 ADD MLOAD SWAP1 POP PUSH1 0x0 DUP14 PUSH2 0x240 ADD MLOAD SWAP1 POP DUP5 DUP7 DUP9 MULMOD SWAP7 POP DUP5 DUP10 DUP4 MULMOD DUP6 DUP3 DUP3 MULMOD SWAP1 POP DUP6 DUP9 DUP3 MULMOD SWAP1 POP DUP6 DUP2 DUP7 ADDMOD SWAP5 POP POP PUSH1 0x0 DUP14 PUSH2 0x140 ADD MLOAD SWAP1 POP PUSH2 0x27E4 DUP2 PUSH2 0x2D36 JUMP JUMPDEST PUSH1 0x0 PUSH1 0x40 MLOAD DUP3 MLOAD DUP2 MSTORE PUSH1 0x20 DUP4 ADD MLOAD PUSH1 0x20 DUP3 ADD MSTORE DUP7 PUSH1 0x40 DUP3 ADD MSTORE PUSH1 0x40 DUP1 DUP8 ADD PUSH1 0x60 DUP4 PUSH1 0x7 GAS STATICCALL SWAP2 POP PUSH1 0x40 DUP7 PUSH1 0x80 DUP9 PUSH1 0x6 GAS STATICCALL DUP3 AND SWAP2 POP POP DUP1 PUSH2 0x285A JUMPI PUSH1 0x40 MLOAD PUSH32 0x8C379A000000000000000000000000000000000000000000000000000000000 DUP2 MSTORE PUSH1 0x4 ADD PUSH2 0x2851 SWAP1 PUSH2 0x3D21 JUMP JUMPDEST PUSH1 0x40 MLOAD DUP1 SWAP2 SUB SWAP1 REVERT JUMPDEST POP POP POP POP PUSH2 0x2866 PUSH2 0x379B JUMP JUMPDEST PUSH1 0x0 DUP12 PUSH2 0x1E0 ADD MLOAD SWAP1 POP DUP8 SWAP4 POP DUP5 DUP11 DUP6 MULMOD SWAP4 POP DUP5 DUP2 DUP6 ADDMOD SWAP4 POP DUP5 DUP7 DUP9 MULMOD SWAP8 POP PUSH1 0x0 DUP14 PUSH2 0x160 ADD MLOAD SWAP1 POP PUSH2 0x2898 DUP2 PUSH2 0x2D36 JUMP JUMPDEST PUSH1 0x0 PUSH1 0x40 MLOAD DUP3 MLOAD DUP2 MSTORE PUSH1 0x20 DUP4 ADD MLOAD PUSH1 0x20 DUP3 ADD MSTORE DUP7 PUSH1 0x40 DUP3 ADD MSTORE PUSH1 0x40 DUP1 DUP8 ADD PUSH1 0x60 DUP4 PUSH1 0x7 GAS STATICCALL SWAP2 POP PUSH1 0x40 DUP6 PUSH1 0x80 DUP9 PUSH1 0x6 GAS STATICCALL DUP3 AND SWAP2 POP POP DUP1 PUSH2 0x290E JUMPI PUSH1 0x40 MLOAD PUSH32 0x8C379A000000000000000000000000000000000000000000000000000000000 DUP2 MSTORE PUSH1 0x4 ADD PUSH2 0x2905 SWAP1 PUSH2 0x3D21 JUMP JUMPDEST PUSH1 0x40 MLOAD DUP1 SWAP2 SUB SWAP1 REVERT JUMPDEST POP POP POP DUP7 DUP12 PUSH1 0x0 ADD DUP2 DUP2 MSTORE POP POP DUP1 SWAP10 POP POP POP POP POP POP POP POP POP POP SWAP4 SWAP3 POP POP POP JUMP JUMPDEST PUSH1 0x0 DUP1 DUP4 PUSH2 0x120 ADD MLOAD SWAP1 POP PUSH1 0x0 DUP5 PUSH2 0x140 ADD MLOAD SWAP1 POP PUSH1 0x0 DUP6 PUSH2 0x160 ADD MLOAD SWAP1 POP PUSH1 0x0 DUP7 PUSH2 0x180 ADD MLOAD SWAP1 POP PUSH1 0x0 DUP8 PUSH2 0x2E0 ADD MLOAD SWAP1 POP PUSH1 0x0 DUP8 PUSH1 0x20 ADD MLOAD SWAP1 POP PUSH1 0x0 DUP9 PUSH1 0x0 ADD MLOAD SWAP1 POP PUSH1 0x0 DUP1 PUSH32 0x30644E72E131A029B85045B68181585D2833E84879B9709143E1F593F0000001 SWAP1 POP DUP1 DUP2 PUSH1 0x4 DUP9 MULMOD DUP3 SUB DUP9 ADDMOD DUP2 DUP3 PUSH1 0x4 DUP11 MULMOD DUP4 SUB DUP11 ADDMOD DUP3 DUP4 PUSH1 0x4 DUP13 MULMOD DUP5 SUB DUP13 ADDMOD DUP4 DUP5 PUSH1 0x4 DUP15 MULMOD DUP6 SUB DUP10 ADDMOD DUP5 DUP5 DUP6 MULMOD DUP6 DUP6 DUP8 SUB DUP3 ADDMOD SWAP1 POP DUP6 PUSH1 0x2 DUP8 SUB DUP7 ADDMOD DUP7 DUP2 DUP4 MULMOD SWAP2 POP DUP7 PUSH1 0x3 DUP9 SUB DUP8 ADDMOD SWAP1 POP DUP7 DUP2 DUP4 MULMOD SWAP2 POP DUP7 DUP10 DUP4 MULMOD SWAP2 POP DUP2 SWAP8 POP DUP7 DUP11 DUP11 MULMOD SWAP9 POP DUP7 DUP6 DUP7 MULMOD SWAP2 POP DUP7 DUP6 DUP9 SUB DUP4 ADDMOD SWAP2 POP DUP7 PUSH1 0x2 DUP9 SUB DUP7 ADDMOD SWAP1 POP DUP7 DUP2 DUP4 MULMOD SWAP2 POP DUP7 PUSH1 0x3 DUP9 SUB DUP7 ADDMOD SWAP1 POP DUP7 DUP2 DUP4 MULMOD SWAP2 POP DUP7 DUP10 DUP4 MULMOD SWAP2 POP DUP7 DUP3 DUP10 ADDMOD SWAP8 POP DUP7 DUP11 DUP11 MULMOD SWAP9 POP DUP7 DUP5 DUP6 MULMOD SWAP2 POP DUP7 DUP5 DUP9 SUB DUP4 ADDMOD SWAP2 POP DUP7 PUSH1 0x2 DUP9 SUB DUP6 ADDMOD SWAP1 POP DUP7 DUP2 DUP4 MULMOD SWAP2 POP DUP7 PUSH1 0x3 DUP9 SUB DUP6 ADDMOD SWAP1 POP DUP7 DUP2 DUP4 MULMOD SWAP2 POP DUP7 DUP10 DUP4 MULMOD SWAP2 POP DUP7 DUP3 DUP10 ADDMOD SWAP8 POP DUP7 DUP11 DUP11 MULMOD SWAP9 POP DUP7 DUP4 DUP5 MULMOD SWAP2 POP DUP7 DUP4 DUP9 SUB DUP4 ADDMOD SWAP2 POP DUP7 PUSH1 0x2 DUP9 SUB DUP5 ADDMOD SWAP1 POP DUP7 DUP2 DUP4 MULMOD SWAP2 POP DUP7 PUSH1 0x3 DUP9 SUB DUP5 ADDMOD SWAP1 POP DUP7 DUP2 DUP4 MULMOD SWAP2 POP DUP7 DUP10 DUP4 MULMOD SWAP2 POP DUP7 DUP3 DUP10 ADDMOD SWAP8 POP DUP7 DUP11 DUP11 MULMOD SWAP9 POP POP POP POP POP POP POP DUP3 DUP12 PUSH1 0x0 ADD DUP2 DUP2 MSTORE POP POP DUP2 SWAP10 POP POP POP POP POP POP POP POP POP POP SWAP3 SWAP2 POP POP JUMP JUMPDEST PUSH1 0x0 DUP1 PUSH1 0x0 SWAP1 POP PUSH1 0x0 PUSH32 0x30644E72E131A029B85045B68181585D2833E84879B9709143E1F593F0000001 SWAP1 POP PUSH1 0x0 DUP1 PUSH1 0x0 DUP1 PUSH1 0x0 DUP1 PUSH1 0x0 DUP12 PUSH2 0x280 ADD MLOAD SWAP1 POP PUSH1 0x0 DUP13 PUSH2 0x120 ADD MLOAD SWAP1 POP DUP9 DUP10 PUSH1 0x4 DUP4 MULMOD DUP11 SUB DUP4 ADDMOD SWAP6 POP POP POP PUSH1 0x0 DUP12 PUSH2 0x2A0 ADD MLOAD SWAP1 POP PUSH1 0x0 DUP13 PUSH2 0x140 ADD MLOAD SWAP1 POP DUP9 DUP10 PUSH1 0x4 DUP4 MULMOD DUP11 SUB DUP4 ADDMOD SWAP5 POP DUP9 DUP6 DUP8 ADDMOD SWAP8 POP DUP9 DUP7 DUP8 MULMOD SWAP4 POP DUP9 DUP6 DUP7 MULMOD SWAP3 POP DUP9 DUP4 DUP6 ADDMOD SWAP7 POP DUP9 DUP9 DUP10 MULMOD SWAP10 POP DUP9 DUP8 DUP11 SUB DUP12 ADDMOD SWAP10 POP POP POP PUSH1 0x0 DUP1 DUP12 PUSH1 0x20 ADD MLOAD SWAP1 POP PUSH1 0x0 DUP14 PUSH2 0x160 ADD MLOAD SWAP1 POP DUP10 PUSH1 0x2 DUP3 MULMOD SWAP3 POP DUP10 DUP4 DUP12 SUB DUP13 ADDMOD SWAP11 POP DUP10 DUP3 DUP13 MULMOD SWAP11 POP POP DUP9 DUP3 DUP4 ADDMOD SWAP2 POP DUP9 DUP7 DUP11 SUB DUP6 ADDMOD SWAP4 POP DUP9 PUSH1 0x4 DUP8 MULMOD SWAP6 POP DUP9 DUP7 DUP11 SUB DUP6 ADDMOD SWAP6 POP DUP9 PUSH1 0x6 DUP8 ADDMOD SWAP6 POP DUP9 DUP5 DUP8 MULMOD SWAP6 POP DUP9 DUP7 DUP12 ADDMOD SWAP10 POP DUP9 DUP2 DUP12 MULMOD SWAP10 POP DUP9 DUP6 DUP11 SUB DUP5 ADDMOD SWAP3 POP DUP9 PUSH1 0x4 DUP7 MULMOD SWAP5 POP DUP9 DUP6 DUP11 SUB DUP5 ADDMOD SWAP5 POP DUP9 PUSH1 0x6 DUP7 ADDMOD SWAP5 POP DUP9 DUP4 DUP7 MULMOD SWAP5 POP DUP9 DUP6 DUP12 ADDMOD SWAP10 POP DUP9 DUP2 DUP12 MULMOD SWAP10 POP DUP9 PUSH1 0x3 DUP10 MULMOD SWAP6 POP DUP9 PUSH1 0x3 DUP8 MULMOD SWAP5 POP DUP9 DUP6 DUP7 ADDMOD SWAP8 POP DUP9 PUSH1 0x4 DUP10 MULMOD SWAP4 POP DUP9 DUP5 DUP7 ADDMOD SWAP5 POP DUP9 PUSH1 0x3 DUP9 MULMOD SWAP4 POP DUP9 PUSH1 0x6 DUP6 MULMOD SWAP7 POP DUP9 DUP9 DUP11 SUB DUP4 ADDMOD SWAP8 POP DUP9 PUSH1 0x51 DUP10 ADDMOD SWAP8 POP DUP9 DUP6 DUP11 SUB DUP9 ADDMOD SWAP5 POP DUP9 PUSH1 0x53 DUP7 ADDMOD SWAP5 POP PUSH1 0x0 DUP14 PUSH2 0x160 ADD MLOAD SWAP1 POP DUP10 DUP2 DUP11 MULMOD SWAP9 POP DUP10 DUP7 DUP11 ADDMOD SWAP9 POP DUP10 DUP2 DUP11 MULMOD SWAP9 POP POP PUSH1 0x0 DUP14 PUSH2 0x180 ADD MLOAD SWAP1 POP DUP10 PUSH1 0x4 DUP3 MULMOD SWAP5 POP POP PUSH1 0x0 DUP14 PUSH2 0x2E0 ADD MLOAD SWAP1 POP DUP10 DUP6 DUP12 SUB DUP3 ADDMOD SWAP5 POP POP PUSH1 0x0 DUP14 PUSH2 0x240 ADD MLOAD SWAP1 POP DUP10 DUP6 DUP7 ADDMOD SWAP4 POP DUP10 DUP5 DUP7 ADDMOD SWAP5 POP DUP10 DUP6 DUP7 ADDMOD SWAP4 POP DUP10 DUP6 DUP6 ADDMOD SWAP4 POP DUP10 DUP8 DUP12 SUB DUP6 ADDMOD SWAP4 POP DUP10 DUP2 DUP6 MULMOD SWAP4 POP DUP10 DUP8 DUP7 ADDMOD SWAP5 POP DUP10 DUP10 DUP11 ADDMOD SWAP9 POP DUP10 DUP10 DUP12 SUB DUP7 ADDMOD SWAP5 POP DUP10 DUP5 DUP7 ADDMOD SWAP5 POP DUP10 DUP6 DUP13 ADDMOD SWAP11 POP POP PUSH1 0x0 DUP13 PUSH1 0x0 ADD MLOAD SWAP1 POP DUP10 DUP2 DUP13 MULMOD SWAP11 POP POP POP POP POP POP POP POP POP POP PUSH1 0x0 DUP5 PUSH1 0x0 ADD MLOAD SWAP1 POP PUSH1 0x0 DUP6 PUSH1 0x20 ADD MLOAD SWAP1 POP DUP3 DUP2 DUP3 MULMOD SWAP1 POP DUP3 DUP2 DUP3 MULMOD SWAP1 POP DUP3 DUP2 DUP4 MULMOD SWAP2 POP DUP2 DUP7 PUSH1 0x0 ADD DUP2 DUP2 MSTORE POP POP DUP4 SWAP5 POP POP POP POP POP SWAP3 SWAP2 POP POP JUMP JUMPDEST PUSH1 0x0 DUP1 PUSH32 0x30644E72E131A029B85045B68181585D97816A916871CA8D3C208C16D87CFD47 SWAP1 POP DUP3 MLOAD PUSH1 0x20 DUP5 ADD MLOAD DUP3 PUSH1 0x3 DUP5 DUP6 DUP6 DUP7 MULMOD DUP6 MULMOD ADDMOD DUP4 DUP3 DUP4 MULMOD EQ DUP2 ISZERO DUP4 ISZERO OR NOT DUP5 DUP4 LT DUP6 DUP6 LT AND AND AND SWAP4 POP POP POP DUP2 PUSH2 0x2DC6 JUMPI PUSH1 0x40 MLOAD PUSH32 0x8C379A000000000000000000000000000000000000000000000000000000000 DUP2 MSTORE PUSH1 0x4 ADD PUSH2 0x2DBD SWAP1 PUSH2 0x3DB3 JUMP JUMPDEST PUSH1 0x40 MLOAD DUP1 SWAP2 SUB SWAP1 REVERT JUMPDEST POP POP POP JUMP JUMPDEST PUSH2 0x2DD3 PUSH2 0x37B5 JUMP JUMPDEST PUSH1 0x40 MLOAD DUP1 PUSH1 0x80 ADD PUSH1 0x40 MSTORE DUP1 PUSH32 0x198E9393920D483A7260BFB731FB5D25F1AA493335A9E71297E485B7AEF312C2 DUP2 MSTORE PUSH1 0x20 ADD PUSH32 0x1800DEEF121F1E76426A00665E5C4479674322D4F75EDADD46DEBD5CD992F6ED DUP2 MSTORE PUSH1 0x20 ADD PUSH32 0x90689D0585FF075EC9E99AD690C3395BC4B313370B38EF355ACDADCD122975B DUP2 MSTORE PUSH1 0x20 ADD PUSH32 0x12C85EA5DB8C6DEB4AAB71808DCB408FE3D1E7690C43D37B4CE6CC0166FA7DAA DUP2 MSTORE POP SWAP1 POP SWAP1 JUMP JUMPDEST PUSH1 0x0 PUSH2 0x2E84 DUP6 PUSH2 0x2D36 JUMP JUMPDEST PUSH2 0x2E8D DUP4 PUSH2 0x2D36 JUMP JUMPDEST PUSH1 0x0 DUP1 PUSH1 0x40 MLOAD DUP8 MLOAD DUP2 MSTORE PUSH1 0x20 DUP9 ADD MLOAD PUSH1 0x20 DUP3 ADD MSTORE DUP7 MLOAD PUSH1 0x40 DUP3 ADD MSTORE PUSH1 0x20 DUP8 ADD MLOAD PUSH1 0x60 DUP3 ADD MSTORE PUSH1 0x40 DUP8 ADD MLOAD PUSH1 0x80 DUP3 ADD MSTORE PUSH1 0x60 DUP8 ADD MLOAD PUSH1 0xA0 DUP3 ADD MSTORE DUP6 MLOAD PUSH1 0xC0 DUP3 ADD MSTORE PUSH1 0x20 DUP7 ADD MLOAD PUSH1 0xE0 DUP3 ADD MSTORE DUP5 MLOAD PUSH2 0x100 DUP3 ADD MSTORE PUSH1 0x20 DUP6 ADD MLOAD PUSH2 0x120 DUP3 ADD MSTORE PUSH1 0x40 DUP6 ADD MLOAD PUSH2 0x140 DUP3 ADD MSTORE PUSH1 0x60 DUP6 ADD MLOAD PUSH2 0x160 DUP3 ADD MSTORE PUSH1 0x20 PUSH1 0x0 PUSH2 0x180 DUP4 PUSH1 0x8 GAS STATICCALL SWAP3 POP PUSH1 0x0 MLOAD SWAP2 POP POP DUP2 PUSH2 0x2F54 JUMPI PUSH1 0x40 MLOAD PUSH32 0x8C379A000000000000000000000000000000000000000000000000000000000 DUP2 MSTORE PUSH1 0x4 ADD PUSH2 0x2F4B SWAP1 PUSH2 0x3E1F JUMP JUMPDEST PUSH1 0x40 MLOAD DUP1 SWAP2 SUB SWAP1 REVERT JUMPDEST PUSH1 0x0 DUP2 EQ ISZERO SWAP3 POP POP POP SWAP5 SWAP4 POP POP POP POP JUMP JUMPDEST PUSH1 0x0 DUP1 PUSH1 0x1 SWAP1 POP PUSH1 0x0 DUP6 SWAP1 POP PUSH1 0x0 PUSH1 0x1 SWAP1 POP PUSH1 0x1 DUP7 ADD JUMPDEST DUP1 DUP3 LT ISZERO PUSH2 0x2FA3 JUMPI DUP2 DUP8 AND ISZERO PUSH2 0x2F93 JUMPI DUP6 DUP4 DUP6 MULMOD SWAP4 POP JUMPDEST DUP6 DUP4 DUP5 MULMOD SWAP3 POP DUP2 DUP3 ADD SWAP2 POP PUSH2 0x2F7C JUMP JUMPDEST POP DUP3 SWAP4 POP POP POP POP SWAP4 SWAP3 POP POP POP JUMP JUMPDEST PUSH1 0x0 DUP1 PUSH1 0x0 DUP1 PUSH32 0x30644E72E131A029B85045B68181585D2833E84879B9709143E1F593F0000001 SWAP1 POP PUSH1 0x40 MLOAD PUSH1 0x20 DUP2 MSTORE PUSH1 0x20 DUP1 DUP3 ADD MSTORE PUSH1 0x20 PUSH1 0x40 DUP3 ADD MSTORE DUP6 PUSH1 0x60 DUP3 ADD MSTORE PUSH1 0x2 DUP3 SUB PUSH1 0x80 DUP3 ADD MSTORE DUP2 PUSH1 0xA0 DUP3 ADD MSTORE PUSH1 0x20 PUSH1 0x0 PUSH1 0xC0 DUP4 PUSH1 0x5 GAS STATICCALL SWAP3 POP PUSH1 0x0 MLOAD SWAP4 POP POP DUP2 PUSH2 0x3056 JUMPI PUSH1 0x40 MLOAD PUSH32 0x8C379A000000000000000000000000000000000000000000000000000000000 DUP2 MSTORE PUSH1 0x4 ADD PUSH2 0x304D SWAP1 PUSH2 0x3E8B JUMP JUMPDEST PUSH1 0x40 MLOAD DUP1 SWAP2 SUB SWAP1 REVERT JUMPDEST DUP3 SWAP4 POP POP POP POP SWAP2 SWAP1 POP JUMP JUMPDEST PUSH1 0x0 DUP1 PUSH1 0x0 DUP7 PUSH1 0x20 ADD MLOAD SWAP1 POP PUSH1 0x0 DUP8 PUSH1 0x60 ADD MLOAD SWAP1 POP PUSH1 0x0 PUSH32 0x30644E72E131A029B85045B68181585D2833E84879B9709143E1F593F0000001 SWAP1 POP PUSH1 0x0 DUP7 PUSH2 0x260 ADD MLOAD SWAP1 POP PUSH1 0x0 DUP11 PUSH1 0x80 ADD MLOAD SWAP1 POP PUSH1 0x0 DUP9 PUSH2 0x120 ADD MLOAD SWAP1 POP PUSH1 0x0 DUP10 PUSH2 0x140 ADD MLOAD SWAP1 POP PUSH1 0x0 DUP11 PUSH2 0x160 ADD MLOAD SWAP1 POP PUSH1 0x0 DUP12 PUSH2 0x180 ADD MLOAD SWAP1 POP PUSH1 0x0 DUP13 PUSH2 0x1A0 ADD MLOAD SWAP1 POP PUSH1 0x0 DUP14 PUSH2 0x1C0 ADD MLOAD SWAP1 POP PUSH1 0x0 DUP15 PUSH2 0x1E0 ADD MLOAD SWAP1 POP DUP10 DUP4 DUP13 MULMOD DUP9 DUP9 ADD ADD DUP11 DUP4 DUP14 MULMOD DUP10 DUP9 ADD ADD DUP12 DUP4 DUP15 MULMOD DUP11 DUP9 ADD ADD DUP13 DUP14 DUP3 DUP5 MULMOD DUP5 MULMOD SWAP3 POP DUP13 DUP12 DUP9 ADD DUP5 MULMOD SWAP3 POP DUP13 DUP13 DUP5 MULMOD SWAP3 POP DUP13 DUP16 DUP5 MULMOD SWAP3 POP DUP3 DUP14 SUB SWAP16 POP POP POP POP POP POP POP POP POP POP POP POP PUSH1 0x0 DUP11 PUSH1 0x0 ADD MLOAD SWAP1 POP PUSH1 0x0 DUP11 SWAP1 POP PUSH1 0x0 DUP11 SWAP1 POP PUSH1 0x0 DUP15 SWAP1 POP DUP6 DUP9 DUP10 MULMOD DUP7 DUP2 DUP11 MULMOD DUP8 DUP2 DUP7 MULMOD DUP9 DUP4 DUP7 MULMOD DUP10 DUP6 DUP12 SUB DUP11 ADDMOD DUP11 DUP2 DUP4 MULMOD SWAP2 POP DUP11 DUP4 DUP13 SUB DUP16 ADDMOD SWAP14 POP DUP11 DUP3 DUP16 ADDMOD SWAP14 POP DUP11 DUP5 DUP11 MULMOD SWAP9 POP POP POP POP POP POP POP POP POP DUP1 DUP12 PUSH1 0x0 ADD DUP2 DUP2 MSTORE POP POP DUP6 SWAP7 POP POP POP POP POP POP POP SWAP6 SWAP5 POP POP POP POP POP JUMP JUMPDEST PUSH1 0x0 DUP1 DUP3 PUSH2 0x200 ADD MLOAD SWAP1 POP PUSH1 0x0 DUP4 PUSH2 0x160 ADD MLOAD SWAP1 POP PUSH1 0x0 DUP5 PUSH2 0x180 ADD MLOAD SWAP1 POP PUSH1 0x0 DUP7 PUSH1 0x0 ADD MLOAD SWAP1 POP PUSH1 0x0 DUP8 PUSH1 0x20 ADD MLOAD SWAP1 POP PUSH1 0x0 DUP1 PUSH32 0x30644E72E131A029B85045B68181585D2833E84879B9709143E1F593F0000001 SWAP1 POP DUP1 DUP8 DUP3 SUB DUP3 DUP10 DUP11 MULMOD ADDMOD SWAP2 POP DUP1 DUP7 DUP3 PUSH1 0x4 DUP9 MULMOD DUP4 SUB ADDMOD DUP2 PUSH1 0x2 DUP4 DUP4 DUP5 MULMOD MULMOD DUP3 PUSH1 0x9 DUP4 MULMOD DUP4 DUP5 PUSH1 0x7 DUP7 SUB DUP5 DUP8 SUB ADDMOD DUP3 ADDMOD SWAP1 POP DUP4 DUP2 DUP5 MULMOD SWAP3 POP DUP4 DUP8 DUP6 DUP6 DUP9 MULMOD MULMOD SWAP5 POP DUP4 DUP7 DUP9 MULMOD SWAP7 POP DUP4 DUP7 DUP9 MULMOD SWAP7 POP POP POP POP DUP4 DUP11 PUSH1 0x0 ADD DUP2 DUP2 MSTORE POP POP DUP2 SWAP8 POP POP POP POP POP POP POP POP SWAP3 SWAP2 POP POP JUMP JUMPDEST PUSH1 0x0 DUP1 DUP4 PUSH1 0x20 ADD MLOAD SWAP1 POP PUSH1 0x0 DUP1 DUP6 PUSH1 0x0 ADD MLOAD SWAP1 POP PUSH1 0x0 PUSH32 0x30644E72E131A029B85045B68181585D2833E84879B9709143E1F593F0000001 SWAP1 POP PUSH1 0x0 DUP1 DUP8 PUSH2 0x180 ADD MLOAD SWAP1 POP PUSH1 0x0 DUP9 PUSH2 0x2E0 ADD MLOAD SWAP1 POP PUSH1 0x0 DUP10 PUSH2 0x2C0 ADD MLOAD SWAP1 POP DUP3 DUP6 SUB DUP6 DUP7 PUSH1 0x4 DUP4 MULMOD DUP5 ADDMOD SWAP5 POP DUP6 DUP8 DUP8 PUSH1 0x3 DUP10 SUB DUP9 ADD DUP10 PUSH1 0x1 DUP12 SUB DUP11 ADD DUP12 PUSH1 0x3 DUP13 ADD PUSH1 0x1 DUP14 ADD MULMOD MULMOD MULMOD MULMOD SWAP8 POP DUP6 DUP10 DUP9 MULMOD SWAP7 POP DUP6 DUP7 DUP9 DUP5 MULMOD DUP8 SUB DUP10 ADDMOD SWAP8 POP DUP6 DUP10 DUP9 MULMOD SWAP7 POP POP PUSH1 0x0 DUP11 PUSH2 0x220 ADD MLOAD SWAP1 POP DUP11 PUSH2 0x120 ADD MLOAD SWAP4 POP DUP11 PUSH2 0x280 ADD MLOAD SWAP3 POP DUP11 PUSH2 0x140 ADD MLOAD SWAP2 POP PUSH1 0x0 DUP12 PUSH2 0x2C0 ADD MLOAD SWAP1 POP PUSH1 0x0 DUP1 PUSH1 0x0 DUP10 DUP11 DUP6 DUP11 ADDMOD DUP9 ADDMOD SWAP3 POP DUP10 DUP9 DUP12 SUB DUP6 ADDMOD SWAP2 POP DUP10 DUP3 DUP4 MULMOD SWAP2 POP DUP10 DUP3 DUP5 MULMOD SWAP3 POP DUP10 DUP11 DUP6 DUP7 MULMOD DUP6 MULMOD SWAP2 POP DUP10 DUP7 DUP8 MULMOD SWAP1 POP DUP10 PUSH1 0x11 DUP12 SUB DUP12 DUP4 DUP6 ADDMOD ADDMOD DUP11 SUB SWAP2 POP DUP10 DUP6 DUP12 DUP9 DUP13 MULMOD MULMOD SWAP1 POP DUP10 DUP2 DUP3 ADDMOD SWAP1 POP DUP10 DUP12 DUP12 DUP13 DUP5 DUP7 ADDMOD DUP7 ADDMOD MULMOD SWAP3 POP DUP10 DUP4 DUP14 ADDMOD SWAP12 POP DUP10 DUP14 DUP13 MULMOD SWAP11 POP DUP15 PUSH2 0x120 ADD MLOAD SWAP8 POP DUP15 PUSH2 0x2A0 ADD MLOAD SWAP7 POP DUP15 PUSH2 0x140 ADD MLOAD SWAP6 POP DUP15 PUSH2 0x2C0 ADD MLOAD SWAP4 POP PUSH1 0x0 DUP16 PUSH2 0x280 ADD MLOAD SWAP1 POP DUP11 DUP12 DUP11 DUP14 SUB DUP8 ADDMOD DUP13 DUP10 DUP12 ADDMOD MULMOD SWAP4 POP DUP11 DUP2 DUP13 SUB DUP11 ADDMOD SWAP3 POP DUP11 DUP8 DUP13 DUP13 DUP10 MULMOD DUP14 SUB ADDMOD SWAP2 POP DUP11 DUP12 DUP14 DUP14 DUP6 DUP8 MULMOD DUP8 ADD MULMOD DUP15 ADDMOD SWAP13 POP DUP11 DUP15 DUP14 MULMOD SWAP12 POP DUP16 PUSH2 0x240 ADD MLOAD SWAP6 POP DUP16 PUSH2 0x180 ADD MLOAD SWAP8 POP DUP16 PUSH2 0x160 ADD MLOAD SWAP7 POP DUP11 PUSH1 0x1 DUP13 SUB DUP10 ADDMOD DUP12 DUP9 DUP14 SUB DUP3 ADDMOD SWAP4 POP DUP12 DUP13 DUP15 DUP7 MULMOD DUP3 MULMOD SWAP1 POP DUP12 DUP8 DUP3 MULMOD SWAP1 POP DUP12 DUP2 DUP16 ADDMOD SWAP14 POP DUP12 DUP16 DUP15 MULMOD SWAP13 POP POP DUP11 DUP12 DUP14 DUP10 MULMOD DUP13 DUP9 DUP13 MULMOD MULMOD DUP12 SUB DUP12 DUP2 DUP16 ADDMOD SWAP14 POP DUP12 DUP16 DUP15 MULMOD SWAP13 POP POP DUP16 PUSH2 0x140 ADD MLOAD SWAP9 POP DUP16 PUSH2 0x160 ADD MLOAD SWAP8 POP DUP16 PUSH2 0x180 ADD MLOAD SWAP7 POP DUP11 DUP7 DUP9 DUP14 SUB PUSH1 0x1 ADD MULMOD DUP12 DUP10 DUP12 MULMOD DUP13 SUB SWAP4 POP DUP12 DUP13 DUP9 DUP16 MULMOD DUP6 DUP4 ADD MULMOD SWAP1 POP DUP12 DUP2 DUP16 ADDMOD SWAP14 POP DUP12 DUP16 DUP15 MULMOD SWAP13 POP POP DUP16 PUSH2 0x220 ADD MLOAD SWAP6 POP DUP11 DUP7 DUP15 MULMOD SWAP13 POP POP POP POP POP POP POP POP POP POP POP POP DUP1 DUP7 PUSH1 0x0 ADD DUP2 DUP2 MSTORE POP POP DUP2 SWAP4 POP POP POP POP SWAP3 SWAP2 POP POP JUMP JUMPDEST PUSH1 0x40 MLOAD DUP1 PUSH1 0x20 ADD PUSH1 0x40 MSTORE DUP1 PUSH1 0x0 DUP1 NOT AND DUP2 MSTORE POP SWAP1 JUMP JUMPDEST PUSH1 0x40 MLOAD DUP1 PUSH2 0x220 ADD PUSH1 0x40 MSTORE DUP1 PUSH1 0x0 DUP2 MSTORE PUSH1 0x20 ADD PUSH1 0x0 DUP2 MSTORE PUSH1 0x20 ADD PUSH1 0x0 DUP2 MSTORE PUSH1 0x20 ADD PUSH1 0x0 DUP2 MSTORE PUSH1 0x20 ADD PUSH1 0x0 DUP2 MSTORE PUSH1 0x20 ADD PUSH1 0x0 DUP2 MSTORE PUSH1 0x20 ADD PUSH1 0x0 DUP2 MSTORE PUSH1 0x20 ADD PUSH1 0x0 DUP2 MSTORE PUSH1 0x20 ADD PUSH1 0x0 DUP2 MSTORE PUSH1 0x20 ADD PUSH1 0x0 DUP2 MSTORE PUSH1 0x20 ADD PUSH1 0x0 DUP2 MSTORE PUSH1 0x20 ADD PUSH1 0x0 DUP2 MSTORE PUSH1 0x20 ADD PUSH1 0x0 DUP2 MSTORE PUSH1 0x20 ADD PUSH1 0x0 DUP2 MSTORE PUSH1 0x20 ADD PUSH1 0x0 DUP2 MSTORE PUSH1 0x20 ADD PUSH1 0x0 DUP2 MSTORE PUSH1 0x20 ADD PUSH1 0x0 DUP2 MSTORE POP SWAP1 JUMP JUMPDEST PUSH1 0x40 MLOAD DUP1 PUSH2 0x320 ADD PUSH1 0x40 MSTORE DUP1 PUSH1 0x0 DUP2 MSTORE PUSH1 0x20 ADD PUSH1 0x0 DUP2 MSTORE PUSH1 0x20 ADD PUSH1 0x0 DUP2 MSTORE PUSH1 0x20 ADD PUSH1 0x0 DUP2 MSTORE PUSH1 0x20 ADD PUSH1 0x0 DUP2 MSTORE PUSH1 0x20 ADD PUSH2 0x358E PUSH2 0x379B JUMP JUMPDEST DUP2 MSTORE PUSH1 0x20 ADD PUSH2 0x359B PUSH2 0x379B JUMP JUMPDEST DUP2 MSTORE PUSH1 0x20 ADD PUSH2 0x35A8 PUSH2 0x379B JUMP JUMPDEST DUP2 MSTORE PUSH1 0x20 ADD PUSH2 0x35B5 PUSH2 0x379B JUMP JUMPDEST DUP2 MSTORE PUSH1 0x20 ADD PUSH2 0x35C2 PUSH2 0x379B JUMP JUMPDEST DUP2 MSTORE PUSH1 0x20 ADD PUSH2 0x35CF PUSH2 0x379B JUMP JUMPDEST DUP2 MSTORE PUSH1 0x20 ADD PUSH2 0x35DC PUSH2 0x379B JUMP JUMPDEST DUP2 MSTORE PUSH1 0x20 ADD PUSH2 0x35E9 PUSH2 0x379B JUMP JUMPDEST DUP2 MSTORE PUSH1 0x20 ADD PUSH2 0x35F6 PUSH2 0x379B JUMP JUMPDEST DUP2 MSTORE PUSH1 0x20 ADD PUSH2 0x3603 PUSH2 0x379B JUMP JUMPDEST DUP2 MSTORE PUSH1 0x20 ADD PUSH2 0x3610 PUSH2 0x379B JUMP JUMPDEST DUP2 MSTORE PUSH1 0x20 ADD PUSH2 0x361D PUSH2 0x379B JUMP JUMPDEST DUP2 MSTORE PUSH1 0x20 ADD PUSH2 0x362A PUSH2 0x379B JUMP JUMPDEST DUP2 MSTORE PUSH1 0x20 ADD PUSH2 0x3637 PUSH2 0x379B JUMP JUMPDEST DUP2 MSTORE PUSH1 0x20 ADD PUSH2 0x3644 PUSH2 0x379B JUMP JUMPDEST DUP2 MSTORE PUSH1 0x20 ADD PUSH1 0x0 ISZERO ISZERO DUP2 MSTORE PUSH1 0x20 ADD PUSH1 0x0 DUP2 MSTORE PUSH1 0x20 ADD PUSH2 0x3661 PUSH2 0x37B5 JUMP JUMPDEST DUP2 MSTORE PUSH1 0x20 ADD PUSH1 0x0 DUP2 MSTORE PUSH1 0x20 ADD PUSH1 0x0 DUP2 MSTORE POP SWAP1 JUMP JUMPDEST PUSH1 0x40 MLOAD DUP1 PUSH2 0x3A0 ADD PUSH1 0x40 MSTORE DUP1 PUSH2 0x3689 PUSH2 0x379B JUMP JUMPDEST DUP2 MSTORE PUSH1 0x20 ADD PUSH2 0x3696 PUSH2 0x379B JUMP JUMPDEST DUP2 MSTORE PUSH1 0x20 ADD PUSH2 0x36A3 PUSH2 0x379B JUMP JUMPDEST DUP2 MSTORE PUSH1 0x20 ADD PUSH2 0x36B0 PUSH2 0x379B JUMP JUMPDEST DUP2 MSTORE PUSH1 0x20 ADD PUSH2 0x36BD PUSH2 0x379B JUMP JUMPDEST DUP2 MSTORE PUSH1 0x20 ADD PUSH2 0x36CA PUSH2 0x379B JUMP JUMPDEST DUP2 MSTORE PUSH1 0x20 ADD PUSH2 0x36D7 PUSH2 0x379B JUMP JUMPDEST DUP2 MSTORE PUSH1 0x20 ADD PUSH2 0x36E4 PUSH2 0x379B JUMP JUMPDEST DUP2 MSTORE PUSH1 0x20 ADD PUSH2 0x36F1 PUSH2 0x379B JUMP JUMPDEST DUP2 MSTORE PUSH1 0x20 ADD PUSH1 0x0 DUP2 MSTORE PUSH1 0x20 ADD PUSH1 0x0 DUP2 MSTORE PUSH1 0x20 ADD PUSH1 0x0 DUP2 MSTORE PUSH1 0x20 ADD PUSH1 0x0 DUP2 MSTORE PUSH1 0x20 ADD PUSH1 0x0 DUP2 MSTORE PUSH1 0x20 ADD PUSH1 0x0 DUP2 MSTORE PUSH1 0x20 ADD PUSH1 0x0 DUP2 MSTORE PUSH1 0x20 ADD PUSH1 0x0 DUP2 MSTORE PUSH1 0x20 ADD PUSH1 0x0 DUP2 MSTORE PUSH1 0x20 ADD PUSH1 0x0 DUP2 MSTORE PUSH1 0x20 ADD PUSH1 0x0 DUP2 MSTORE PUSH1 0x20 ADD PUSH1 0x0 DUP2 MSTORE PUSH1 0x20 ADD PUSH1 0x0 DUP2 MSTORE PUSH1 0x20 ADD PUSH1 0x0 DUP2 MSTORE PUSH1 0x20 ADD PUSH1 0x0 DUP2 MSTORE PUSH1 0x20 ADD PUSH2 0x3767 PUSH2 0x379B JUMP JUMPDEST DUP2 MSTORE PUSH1 0x20 ADD PUSH2 0x3774 PUSH2 0x379B JUMP JUMPDEST DUP2 MSTORE PUSH1 0x20 ADD PUSH2 0x3781 PUSH2 0x379B JUMP JUMPDEST DUP2 MSTORE PUSH1 0x20 ADD PUSH2 0x378E PUSH2 0x379B JUMP JUMPDEST DUP2 MSTORE PUSH1 0x20 ADD PUSH1 0x0 DUP2 MSTORE POP SWAP1 JUMP JUMPDEST PUSH1 0x40 MLOAD DUP1 PUSH1 0x40 ADD PUSH1 0x40 MSTORE DUP1 PUSH1 0x0 DUP2 MSTORE PUSH1 0x20 ADD PUSH1 0x0 DUP2 MSTORE POP SWAP1 JUMP JUMPDEST PUSH1 0x40 MLOAD DUP1 PUSH1 0x80 ADD PUSH1 0x40 MSTORE DUP1 PUSH1 0x0 DUP2 MSTORE PUSH1 0x20 ADD PUSH1 0x0 DUP2 MSTORE PUSH1 0x20 ADD PUSH1 0x0 DUP2 MSTORE PUSH1 0x20 ADD PUSH1 0x0 DUP2 MSTORE POP SWAP1 JUMP JUMPDEST PUSH1 0x0 DUP1 REVERT JUMPDEST PUSH1 0x0 DUP1 REVERT JUMPDEST PUSH1 0x0 DUP1 REVERT JUMPDEST PUSH1 0x0 DUP1 REVERT JUMPDEST PUSH1 0x0 DUP1 REVERT JUMPDEST PUSH1 0x0 DUP1 DUP4 PUSH1 0x1F DUP5 ADD SLT PUSH2 0x380C JUMPI PUSH2 0x380B PUSH2 0x37E7 JUMP JUMPDEST JUMPDEST DUP3 CALLDATALOAD SWAP1 POP PUSH8 0xFFFFFFFFFFFFFFFF DUP2 GT ISZERO PUSH2 0x3829 JUMPI PUSH2 0x3828 PUSH2 0x37EC JUMP JUMPDEST JUMPDEST PUSH1 0x20 DUP4 ADD SWAP2 POP DUP4 PUSH1 0x1 DUP3 MUL DUP4 ADD GT ISZERO PUSH2 0x3845 JUMPI PUSH2 0x3844 PUSH2 0x37F1 JUMP JUMPDEST JUMPDEST SWAP3 POP SWAP3 SWAP1 POP JUMP JUMPDEST PUSH1 0x0 DUP1 PUSH1 0x20 DUP4 DUP6 SUB SLT ISZERO PUSH2 0x3863 JUMPI PUSH2 0x3862 PUSH2 0x37DD JUMP JUMPDEST JUMPDEST PUSH1 0x0 DUP4 ADD CALLDATALOAD PUSH8 0xFFFFFFFFFFFFFFFF DUP2 GT ISZERO PUSH2 0x3881 JUMPI PUSH2 0x3880 PUSH2 0x37E2 JUMP JUMPDEST JUMPDEST PUSH2 0x388D DUP6 DUP3 DUP7 ADD PUSH2 0x37F6 JUMP JUMPDEST SWAP3 POP SWAP3 POP POP SWAP3 POP SWAP3 SWAP1 POP JUMP JUMPDEST PUSH1 0x0 DUP2 ISZERO ISZERO SWAP1 POP SWAP2 SWAP1 POP JUMP JUMPDEST PUSH2 0x38AE DUP2 PUSH2 0x3899 JUMP JUMPDEST DUP3 MSTORE POP POP JUMP JUMPDEST PUSH1 0x0 PUSH1 0x20 DUP3 ADD SWAP1 POP PUSH2 0x38C9 PUSH1 0x0 DUP4 ADD DUP5 PUSH2 0x38A5 JUMP JUMPDEST SWAP3 SWAP2 POP POP JUMP JUMPDEST PUSH1 0x0 DUP3 DUP3 MSTORE PUSH1 0x20 DUP3 ADD SWAP1 POP SWAP3 SWAP2 POP POP JUMP JUMPDEST PUSH32 0x50726F6F66206661696C65640000000000000000000000000000000000000000 PUSH1 0x0 DUP3 ADD MSTORE POP JUMP JUMPDEST PUSH1 0x0 PUSH2 0x3916 PUSH1 0xC DUP4 PUSH2 0x38CF JUMP JUMPDEST SWAP2 POP PUSH2 0x3921 DUP3 PUSH2 0x38E0 JUMP JUMPDEST PUSH1 0x20 DUP3 ADD SWAP1 POP SWAP2 SWAP1 POP JUMP JUMPDEST PUSH1 0x0 PUSH1 0x20 DUP3 ADD SWAP1 POP DUP2 DUP2 SUB PUSH1 0x0 DUP4 ADD MSTORE PUSH2 0x3945 DUP2 PUSH2 0x3909 JUMP JUMPDEST SWAP1 POP SWAP2 SWAP1 POP JUMP JUMPDEST PUSH1 0x0 DUP2 SWAP1 POP SWAP2 SWAP1 POP JUMP JUMPDEST PUSH32 0x4E487B7100000000000000000000000000000000000000000000000000000000 PUSH1 0x0 MSTORE PUSH1 0x11 PUSH1 0x4 MSTORE PUSH1 0x24 PUSH1 0x0 REVERT JUMPDEST PUSH1 0x0 PUSH2 0x3990 DUP3 PUSH2 0x394C JUMP JUMPDEST SWAP2 POP PUSH2 0x399B DUP4 PUSH2 0x394C JUMP JUMPDEST SWAP3 POP DUP3 DUP3 MUL PUSH2 0x39A9 DUP2 PUSH2 0x394C JUMP JUMPDEST SWAP2 POP DUP3 DUP3 DIV DUP5 EQ DUP4 ISZERO OR PUSH2 0x39C0 JUMPI PUSH2 0x39BF PUSH2 0x3956 JUMP JUMPDEST JUMPDEST POP SWAP3 SWAP2 POP POP JUMP JUMPDEST PUSH32 0x636F6D707574655F6C696E656172697365645F6F70656E696E675F7465726D73 PUSH1 0x0 DUP3 ADD MSTORE PUSH32 0x2067726F7570206F7065726174696F6E73206661696C00000000000000000000 PUSH1 0x20 DUP3 ADD MSTORE POP JUMP JUMPDEST PUSH1 0x0 PUSH2 0x3A23 PUSH1 0x36 DUP4 PUSH2 0x38CF JUMP JUMPDEST SWAP2 POP PUSH2 0x3A2E DUP3 PUSH2 0x39C7 JUMP JUMPDEST PUSH1 0x40 DUP3 ADD SWAP1 POP SWAP2 SWAP1 POP JUMP JUMPDEST PUSH1 0x0 PUSH1 0x20 DUP3 ADD SWAP1 POP DUP2 DUP2 SUB PUSH1 0x0 DUP4 ADD MSTORE PUSH2 0x3A52 DUP2 PUSH2 0x3A16 JUMP JUMPDEST SWAP1 POP SWAP2 SWAP1 POP JUMP JUMPDEST PUSH1 0x0 PUSH2 0x3A64 DUP3 PUSH2 0x394C JUMP JUMPDEST SWAP2 POP PUSH2 0x3A6F DUP4 PUSH2 0x394C JUMP JUMPDEST SWAP3 POP DUP3 DUP3 SUB SWAP1 POP DUP2 DUP2 GT ISZERO PUSH2 0x3A87 JUMPI PUSH2 0x3A86 PUSH2 0x3956 JUMP JUMPDEST JUMPDEST SWAP3 SWAP2 POP POP JUMP JUMPDEST PUSH32 0x636F6D707574655F62617463685F6F70656E696E675F636F6D6D69746D656E74 PUSH1 0x0 DUP3 ADD MSTORE PUSH32 0x2067726F7570206F7065726174696F6E73206572726F72000000000000000000 PUSH1 0x20 DUP3 ADD MSTORE POP JUMP JUMPDEST PUSH1 0x0 PUSH2 0x3AE9 PUSH1 0x37 DUP4 PUSH2 0x38CF JUMP JUMPDEST SWAP2 POP PUSH2 0x3AF4 DUP3 PUSH2 0x3A8D JUMP JUMPDEST PUSH1 0x40 DUP3 ADD SWAP1 POP SWAP2 SWAP1 POP JUMP JUMPDEST PUSH1 0x0 PUSH1 0x20 DUP3 ADD SWAP1 POP DUP2 DUP2 SUB PUSH1 0x0 DUP4 ADD MSTORE PUSH2 0x3B18 DUP2 PUSH2 0x3ADC JUMP JUMPDEST SWAP1 POP SWAP2 SWAP1 POP JUMP JUMPDEST PUSH32 0x706572666F726D5F70616972696E67204731206F7065726174696F6E73207072 PUSH1 0x0 DUP3 ADD MSTORE PUSH32 0x65616D626C65206661696C000000000000000000000000000000000000000000 PUSH1 0x20 DUP3 ADD MSTORE POP JUMP JUMPDEST PUSH1 0x0 PUSH2 0x3B7B PUSH1 0x2B DUP4 PUSH2 0x38CF JUMP JUMPDEST SWAP2 POP PUSH2 0x3B86 DUP3 PUSH2 0x3B1F JUMP JUMPDEST PUSH1 0x40 DUP3 ADD SWAP1 POP SWAP2 SWAP1 POP JUMP JUMPDEST PUSH1 0x0 PUSH1 0x20 DUP3 ADD SWAP1 POP DUP2 DUP2 SUB PUSH1 0x0 DUP4 ADD MSTORE PUSH2 0x3BAA DUP2 PUSH2 0x3B6E JUMP JUMPDEST SWAP1 POP SWAP2 SWAP1 POP JUMP JUMPDEST PUSH32 0x7075626C696320696E70757473206172652067726561746572207468616E2063 PUSH1 0x0 DUP3 ADD MSTORE PUSH32 0x697263756974206D6F64756C7573000000000000000000000000000000000000 PUSH1 0x20 DUP3 ADD MSTORE POP JUMP JUMPDEST PUSH1 0x0 PUSH2 0x3C0D PUSH1 0x2E DUP4 PUSH2 0x38CF JUMP JUMPDEST SWAP2 POP PUSH2 0x3C18 DUP3 PUSH2 0x3BB1 JUMP JUMPDEST PUSH1 0x40 DUP3 ADD SWAP1 POP SWAP2 SWAP1 POP JUMP JUMPDEST PUSH1 0x0 PUSH1 0x20 DUP3 ADD SWAP1 POP DUP2 DUP2 SUB PUSH1 0x0 DUP4 ADD MSTORE PUSH2 0x3C3C DUP2 PUSH2 0x3C00 JUMP JUMPDEST SWAP1 POP SWAP2 SWAP1 POP JUMP JUMPDEST PUSH32 0x636F6D707574655F6772616E645F70726F647563745F6F70656E696E675F7363 PUSH1 0x0 DUP3 ADD MSTORE PUSH32 0x616C61722067726F7570206F7065726174696F6E73206661696C757265000000 PUSH1 0x20 DUP3 ADD MSTORE POP JUMP JUMPDEST PUSH1 0x0 PUSH2 0x3C9F PUSH1 0x3D DUP4 PUSH2 0x38CF JUMP JUMPDEST SWAP2 POP PUSH2 0x3CAA DUP3 PUSH2 0x3C43 JUMP JUMPDEST PUSH1 0x40 DUP3 ADD SWAP1 POP SWAP2 SWAP1 POP JUMP JUMPDEST PUSH1 0x0 PUSH1 0x20 DUP3 ADD SWAP1 POP DUP2 DUP2 SUB PUSH1 0x0 DUP4 ADD MSTORE PUSH2 0x3CCE DUP2 PUSH2 0x3C92 JUMP JUMPDEST SWAP1 POP SWAP2 SWAP1 POP JUMP JUMPDEST PUSH32 0x473120706F696E74206D756C7469706C69636174696F6E206661696C65642100 PUSH1 0x0 DUP3 ADD MSTORE POP JUMP JUMPDEST PUSH1 0x0 PUSH2 0x3D0B PUSH1 0x1F DUP4 PUSH2 0x38CF JUMP JUMPDEST SWAP2 POP PUSH2 0x3D16 DUP3 PUSH2 0x3CD5 JUMP JUMPDEST PUSH1 0x20 DUP3 ADD SWAP1 POP SWAP2 SWAP1 POP JUMP JUMPDEST PUSH1 0x0 PUSH1 0x20 DUP3 ADD SWAP1 POP DUP2 DUP2 SUB PUSH1 0x0 DUP4 ADD MSTORE PUSH2 0x3D3A DUP2 PUSH2 0x3CFE JUMP JUMPDEST SWAP1 POP SWAP2 SWAP1 POP JUMP JUMPDEST PUSH32 0x426E3235343A20473120706F696E74206E6F74206F6E2063757276652C206F72 PUSH1 0x0 DUP3 ADD MSTORE PUSH32 0x206973206D616C666F726D656400000000000000000000000000000000000000 PUSH1 0x20 DUP3 ADD MSTORE POP JUMP JUMPDEST PUSH1 0x0 PUSH2 0x3D9D PUSH1 0x2D DUP4 PUSH2 0x38CF JUMP JUMPDEST SWAP2 POP PUSH2 0x3DA8 DUP3 PUSH2 0x3D41 JUMP JUMPDEST PUSH1 0x40 DUP3 ADD SWAP1 POP SWAP2 SWAP1 POP JUMP JUMPDEST PUSH1 0x0 PUSH1 0x20 DUP3 ADD SWAP1 POP DUP2 DUP2 SUB PUSH1 0x0 DUP4 ADD MSTORE PUSH2 0x3DCC DUP2 PUSH2 0x3D90 JUMP JUMPDEST SWAP1 POP SWAP2 SWAP1 POP JUMP JUMPDEST PUSH32 0x50616972696E6720636865636B206661696C6564210000000000000000000000 PUSH1 0x0 DUP3 ADD MSTORE POP JUMP JUMPDEST PUSH1 0x0 PUSH2 0x3E09 PUSH1 0x15 DUP4 PUSH2 0x38CF JUMP JUMPDEST SWAP2 POP PUSH2 0x3E14 DUP3 PUSH2 0x3DD3 JUMP JUMPDEST PUSH1 0x20 DUP3 ADD SWAP1 POP SWAP2 SWAP1 POP JUMP JUMPDEST PUSH1 0x0 PUSH1 0x20 DUP3 ADD SWAP1 POP DUP2 DUP2 SUB PUSH1 0x0 DUP4 ADD MSTORE PUSH2 0x3E38 DUP2 PUSH2 0x3DFC JUMP JUMPDEST SWAP1 POP SWAP2 SWAP1 POP JUMP JUMPDEST PUSH32 0x706F7720707265636F6D70696C652063616C6C206661696C6564210000000000 PUSH1 0x0 DUP3 ADD MSTORE POP JUMP JUMPDEST PUSH1 0x0 PUSH2 0x3E75 PUSH1 0x1B DUP4 PUSH2 0x38CF JUMP JUMPDEST SWAP2 POP PUSH2 0x3E80 DUP3 PUSH2 0x3E3F JUMP JUMPDEST PUSH1 0x20 DUP3 ADD SWAP1 POP SWAP2 SWAP1 POP JUMP JUMPDEST PUSH1 0x0 PUSH1 0x20 DUP3 ADD SWAP1 POP DUP2 DUP2 SUB PUSH1 0x0 DUP4 ADD MSTORE PUSH2 0x3EA4 DUP2 PUSH2 0x3E68 JUMP JUMPDEST SWAP1 POP SWAP2 SWAP1 POP JUMP INVALID LOG2 PUSH5 0x6970667358 0x22 SLT KECCAK256 0xEA 0x5C MSIZE 0x24 SWAP5 SWAP4 DUP2 PUSH6 0x6FAE8114E69A 0xCE MULMOD 0x25 0xD8 0x2D 0x27 0xEE 0xBD XOR CALLER 0xB1 0xDC AND BALANCE 0xCE DUP2 SIGNEXTEND 0xEC PUSH5 0x736F6C6343 STOP ADDMOD SLT STOP CALLER "},"methodIdentifiers":{"verify(bytes)":"8e760afe"}}}}}