{"contracts/Auction.sol":{"Auction":{"abi":[{"inputs":[{"internalType":"address","name":"verifier_contract_address","type":"address"}],"stateMutability":"nonpayable","type":"constructor"},{"inputs":[],"name":"MAX_BIDS","outputs":[{"internalType":"uint8","name":"","type":"uint8"}],"stateMutability":"view","type":"function"},{"inputs":[{"internalType":"bytes32","name":"commitment","type":"bytes32"}],"name":"bid","outputs":[],"stateMutability":"nonpayable","type":"function"},{"inputs":[{"internalType":"uint256","name":"","type":"uint256"}],"name":"commitments","outputs":[{"internalType":"bytes32","name":"","type":"bytes32"}],"stateMutability":"view","type":"function"},{"inputs":[],"name":"num_bids","outputs":[{"internalType":"uint8","name":"","type":"uint8"}],"stateMutability":"view","type":"function"},{"inputs":[{"internalType":"bytes","name":"data","type":"bytes"}],"name":"verify","outputs":[],"stateMutability":"nonpayable","type":"function"},{"inputs":[],"name":"winner","outputs":[{"internalType":"address","name":"","type":"address"}],"stateMutability":"view","type":"function"}],"evm":{"bytecode":{"linkReferences":{},"object":"60806040526000604060006101000a81548160ff021916908360ff16021790555034801561002c57600080fd5b5060405162000ff538038062000ff5833981810160405281019061005091906100fa565b80604060016101000a81548173ffffffffffffffffffffffffffffffffffffffff021916908373ffffffffffffffffffffffffffffffffffffffff16021790555050610127565b600080fd5b600073ffffffffffffffffffffffffffffffffffffffff82169050919050565b60006100c78261009c565b9050919050565b6100d7816100bc565b81146100e257600080fd5b50565b6000815190506100f4816100ce565b92915050565b6000602082840312156101105761010f610097565b5b600061011e848285016100e5565b91505092915050565b610ebe80620001376000396000f3fe608060405234801561001057600080fd5b50600436106100625760003560e01c806349ce8997146100675780638e760afe14610097578063957bb1e0146100b3578063d5d5f8e1146100cf578063d7faa96a146100ed578063dfbf53ae1461010b575b600080fd5b610081600480360381019061007c919061053a565b610129565b60405161008e9190610580565b60405180910390f35b6100b160048036038101906100ac9190610600565b610144565b005b6100cd60048036038101906100c89190610679565b61039a565b005b6100d7610424565b6040516100e491906106c2565b60405180910390f35b6100f5610429565b60405161010291906106c2565b60405180910390f35b61011361043c565b604051610120919061071e565b60405180910390f35b6000816040811061013957600080fd5b016000915090505481565b60006101a660003660049060189261015e93929190610743565b8080601f016020809104026020016040519081016040528093929190818152602001838380828437600081840152601f19601f82011690508083019250505050505050610462565b9050600061020a600036601890602c926101c293929190610743565b8080601f016020809104026020016040519081016040528093929190818152602001838380828437600081840152601f19601f82011690508083019250505050505050610462565b9050600080368490848661021e91906107ad565b9261022b93929190610743565b8080601f016020809104026020016040519081016040528093929190818152602001838380828437600081840152601f19601f8201169050808301925050505050505090506000604060019054906101000a900473ffffffffffffffffffffffffffffffffffffffff1673ffffffffffffffffffffffffffffffffffffffff1686866040516102bb929190610820565b6000604051808303816000865af19150503d80600081146102f8576040519150601f19603f3d011682016040523d82523d6000602084013e6102fd565b606091505b5050905080610341576040517f08c379a0000000000000000000000000000000000000000000000000000000008152600401610338906108bc565b60405180910390fd5b33604160006101000a81548173ffffffffffffffffffffffffffffffffffffffff021916908373ffffffffffffffffffffffffffffffffffffffff16021790555081604290816103919190610b22565b50505050505050565b604060ff16604060009054906101000a900460ff1660ff1611156103bd57600080fd5b806000604060009054906101000a900460ff1660ff16604081106103e4576103e3610bf4565b5b01819055506040600081819054906101000a900460ff168092919061040890610c23565b91906101000a81548160ff021916908360ff1602179055505050565b604081565b604060009054906101000a900460ff1681565b604160009054906101000a900473ffffffffffffffffffffffffffffffffffffffff1681565b60008060005b83518110156104f05760018161047e91906107ad565b845161048a9190610c4c565b60086104969190610c80565b60026104a29190610df5565b8482815181106104b5576104b4610bf4565b5b602001015160f81c60f81b60f81c60ff166104d09190610c80565b826104db91906107ad565b915080806104e890610e40565b915050610468565b5080915050919050565b600080fd5b600080fd5b6000819050919050565b61051781610504565b811461052257600080fd5b50565b6000813590506105348161050e565b92915050565b6000602082840312156105505761054f6104fa565b5b600061055e84828501610525565b91505092915050565b6000819050919050565b61057a81610567565b82525050565b60006020820190506105956000830184610571565b92915050565b600080fd5b600080fd5b600080fd5b60008083601f8401126105c0576105bf61059b565b5b8235905067ffffffffffffffff8111156105dd576105dc6105a0565b5b6020830191508360018202830111156105f9576105f86105a5565b5b9250929050565b60008060208385031215610617576106166104fa565b5b600083013567ffffffffffffffff811115610635576106346104ff565b5b610641858286016105aa565b92509250509250929050565b61065681610567565b811461066157600080fd5b50565b6000813590506106738161064d565b92915050565b60006020828403121561068f5761068e6104fa565b5b600061069d84828501610664565b91505092915050565b600060ff82169050919050565b6106bc816106a6565b82525050565b60006020820190506106d760008301846106b3565b92915050565b600073ffffffffffffffffffffffffffffffffffffffff82169050919050565b6000610708826106dd565b9050919050565b610718816106fd565b82525050565b6000602082019050610733600083018461070f565b92915050565b600080fd5b600080fd5b6000808585111561075757610756610739565b5b838611156107685761076761073e565b5b6001850283019150848603905094509492505050565b7f4e487b7100000000000000000000000000000000000000000000000000000000600052601160045260246000fd5b60006107b882610504565b91506107c383610504565b92508282019050808211156107db576107da61077e565b5b92915050565b600081905092915050565b82818337600083830152505050565b600061080783856107e1565b93506108148385846107ec565b82840190509392505050565b600061082d8284866107fb565b91508190509392505050565b600082825260208201905092915050565b7f556e61626c6520746f2076657269667920796f75722070726f6f662e2020536f60008201527f7272792100000000000000000000000000000000000000000000000000000000602082015250565b60006108a6602483610839565b91506108b18261084a565b604082019050919050565b600060208201905081810360008301526108d581610899565b9050919050565b600081519050919050565b7f4e487b7100000000000000000000000000000000000000000000000000000000600052604160045260246000fd5b7f4e487b7100000000000000000000000000000000000000000000000000000000600052602260045260246000fd5b6000600282049050600182168061095d57607f821691505b6020821081036109705761096f610916565b5b50919050565b60008190508160005260206000209050919050565b60006020601f8301049050919050565b600082821b905092915050565b6000600883026109d87fffffffffffffffffffffffffffffffffffffffffffffffffffffffffffffffff8261099b565b6109e2868361099b565b95508019841693508086168417925050509392505050565b6000819050919050565b6000610a1f610a1a610a1584610504565b6109fa565b610504565b9050919050565b6000819050919050565b610a3983610a04565b610a4d610a4582610a26565b8484546109a8565b825550505050565b600090565b610a62610a55565b610a6d818484610a30565b505050565b5b81811015610a9157610a86600082610a5a565b600181019050610a73565b5050565b601f821115610ad657610aa781610976565b610ab08461098b565b81016020851015610abf578190505b610ad3610acb8561098b565b830182610a72565b50505b505050565b600082821c905092915050565b6000610af960001984600802610adb565b1980831691505092915050565b6000610b128383610ae8565b9150826002028217905092915050565b610b2b826108dc565b67ffffffffffffffff811115610b4457610b436108e7565b5b610b4e8254610945565b610b59828285610a95565b600060209050601f831160018114610b8c5760008415610b7a578287015190505b610b848582610b06565b865550610bec565b601f198416610b9a86610976565b60005b82811015610bc257848901518255600182019150602085019450602081019050610b9d565b86831015610bdf5784890151610bdb601f891682610ae8565b8355505b6001600288020188555050505b505050505050565b7f4e487b7100000000000000000000000000000000000000000000000000000000600052603260045260246000fd5b6000610c2e826106a6565b915060ff8203610c4157610c4061077e565b5b600182019050919050565b6000610c5782610504565b9150610c6283610504565b9250828203905081811115610c7a57610c7961077e565b5b92915050565b6000610c8b82610504565b9150610c9683610504565b9250828202610ca481610504565b91508282048414831517610cbb57610cba61077e565b5b5092915050565b60008160011c9050919050565b6000808291508390505b6001851115610d1957808604811115610cf557610cf461077e565b5b6001851615610d045780820291505b8081029050610d1285610cc2565b9450610cd9565b94509492505050565b600082610d325760019050610dee565b81610d405760009050610dee565b8160018114610d565760028114610d6057610d8f565b6001915050610dee565b60ff841115610d7257610d7161077e565b5b8360020a915084821115610d8957610d8861077e565b5b50610dee565b5060208310610133831016604e8410600b8410161715610dc45782820a905083811115610dbf57610dbe61077e565b5b610dee565b610dd18484846001610ccf565b92509050818404811115610de857610de761077e565b5b81810290505b9392505050565b6000610e0082610504565b9150610e0b83610504565b9250610e387fffffffffffffffffffffffffffffffffffffffffffffffffffffffffffffffff8484610d22565b905092915050565b6000610e4b82610504565b91507fffffffffffffffffffffffffffffffffffffffffffffffffffffffffffffffff8203610e7d57610e7c61077e565b5b60018201905091905056fea26469706673582212206642140a82d0017e269d544c56a4b2d7d588af6dffd971920b397c766ea8edf464736f6c63430008120033","opcodes":"PUSH1 0x80 PUSH1 0x40 MSTORE PUSH1 0x0 PUSH1 0x40 PUSH1 0x0 PUSH2 0x100 EXP DUP2 SLOAD DUP2 PUSH1 0xFF MUL NOT AND SWAP1 DUP4 PUSH1 0xFF AND MUL OR SWAP1 SSTORE POP CALLVALUE DUP1 ISZERO PUSH2 0x2C JUMPI PUSH1 0x0 DUP1 REVERT JUMPDEST POP PUSH1 0x40 MLOAD PUSH3 0xFF5 CODESIZE SUB DUP1 PUSH3 0xFF5 DUP4 CODECOPY DUP2 DUP2 ADD PUSH1 0x40 MSTORE DUP2 ADD SWAP1 PUSH2 0x50 SWAP2 SWAP1 PUSH2 0xFA JUMP JUMPDEST DUP1 PUSH1 0x40 PUSH1 0x1 PUSH2 0x100 EXP DUP2 SLOAD DUP2 PUSH20 0xFFFFFFFFFFFFFFFFFFFFFFFFFFFFFFFFFFFFFFFF MUL NOT AND SWAP1 DUP4 PUSH20 0xFFFFFFFFFFFFFFFFFFFFFFFFFFFFFFFFFFFFFFFF AND MUL OR SWAP1 SSTORE POP POP PUSH2 0x127 JUMP JUMPDEST PUSH1 0x0 DUP1 REVERT JUMPDEST PUSH1 0x0 PUSH20 0xFFFFFFFFFFFFFFFFFFFFFFFFFFFFFFFFFFFFFFFF DUP3 AND SWAP1 POP SWAP2 SWAP1 POP JUMP JUMPDEST PUSH1 0x0 PUSH2 0xC7 DUP3 PUSH2 0x9C JUMP JUMPDEST SWAP1 POP SWAP2 SWAP1 POP JUMP JUMPDEST PUSH2 0xD7 DUP2 PUSH2 0xBC JUMP JUMPDEST DUP2 EQ PUSH2 0xE2 JUMPI PUSH1 0x0 DUP1 REVERT JUMPDEST POP JUMP JUMPDEST PUSH1 0x0 DUP2 MLOAD SWAP1 POP PUSH2 0xF4 DUP2 PUSH2 0xCE JUMP JUMPDEST SWAP3 SWAP2 POP POP JUMP JUMPDEST PUSH1 0x0 PUSH1 0x20 DUP3 DUP5 SUB SLT ISZERO PUSH2 0x110 JUMPI PUSH2 0x10F PUSH2 0x97 JUMP JUMPDEST JUMPDEST PUSH1 0x0 PUSH2 0x11E DUP5 DUP3 DUP6 ADD PUSH2 0xE5 JUMP JUMPDEST SWAP2 POP POP SWAP3 SWAP2 POP POP JUMP JUMPDEST PUSH2 0xEBE DUP1 PUSH3 0x137 PUSH1 0x0 CODECOPY PUSH1 0x0 RETURN INVALID PUSH1 0x80 PUSH1 0x40 MSTORE CALLVALUE DUP1 ISZERO PUSH2 0x10 JUMPI PUSH1 0x0 DUP1 REVERT JUMPDEST POP PUSH1 0x4 CALLDATASIZE LT PUSH2 0x62 JUMPI PUSH1 0x0 CALLDATALOAD PUSH1 0xE0 SHR DUP1 PUSH4 0x49CE8997 EQ PUSH2 0x67 JUMPI DUP1 PUSH4 0x8E760AFE EQ PUSH2 0x97 JUMPI DUP1 PUSH4 0x957BB1E0 EQ PUSH2 0xB3 JUMPI DUP1 PUSH4 0xD5D5F8E1 EQ PUSH2 0xCF JUMPI DUP1 PUSH4 0xD7FAA96A EQ PUSH2 0xED JUMPI DUP1 PUSH4 0xDFBF53AE EQ PUSH2 0x10B JUMPI JUMPDEST PUSH1 0x0 DUP1 REVERT JUMPDEST PUSH2 0x81 PUSH1 0x4 DUP1 CALLDATASIZE SUB DUP2 ADD SWAP1 PUSH2 0x7C SWAP2 SWAP1 PUSH2 0x53A JUMP JUMPDEST PUSH2 0x129 JUMP JUMPDEST PUSH1 0x40 MLOAD PUSH2 0x8E SWAP2 SWAP1 PUSH2 0x580 JUMP JUMPDEST PUSH1 0x40 MLOAD DUP1 SWAP2 SUB SWAP1 RETURN JUMPDEST PUSH2 0xB1 PUSH1 0x4 DUP1 CALLDATASIZE SUB DUP2 ADD SWAP1 PUSH2 0xAC SWAP2 SWAP1 PUSH2 0x600 JUMP JUMPDEST PUSH2 0x144 JUMP JUMPDEST STOP JUMPDEST PUSH2 0xCD PUSH1 0x4 DUP1 CALLDATASIZE SUB DUP2 ADD SWAP1 PUSH2 0xC8 SWAP2 SWAP1 PUSH2 0x679 JUMP JUMPDEST PUSH2 0x39A JUMP JUMPDEST STOP JUMPDEST PUSH2 0xD7 PUSH2 0x424 JUMP JUMPDEST PUSH1 0x40 MLOAD PUSH2 0xE4 SWAP2 SWAP1 PUSH2 0x6C2 JUMP JUMPDEST PUSH1 0x40 MLOAD DUP1 SWAP2 SUB SWAP1 RETURN JUMPDEST PUSH2 0xF5 PUSH2 0x429 JUMP JUMPDEST PUSH1 0x40 MLOAD PUSH2 0x102 SWAP2 SWAP1 PUSH2 0x6C2 JUMP JUMPDEST PUSH1 0x40 MLOAD DUP1 SWAP2 SUB SWAP1 RETURN JUMPDEST PUSH2 0x113 PUSH2 0x43C JUMP JUMPDEST PUSH1 0x40 MLOAD PUSH2 0x120 SWAP2 SWAP1 PUSH2 0x71E JUMP JUMPDEST PUSH1 0x40 MLOAD DUP1 SWAP2 SUB SWAP1 RETURN JUMPDEST PUSH1 0x0 DUP2 PUSH1 0x40 DUP2 LT PUSH2 0x139 JUMPI PUSH1 0x0 DUP1 REVERT JUMPDEST ADD PUSH1 0x0 SWAP2 POP SWAP1 POP SLOAD DUP2 JUMP JUMPDEST PUSH1 0x0 PUSH2 0x1A6 PUSH1 0x0 CALLDATASIZE PUSH1 0x4 SWAP1 PUSH1 0x18 SWAP3 PUSH2 0x15E SWAP4 SWAP3 SWAP2 SWAP1 PUSH2 0x743 JUMP JUMPDEST DUP1 DUP1 PUSH1 0x1F ADD PUSH1 0x20 DUP1 SWAP2 DIV MUL PUSH1 0x20 ADD PUSH1 0x40 MLOAD SWAP1 DUP2 ADD PUSH1 0x40 MSTORE DUP1 SWAP4 SWAP3 SWAP2 SWAP1 DUP2 DUP2 MSTORE PUSH1 0x20 ADD DUP4 DUP4 DUP1 DUP3 DUP5 CALLDATACOPY PUSH1 0x0 DUP2 DUP5 ADD MSTORE PUSH1 0x1F NOT PUSH1 0x1F DUP3 ADD AND SWAP1 POP DUP1 DUP4 ADD SWAP3 POP POP POP POP POP POP POP PUSH2 0x462 JUMP JUMPDEST SWAP1 POP PUSH1 0x0 PUSH2 0x20A PUSH1 0x0 CALLDATASIZE PUSH1 0x18 SWAP1 PUSH1 0x2C SWAP3 PUSH2 0x1C2 SWAP4 SWAP3 SWAP2 SWAP1 PUSH2 0x743 JUMP JUMPDEST DUP1 DUP1 PUSH1 0x1F ADD PUSH1 0x20 DUP1 SWAP2 DIV MUL PUSH1 0x20 ADD PUSH1 0x40 MLOAD SWAP1 DUP2 ADD PUSH1 0x40 MSTORE DUP1 SWAP4 SWAP3 SWAP2 SWAP1 DUP2 DUP2 MSTORE PUSH1 0x20 ADD DUP4 DUP4 DUP1 DUP3 DUP5 CALLDATACOPY PUSH1 0x0 DUP2 DUP5 ADD MSTORE PUSH1 0x1F NOT PUSH1 0x1F DUP3 ADD AND SWAP1 POP DUP1 DUP4 ADD SWAP3 POP POP POP POP POP POP POP PUSH2 0x462 JUMP JUMPDEST SWAP1 POP PUSH1 0x0 DUP1 CALLDATASIZE DUP5 SWAP1 DUP5 DUP7 PUSH2 0x21E SWAP2 SWAP1 PUSH2 0x7AD JUMP JUMPDEST SWAP3 PUSH2 0x22B SWAP4 SWAP3 SWAP2 SWAP1 PUSH2 0x743 JUMP JUMPDEST DUP1 DUP1 PUSH1 0x1F ADD PUSH1 0x20 DUP1 SWAP2 DIV MUL PUSH1 0x20 ADD PUSH1 0x40 MLOAD SWAP1 DUP2 ADD PUSH1 0x40 MSTORE DUP1 SWAP4 SWAP3 SWAP2 SWAP1 DUP2 DUP2 MSTORE PUSH1 0x20 ADD DUP4 DUP4 DUP1 DUP3 DUP5 CALLDATACOPY PUSH1 0x0 DUP2 DUP5 ADD MSTORE PUSH1 0x1F NOT PUSH1 0x1F DUP3 ADD AND SWAP1 POP DUP1 DUP4 ADD SWAP3 POP POP POP POP POP POP POP SWAP1 POP PUSH1 0x0 PUSH1 0x40 PUSH1 0x1 SWAP1 SLOAD SWAP1 PUSH2 0x100 EXP SWAP1 DIV PUSH20 0xFFFFFFFFFFFFFFFFFFFFFFFFFFFFFFFFFFFFFFFF AND PUSH20 0xFFFFFFFFFFFFFFFFFFFFFFFFFFFFFFFFFFFFFFFF AND DUP7 DUP7 PUSH1 0x40 MLOAD PUSH2 0x2BB SWAP3 SWAP2 SWAP1 PUSH2 0x820 JUMP JUMPDEST PUSH1 0x0 PUSH1 0x40 MLOAD DUP1 DUP4 SUB DUP2 PUSH1 0x0 DUP7 GAS CALL SWAP2 POP POP RETURNDATASIZE DUP1 PUSH1 0x0 DUP2 EQ PUSH2 0x2F8 JUMPI PUSH1 0x40 MLOAD SWAP2 POP PUSH1 0x1F NOT PUSH1 0x3F RETURNDATASIZE ADD AND DUP3 ADD PUSH1 0x40 MSTORE RETURNDATASIZE DUP3 MSTORE RETURNDATASIZE PUSH1 0x0 PUSH1 0x20 DUP5 ADD RETURNDATACOPY PUSH2 0x2FD JUMP JUMPDEST PUSH1 0x60 SWAP2 POP JUMPDEST POP POP SWAP1 POP DUP1 PUSH2 0x341 JUMPI PUSH1 0x40 MLOAD PUSH32 0x8C379A000000000000000000000000000000000000000000000000000000000 DUP2 MSTORE PUSH1 0x4 ADD PUSH2 0x338 SWAP1 PUSH2 0x8BC JUMP JUMPDEST PUSH1 0x40 MLOAD DUP1 SWAP2 SUB SWAP1 REVERT JUMPDEST CALLER PUSH1 0x41 PUSH1 0x0 PUSH2 0x100 EXP DUP2 SLOAD DUP2 PUSH20 0xFFFFFFFFFFFFFFFFFFFFFFFFFFFFFFFFFFFFFFFF MUL NOT AND SWAP1 DUP4 PUSH20 0xFFFFFFFFFFFFFFFFFFFFFFFFFFFFFFFFFFFFFFFF AND MUL OR SWAP1 SSTORE POP DUP2 PUSH1 0x42 SWAP1 DUP2 PUSH2 0x391 SWAP2 SWAP1 PUSH2 0xB22 JUMP JUMPDEST POP POP POP POP POP POP POP JUMP JUMPDEST PUSH1 0x40 PUSH1 0xFF AND PUSH1 0x40 PUSH1 0x0 SWAP1 SLOAD SWAP1 PUSH2 0x100 EXP SWAP1 DIV PUSH1 0xFF AND PUSH1 0xFF AND GT ISZERO PUSH2 0x3BD JUMPI PUSH1 0x0 DUP1 REVERT JUMPDEST DUP1 PUSH1 0x0 PUSH1 0x40 PUSH1 0x0 SWAP1 SLOAD SWAP1 PUSH2 0x100 EXP SWAP1 DIV PUSH1 0xFF AND PUSH1 0xFF AND PUSH1 0x40 DUP2 LT PUSH2 0x3E4 JUMPI PUSH2 0x3E3 PUSH2 0xBF4 JUMP JUMPDEST JUMPDEST ADD DUP2 SWAP1 SSTORE POP PUSH1 0x40 PUSH1 0x0 DUP2 DUP2 SWAP1 SLOAD SWAP1 PUSH2 0x100 EXP SWAP1 DIV PUSH1 0xFF AND DUP1 SWAP3 SWAP2 SWAP1 PUSH2 0x408 SWAP1 PUSH2 0xC23 JUMP JUMPDEST SWAP2 SWAP1 PUSH2 0x100 EXP DUP2 SLOAD DUP2 PUSH1 0xFF MUL NOT AND SWAP1 DUP4 PUSH1 0xFF AND MUL OR SWAP1 SSTORE POP POP POP JUMP JUMPDEST PUSH1 0x40 DUP2 JUMP JUMPDEST PUSH1 0x40 PUSH1 0x0 SWAP1 SLOAD SWAP1 PUSH2 0x100 EXP SWAP1 DIV PUSH1 0xFF AND DUP2 JUMP JUMPDEST PUSH1 0x41 PUSH1 0x0 SWAP1 SLOAD SWAP1 PUSH2 0x100 EXP SWAP1 DIV PUSH20 0xFFFFFFFFFFFFFFFFFFFFFFFFFFFFFFFFFFFFFFFF AND DUP2 JUMP JUMPDEST PUSH1 0x0 DUP1 PUSH1 0x0 JUMPDEST DUP4 MLOAD DUP2 LT ISZERO PUSH2 0x4F0 JUMPI PUSH1 0x1 DUP2 PUSH2 0x47E SWAP2 SWAP1 PUSH2 0x7AD JUMP JUMPDEST DUP5 MLOAD PUSH2 0x48A SWAP2 SWAP1 PUSH2 0xC4C JUMP JUMPDEST PUSH1 0x8 PUSH2 0x496 SWAP2 SWAP1 PUSH2 0xC80 JUMP JUMPDEST PUSH1 0x2 PUSH2 0x4A2 SWAP2 SWAP1 PUSH2 0xDF5 JUMP JUMPDEST DUP5 DUP3 DUP2 MLOAD DUP2 LT PUSH2 0x4B5 JUMPI PUSH2 0x4B4 PUSH2 0xBF4 JUMP JUMPDEST JUMPDEST PUSH1 0x20 ADD ADD MLOAD PUSH1 0xF8 SHR PUSH1 0xF8 SHL PUSH1 0xF8 SHR PUSH1 0xFF AND PUSH2 0x4D0 SWAP2 SWAP1 PUSH2 0xC80 JUMP JUMPDEST DUP3 PUSH2 0x4DB SWAP2 SWAP1 PUSH2 0x7AD JUMP JUMPDEST SWAP2 POP DUP1 DUP1 PUSH2 0x4E8 SWAP1 PUSH2 0xE40 JUMP JUMPDEST SWAP2 POP POP PUSH2 0x468 JUMP JUMPDEST POP DUP1 SWAP2 POP POP SWAP2 SWAP1 POP JUMP JUMPDEST PUSH1 0x0 DUP1 REVERT JUMPDEST PUSH1 0x0 DUP1 REVERT JUMPDEST PUSH1 0x0 DUP2 SWAP1 POP SWAP2 SWAP1 POP JUMP JUMPDEST PUSH2 0x517 DUP2 PUSH2 0x504 JUMP JUMPDEST DUP2 EQ PUSH2 0x522 JUMPI PUSH1 0x0 DUP1 REVERT JUMPDEST POP JUMP JUMPDEST PUSH1 0x0 DUP2 CALLDATALOAD SWAP1 POP PUSH2 0x534 DUP2 PUSH2 0x50E JUMP JUMPDEST SWAP3 SWAP2 POP POP JUMP JUMPDEST PUSH1 0x0 PUSH1 0x20 DUP3 DUP5 SUB SLT ISZERO PUSH2 0x550 JUMPI PUSH2 0x54F PUSH2 0x4FA JUMP JUMPDEST JUMPDEST PUSH1 0x0 PUSH2 0x55E DUP5 DUP3 DUP6 ADD PUSH2 0x525 JUMP JUMPDEST SWAP2 POP POP SWAP3 SWAP2 POP POP JUMP JUMPDEST PUSH1 0x0 DUP2 SWAP1 POP SWAP2 SWAP1 POP JUMP JUMPDEST PUSH2 0x57A DUP2 PUSH2 0x567 JUMP JUMPDEST DUP3 MSTORE POP POP JUMP JUMPDEST PUSH1 0x0 PUSH1 0x20 DUP3 ADD SWAP1 POP PUSH2 0x595 PUSH1 0x0 DUP4 ADD DUP5 PUSH2 0x571 JUMP JUMPDEST SWAP3 SWAP2 POP POP JUMP JUMPDEST PUSH1 0x0 DUP1 REVERT JUMPDEST PUSH1 0x0 DUP1 REVERT JUMPDEST PUSH1 0x0 DUP1 REVERT JUMPDEST PUSH1 0x0 DUP1 DUP4 PUSH1 0x1F DUP5 ADD SLT PUSH2 0x5C0 JUMPI PUSH2 0x5BF PUSH2 0x59B JUMP JUMPDEST JUMPDEST DUP3 CALLDATALOAD SWAP1 POP PUSH8 0xFFFFFFFFFFFFFFFF DUP2 GT ISZERO PUSH2 0x5DD JUMPI PUSH2 0x5DC PUSH2 0x5A0 JUMP JUMPDEST JUMPDEST PUSH1 0x20 DUP4 ADD SWAP2 POP DUP4 PUSH1 0x1 DUP3 MUL DUP4 ADD GT ISZERO PUSH2 0x5F9 JUMPI PUSH2 0x5F8 PUSH2 0x5A5 JUMP JUMPDEST JUMPDEST SWAP3 POP SWAP3 SWAP1 POP JUMP JUMPDEST PUSH1 0x0 DUP1 PUSH1 0x20 DUP4 DUP6 SUB SLT ISZERO PUSH2 0x617 JUMPI PUSH2 0x616 PUSH2 0x4FA JUMP JUMPDEST JUMPDEST PUSH1 0x0 DUP4 ADD CALLDATALOAD PUSH8 0xFFFFFFFFFFFFFFFF DUP2 GT ISZERO PUSH2 0x635 JUMPI PUSH2 0x634 PUSH2 0x4FF JUMP JUMPDEST JUMPDEST PUSH2 0x641 DUP6 DUP3 DUP7 ADD PUSH2 0x5AA JUMP JUMPDEST SWAP3 POP SWAP3 POP POP SWAP3 POP SWAP3 SWAP1 POP JUMP JUMPDEST PUSH2 0x656 DUP2 PUSH2 0x567 JUMP JUMPDEST DUP2 EQ PUSH2 0x661 JUMPI PUSH1 0x0 DUP1 REVERT JUMPDEST POP JUMP JUMPDEST PUSH1 0x0 DUP2 CALLDATALOAD SWAP1 POP PUSH2 0x673 DUP2 PUSH2 0x64D JUMP JUMPDEST SWAP3 SWAP2 POP POP JUMP JUMPDEST PUSH1 0x0 PUSH1 0x20 DUP3 DUP5 SUB SLT ISZERO PUSH2 0x68F JUMPI PUSH2 0x68E PUSH2 0x4FA JUMP JUMPDEST JUMPDEST PUSH1 0x0 PUSH2 0x69D DUP5 DUP3 DUP6 ADD PUSH2 0x664 JUMP JUMPDEST SWAP2 POP POP SWAP3 SWAP2 POP POP JUMP JUMPDEST PUSH1 0x0 PUSH1 0xFF DUP3 AND SWAP1 POP SWAP2 SWAP1 POP JUMP JUMPDEST PUSH2 0x6BC DUP2 PUSH2 0x6A6 JUMP JUMPDEST DUP3 MSTORE POP POP JUMP JUMPDEST PUSH1 0x0 PUSH1 0x20 DUP3 ADD SWAP1 POP PUSH2 0x6D7 PUSH1 0x0 DUP4 ADD DUP5 PUSH2 0x6B3 JUMP JUMPDEST SWAP3 SWAP2 POP POP JUMP JUMPDEST PUSH1 0x0 PUSH20 0xFFFFFFFFFFFFFFFFFFFFFFFFFFFFFFFFFFFFFFFF DUP3 AND SWAP1 POP SWAP2 SWAP1 POP JUMP JUMPDEST PUSH1 0x0 PUSH2 0x708 DUP3 PUSH2 0x6DD JUMP JUMPDEST SWAP1 POP SWAP2 SWAP1 POP JUMP JUMPDEST PUSH2 0x718 DUP2 PUSH2 0x6FD JUMP JUMPDEST DUP3 MSTORE POP POP JUMP JUMPDEST PUSH1 0x0 PUSH1 0x20 DUP3 ADD SWAP1 POP PUSH2 0x733 PUSH1 0x0 DUP4 ADD DUP5 PUSH2 0x70F JUMP JUMPDEST SWAP3 SWAP2 POP POP JUMP JUMPDEST PUSH1 0x0 DUP1 REVERT JUMPDEST PUSH1 0x0 DUP1 REVERT JUMPDEST PUSH1 0x0 DUP1 DUP6 DUP6 GT ISZERO PUSH2 0x757 JUMPI PUSH2 0x756 PUSH2 0x739 JUMP JUMPDEST JUMPDEST DUP4 DUP7 GT ISZERO PUSH2 0x768 JUMPI PUSH2 0x767 PUSH2 0x73E JUMP JUMPDEST JUMPDEST PUSH1 0x1 DUP6 MUL DUP4 ADD SWAP2 POP DUP5 DUP7 SUB SWAP1 POP SWAP5 POP SWAP5 SWAP3 POP POP POP JUMP JUMPDEST PUSH32 0x4E487B7100000000000000000000000000000000000000000000000000000000 PUSH1 0x0 MSTORE PUSH1 0x11 PUSH1 0x4 MSTORE PUSH1 0x24 PUSH1 0x0 REVERT JUMPDEST PUSH1 0x0 PUSH2 0x7B8 DUP3 PUSH2 0x504 JUMP JUMPDEST SWAP2 POP PUSH2 0x7C3 DUP4 PUSH2 0x504 JUMP JUMPDEST SWAP3 POP DUP3 DUP3 ADD SWAP1 POP DUP1 DUP3 GT ISZERO PUSH2 0x7DB JUMPI PUSH2 0x7DA PUSH2 0x77E JUMP JUMPDEST JUMPDEST SWAP3 SWAP2 POP POP JUMP JUMPDEST PUSH1 0x0 DUP2 SWAP1 POP SWAP3 SWAP2 POP POP JUMP JUMPDEST DUP3 DUP2 DUP4 CALLDATACOPY PUSH1 0x0 DUP4 DUP4 ADD MSTORE POP POP POP JUMP JUMPDEST PUSH1 0x0 PUSH2 0x807 DUP4 DUP6 PUSH2 0x7E1 JUMP JUMPDEST SWAP4 POP PUSH2 0x814 DUP4 DUP6 DUP5 PUSH2 0x7EC JUMP JUMPDEST DUP3 DUP5 ADD SWAP1 POP SWAP4 SWAP3 POP POP POP JUMP JUMPDEST PUSH1 0x0 PUSH2 0x82D DUP3 DUP5 DUP7 PUSH2 0x7FB JUMP JUMPDEST SWAP2 POP DUP2 SWAP1 POP SWAP4 SWAP3 POP POP POP JUMP JUMPDEST PUSH1 0x0 DUP3 DUP3 MSTORE PUSH1 0x20 DUP3 ADD SWAP1 POP SWAP3 SWAP2 POP POP JUMP JUMPDEST PUSH32 0x556E61626C6520746F2076657269667920796F75722070726F6F662E2020536F PUSH1 0x0 DUP3 ADD MSTORE PUSH32 0x7272792100000000000000000000000000000000000000000000000000000000 PUSH1 0x20 DUP3 ADD MSTORE POP JUMP JUMPDEST PUSH1 0x0 PUSH2 0x8A6 PUSH1 0x24 DUP4 PUSH2 0x839 JUMP JUMPDEST SWAP2 POP PUSH2 0x8B1 DUP3 PUSH2 0x84A JUMP JUMPDEST PUSH1 0x40 DUP3 ADD SWAP1 POP SWAP2 SWAP1 POP JUMP JUMPDEST PUSH1 0x0 PUSH1 0x20 DUP3 ADD SWAP1 POP DUP2 DUP2 SUB PUSH1 0x0 DUP4 ADD MSTORE PUSH2 0x8D5 DUP2 PUSH2 0x899 JUMP JUMPDEST SWAP1 POP SWAP2 SWAP1 POP JUMP JUMPDEST PUSH1 0x0 DUP2 MLOAD SWAP1 POP SWAP2 SWAP1 POP JUMP JUMPDEST PUSH32 0x4E487B7100000000000000000000000000000000000000000000000000000000 PUSH1 0x0 MSTORE PUSH1 0x41 PUSH1 0x4 MSTORE PUSH1 0x24 PUSH1 0x0 REVERT JUMPDEST PUSH32 0x4E487B7100000000000000000000000000000000000000000000000000000000 PUSH1 0x0 MSTORE PUSH1 0x22 PUSH1 0x4 MSTORE PUSH1 0x24 PUSH1 0x0 REVERT JUMPDEST PUSH1 0x0 PUSH1 0x2 DUP3 DIV SWAP1 POP PUSH1 0x1 DUP3 AND DUP1 PUSH2 0x95D JUMPI PUSH1 0x7F DUP3 AND SWAP2 POP JUMPDEST PUSH1 0x20 DUP3 LT DUP2 SUB PUSH2 0x970 JUMPI PUSH2 0x96F PUSH2 0x916 JUMP JUMPDEST JUMPDEST POP SWAP2 SWAP1 POP JUMP JUMPDEST PUSH1 0x0 DUP2 SWAP1 POP DUP2 PUSH1 0x0 MSTORE PUSH1 0x20 PUSH1 0x0 KECCAK256 SWAP1 POP SWAP2 SWAP1 POP JUMP JUMPDEST PUSH1 0x0 PUSH1 0x20 PUSH1 0x1F DUP4 ADD DIV SWAP1 POP SWAP2 SWAP1 POP JUMP JUMPDEST PUSH1 0x0 DUP3 DUP3 SHL SWAP1 POP SWAP3 SWAP2 POP POP JUMP JUMPDEST PUSH1 0x0 PUSH1 0x8 DUP4 MUL PUSH2 0x9D8 PUSH32 0xFFFFFFFFFFFFFFFFFFFFFFFFFFFFFFFFFFFFFFFFFFFFFFFFFFFFFFFFFFFFFFFF DUP3 PUSH2 0x99B JUMP JUMPDEST PUSH2 0x9E2 DUP7 DUP4 PUSH2 0x99B JUMP JUMPDEST SWAP6 POP DUP1 NOT DUP5 AND SWAP4 POP DUP1 DUP7 AND DUP5 OR SWAP3 POP POP POP SWAP4 SWAP3 POP POP POP JUMP JUMPDEST PUSH1 0x0 DUP2 SWAP1 POP SWAP2 SWAP1 POP JUMP JUMPDEST PUSH1 0x0 PUSH2 0xA1F PUSH2 0xA1A PUSH2 0xA15 DUP5 PUSH2 0x504 JUMP JUMPDEST PUSH2 0x9FA JUMP JUMPDEST PUSH2 0x504 JUMP JUMPDEST SWAP1 POP SWAP2 SWAP1 POP JUMP JUMPDEST PUSH1 0x0 DUP2 SWAP1 POP SWAP2 SWAP1 POP JUMP JUMPDEST PUSH2 0xA39 DUP4 PUSH2 0xA04 JUMP JUMPDEST PUSH2 0xA4D PUSH2 0xA45 DUP3 PUSH2 0xA26 JUMP JUMPDEST DUP5 DUP5 SLOAD PUSH2 0x9A8 JUMP JUMPDEST DUP3 SSTORE POP POP POP POP JUMP JUMPDEST PUSH1 0x0 SWAP1 JUMP JUMPDEST PUSH2 0xA62 PUSH2 0xA55 JUMP JUMPDEST PUSH2 0xA6D DUP2 DUP5 DUP5 PUSH2 0xA30 JUMP JUMPDEST POP POP POP JUMP JUMPDEST JUMPDEST DUP2 DUP2 LT ISZERO PUSH2 0xA91 JUMPI PUSH2 0xA86 PUSH1 0x0 DUP3 PUSH2 0xA5A JUMP JUMPDEST PUSH1 0x1 DUP2 ADD SWAP1 POP PUSH2 0xA73 JUMP JUMPDEST POP POP JUMP JUMPDEST PUSH1 0x1F DUP3 GT ISZERO PUSH2 0xAD6 JUMPI PUSH2 0xAA7 DUP2 PUSH2 0x976 JUMP JUMPDEST PUSH2 0xAB0 DUP5 PUSH2 0x98B JUMP JUMPDEST DUP2 ADD PUSH1 0x20 DUP6 LT ISZERO PUSH2 0xABF JUMPI DUP2 SWAP1 POP JUMPDEST PUSH2 0xAD3 PUSH2 0xACB DUP6 PUSH2 0x98B JUMP JUMPDEST DUP4 ADD DUP3 PUSH2 0xA72 JUMP JUMPDEST POP POP JUMPDEST POP POP POP JUMP JUMPDEST PUSH1 0x0 DUP3 DUP3 SHR SWAP1 POP SWAP3 SWAP2 POP POP JUMP JUMPDEST PUSH1 0x0 PUSH2 0xAF9 PUSH1 0x0 NOT DUP5 PUSH1 0x8 MUL PUSH2 0xADB JUMP JUMPDEST NOT DUP1 DUP4 AND SWAP2 POP POP SWAP3 SWAP2 POP POP JUMP JUMPDEST PUSH1 0x0 PUSH2 0xB12 DUP4 DUP4 PUSH2 0xAE8 JUMP JUMPDEST SWAP2 POP DUP3 PUSH1 0x2 MUL DUP3 OR SWAP1 POP SWAP3 SWAP2 POP POP JUMP JUMPDEST PUSH2 0xB2B DUP3 PUSH2 0x8DC JUMP JUMPDEST PUSH8 0xFFFFFFFFFFFFFFFF DUP2 GT ISZERO PUSH2 0xB44 JUMPI PUSH2 0xB43 PUSH2 0x8E7 JUMP JUMPDEST JUMPDEST PUSH2 0xB4E DUP3 SLOAD PUSH2 0x945 JUMP JUMPDEST PUSH2 0xB59 DUP3 DUP3 DUP6 PUSH2 0xA95 JUMP JUMPDEST PUSH1 0x0 PUSH1 0x20 SWAP1 POP PUSH1 0x1F DUP4 GT PUSH1 0x1 DUP2 EQ PUSH2 0xB8C JUMPI PUSH1 0x0 DUP5 ISZERO PUSH2 0xB7A JUMPI DUP3 DUP8 ADD MLOAD SWAP1 POP JUMPDEST PUSH2 0xB84 DUP6 DUP3 PUSH2 0xB06 JUMP JUMPDEST DUP7 SSTORE POP PUSH2 0xBEC JUMP JUMPDEST PUSH1 0x1F NOT DUP5 AND PUSH2 0xB9A DUP7 PUSH2 0x976 JUMP JUMPDEST PUSH1 0x0 JUMPDEST DUP3 DUP2 LT ISZERO PUSH2 0xBC2 JUMPI DUP5 DUP10 ADD MLOAD DUP3 SSTORE PUSH1 0x1 DUP3 ADD SWAP2 POP PUSH1 0x20 DUP6 ADD SWAP5 POP PUSH1 0x20 DUP2 ADD SWAP1 POP PUSH2 0xB9D JUMP JUMPDEST DUP7 DUP4 LT ISZERO PUSH2 0xBDF JUMPI DUP5 DUP10 ADD MLOAD PUSH2 0xBDB PUSH1 0x1F DUP10 AND DUP3 PUSH2 0xAE8 JUMP JUMPDEST DUP4 SSTORE POP JUMPDEST PUSH1 0x1 PUSH1 0x2 DUP9 MUL ADD DUP9 SSTORE POP POP POP JUMPDEST POP POP POP POP POP POP JUMP JUMPDEST PUSH32 0x4E487B7100000000000000000000000000000000000000000000000000000000 PUSH1 0x0 MSTORE PUSH1 0x32 PUSH1 0x4 MSTORE PUSH1 0x24 PUSH1 0x0 REVERT JUMPDEST PUSH1 0x0 PUSH2 0xC2E DUP3 PUSH2 0x6A6 JUMP JUMPDEST SWAP2 POP PUSH1 0xFF DUP3 SUB PUSH2 0xC41 JUMPI PUSH2 0xC40 PUSH2 0x77E JUMP JUMPDEST JUMPDEST PUSH1 0x1 DUP3 ADD SWAP1 POP SWAP2 SWAP1 POP JUMP JUMPDEST PUSH1 0x0 PUSH2 0xC57 DUP3 PUSH2 0x504 JUMP JUMPDEST SWAP2 POP PUSH2 0xC62 DUP4 PUSH2 0x504 JUMP JUMPDEST SWAP3 POP DUP3 DUP3 SUB SWAP1 POP DUP2 DUP2 GT ISZERO PUSH2 0xC7A JUMPI PUSH2 0xC79 PUSH2 0x77E JUMP JUMPDEST JUMPDEST SWAP3 SWAP2 POP POP JUMP JUMPDEST PUSH1 0x0 PUSH2 0xC8B DUP3 PUSH2 0x504 JUMP JUMPDEST SWAP2 POP PUSH2 0xC96 DUP4 PUSH2 0x504 JUMP JUMPDEST SWAP3 POP DUP3 DUP3 MUL PUSH2 0xCA4 DUP2 PUSH2 0x504 JUMP JUMPDEST SWAP2 POP DUP3 DUP3 DIV DUP5 EQ DUP4 ISZERO OR PUSH2 0xCBB JUMPI PUSH2 0xCBA PUSH2 0x77E JUMP JUMPDEST JUMPDEST POP SWAP3 SWAP2 POP POP JUMP JUMPDEST PUSH1 0x0 DUP2 PUSH1 0x1 SHR SWAP1 POP SWAP2 SWAP1 POP JUMP JUMPDEST PUSH1 0x0 DUP1 DUP3 SWAP2 POP DUP4 SWAP1 POP JUMPDEST PUSH1 0x1 DUP6 GT ISZERO PUSH2 0xD19 JUMPI DUP1 DUP7 DIV DUP2 GT ISZERO PUSH2 0xCF5 JUMPI PUSH2 0xCF4 PUSH2 0x77E JUMP JUMPDEST JUMPDEST PUSH1 0x1 DUP6 AND ISZERO PUSH2 0xD04 JUMPI DUP1 DUP3 MUL SWAP2 POP JUMPDEST DUP1 DUP2 MUL SWAP1 POP PUSH2 0xD12 DUP6 PUSH2 0xCC2 JUMP JUMPDEST SWAP5 POP PUSH2 0xCD9 JUMP JUMPDEST SWAP5 POP SWAP5 SWAP3 POP POP POP JUMP JUMPDEST PUSH1 0x0 DUP3 PUSH2 0xD32 JUMPI PUSH1 0x1 SWAP1 POP PUSH2 0xDEE JUMP JUMPDEST DUP2 PUSH2 0xD40 JUMPI PUSH1 0x0 SWAP1 POP PUSH2 0xDEE JUMP JUMPDEST DUP2 PUSH1 0x1 DUP2 EQ PUSH2 0xD56 JUMPI PUSH1 0x2 DUP2 EQ PUSH2 0xD60 JUMPI PUSH2 0xD8F JUMP JUMPDEST PUSH1 0x1 SWAP2 POP POP PUSH2 0xDEE JUMP JUMPDEST PUSH1 0xFF DUP5 GT ISZERO PUSH2 0xD72 JUMPI PUSH2 0xD71 PUSH2 0x77E JUMP JUMPDEST JUMPDEST DUP4 PUSH1 0x2 EXP SWAP2 POP DUP5 DUP3 GT ISZERO PUSH2 0xD89 JUMPI PUSH2 0xD88 PUSH2 0x77E JUMP JUMPDEST JUMPDEST POP PUSH2 0xDEE JUMP JUMPDEST POP PUSH1 0x20 DUP4 LT PUSH2 0x133 DUP4 LT AND PUSH1 0x4E DUP5 LT PUSH1 0xB DUP5 LT AND OR ISZERO PUSH2 0xDC4 JUMPI DUP3 DUP3 EXP SWAP1 POP DUP4 DUP2 GT ISZERO PUSH2 0xDBF JUMPI PUSH2 0xDBE PUSH2 0x77E JUMP JUMPDEST JUMPDEST PUSH2 0xDEE JUMP JUMPDEST PUSH2 0xDD1 DUP5 DUP5 DUP5 PUSH1 0x1 PUSH2 0xCCF JUMP JUMPDEST SWAP3 POP SWAP1 POP DUP2 DUP5 DIV DUP2 GT ISZERO PUSH2 0xDE8 JUMPI PUSH2 0xDE7 PUSH2 0x77E JUMP JUMPDEST JUMPDEST DUP2 DUP2 MUL SWAP1 POP JUMPDEST SWAP4 SWAP3 POP POP POP JUMP JUMPDEST PUSH1 0x0 PUSH2 0xE00 DUP3 PUSH2 0x504 JUMP JUMPDEST SWAP2 POP PUSH2 0xE0B DUP4 PUSH2 0x504 JUMP JUMPDEST SWAP3 POP PUSH2 0xE38 PUSH32 0xFFFFFFFFFFFFFFFFFFFFFFFFFFFFFFFFFFFFFFFFFFFFFFFFFFFFFFFFFFFFFFFF DUP5 DUP5 PUSH2 0xD22 JUMP JUMPDEST SWAP1 POP SWAP3 SWAP2 POP POP JUMP JUMPDEST PUSH1 0x0 PUSH2 0xE4B DUP3 PUSH2 0x504 JUMP JUMPDEST SWAP2 POP PUSH32 0xFFFFFFFFFFFFFFFFFFFFFFFFFFFFFFFFFFFFFFFFFFFFFFFFFFFFFFFFFFFFFFFF DUP3 SUB PUSH2 0xE7D JUMPI PUSH2 0xE7C PUSH2 0x77E JUMP JUMPDEST JUMPDEST PUSH1 0x1 DUP3 ADD SWAP1 POP SWAP2 SWAP1 POP JUMP INVALID LOG2 PUSH5 0x6970667358 0x22 SLT KECCAK256 PUSH7 0x42140A82D0017E 0x26 SWAP14 SLOAD 0x4C JUMP LOG4 0xB2 0xD7 0xD5 DUP9 0xAF PUSH14 0xFFD971920B397C766EA8EDF46473 PUSH16 0x6C634300081200330000000000000000 "},"methodIdentifiers":{"MAX_BIDS()":"d5d5f8e1","bid(bytes32)":"957bb1e0","commitments(uint256)":"49ce8997","num_bids()":"d7faa96a","verify(bytes)":"8e760afe","winner()":"dfbf53ae"}}}}}