{
  "_format": "hh-sol-artifact-1",
  "contractName": "Auction",
  "sourceName": "contracts/Auction.sol",
  "abi": [
    {
      "inputs": [
        {
          "internalType": "address",
          "name": "verifier_contract_address",
          "type": "address"
        }
      ],
      "stateMutability": "nonpayable",
      "type": "constructor"
    },
    {
      "inputs": [],
      "name": "MAX_BIDS",
      "outputs": [
        {
          "internalType": "uint8",
          "name": "",
          "type": "uint8"
        }
      ],
      "stateMutability": "view",
      "type": "function"
    },
    {
      "inputs": [
        {
          "internalType": "bytes32",
          "name": "commitment",
          "type": "bytes32"
        }
      ],
      "name": "bid",
      "outputs": [],
      "stateMutability": "nonpayable",
      "type": "function"
    },
    {
      "inputs": [
        {
          "internalType": "uint256",
          "name": "",
          "type": "uint256"
        }
      ],
      "name": "commitments",
      "outputs": [
        {
          "internalType": "bytes32",
          "name": "",
          "type": "bytes32"
        }
      ],
      "stateMutability": "view",
      "type": "function"
    },
    {
      "inputs": [],
      "name": "num_bids",
      "outputs": [
        {
          "internalType": "uint8",
          "name": "",
          "type": "uint8"
        }
      ],
      "stateMutability": "view",
      "type": "function"
    },
    {
      "inputs": [
        {
          "internalType": "bytes",
          "name": "data",
          "type": "bytes"
        }
      ],
      "name": "verify",
      "outputs": [],
      "stateMutability": "nonpayable",
      "type": "function"
    },
    {
      "inputs": [],
      "name": "winner",
      "outputs": [
        {
          "internalType": "address",
          "name": "",
          "type": "address"
        }
      ],
      "stateMutability": "view",
      "type": "function"
    }
  ],
  "bytecode": "0x60806040526000604060006101000a81548160ff021916908360ff16021790555034801561002c57600080fd5b5060405162000ff538038062000ff5833981810160405281019061005091906100fa565b80604060016101000a81548173ffffffffffffffffffffffffffffffffffffffff021916908373ffffffffffffffffffffffffffffffffffffffff16021790555050610127565b600080fd5b600073ffffffffffffffffffffffffffffffffffffffff82169050919050565b60006100c78261009c565b9050919050565b6100d7816100bc565b81146100e257600080fd5b50565b6000815190506100f4816100ce565b92915050565b6000602082840312156101105761010f610097565b5b600061011e848285016100e5565b91505092915050565b610ebe80620001376000396000f3fe608060405234801561001057600080fd5b50600436106100625760003560e01c806349ce8997146100675780638e760afe14610097578063957bb1e0146100b3578063d5d5f8e1146100cf578063d7faa96a146100ed578063dfbf53ae1461010b575b600080fd5b610081600480360381019061007c919061053a565b610129565b60405161008e9190610580565b60405180910390f35b6100b160048036038101906100ac9190610600565b610144565b005b6100cd60048036038101906100c89190610679565b61039a565b005b6100d7610424565b6040516100e491906106c2565b60405180910390f35b6100f5610429565b60405161010291906106c2565b60405180910390f35b61011361043c565b604051610120919061071e565b60405180910390f35b6000816040811061013957600080fd5b016000915090505481565b60006101a660003660049060189261015e93929190610743565b8080601f016020809104026020016040519081016040528093929190818152602001838380828437600081840152601f19601f82011690508083019250505050505050610462565b9050600061020a600036601890602c926101c293929190610743565b8080601f016020809104026020016040519081016040528093929190818152602001838380828437600081840152601f19601f82011690508083019250505050505050610462565b9050600080368490848661021e91906107ad565b9261022b93929190610743565b8080601f016020809104026020016040519081016040528093929190818152602001838380828437600081840152601f19601f8201169050808301925050505050505090506000604060019054906101000a900473ffffffffffffffffffffffffffffffffffffffff1673ffffffffffffffffffffffffffffffffffffffff1686866040516102bb929190610820565b6000604051808303816000865af19150503d80600081146102f8576040519150601f19603f3d011682016040523d82523d6000602084013e6102fd565b606091505b5050905080610341576040517f08c379a0000000000000000000000000000000000000000000000000000000008152600401610338906108bc565b60405180910390fd5b33604160006101000a81548173ffffffffffffffffffffffffffffffffffffffff021916908373ffffffffffffffffffffffffffffffffffffffff16021790555081604290816103919190610b22565b50505050505050565b604060ff16604060009054906101000a900460ff1660ff1611156103bd57600080fd5b806000604060009054906101000a900460ff1660ff16604081106103e4576103e3610bf4565b5b01819055506040600081819054906101000a900460ff168092919061040890610c23565b91906101000a81548160ff021916908360ff1602179055505050565b604081565b604060009054906101000a900460ff1681565b604160009054906101000a900473ffffffffffffffffffffffffffffffffffffffff1681565b60008060005b83518110156104f05760018161047e91906107ad565b845161048a9190610c4c565b60086104969190610c80565b60026104a29190610df5565b8482815181106104b5576104b4610bf4565b5b602001015160f81c60f81b60f81c60ff166104d09190610c80565b826104db91906107ad565b915080806104e890610e40565b915050610468565b5080915050919050565b600080fd5b600080fd5b6000819050919050565b61051781610504565b811461052257600080fd5b50565b6000813590506105348161050e565b92915050565b6000602082840312156105505761054f6104fa565b5b600061055e84828501610525565b91505092915050565b6000819050919050565b61057a81610567565b82525050565b60006020820190506105956000830184610571565b92915050565b600080fd5b600080fd5b600080fd5b60008083601f8401126105c0576105bf61059b565b5b8235905067ffffffffffffffff8111156105dd576105dc6105a0565b5b6020830191508360018202830111156105f9576105f86105a5565b5b9250929050565b60008060208385031215610617576106166104fa565b5b600083013567ffffffffffffffff811115610635576106346104ff565b5b610641858286016105aa565b92509250509250929050565b61065681610567565b811461066157600080fd5b50565b6000813590506106738161064d565b92915050565b60006020828403121561068f5761068e6104fa565b5b600061069d84828501610664565b91505092915050565b600060ff82169050919050565b6106bc816106a6565b82525050565b60006020820190506106d760008301846106b3565b92915050565b600073ffffffffffffffffffffffffffffffffffffffff82169050919050565b6000610708826106dd565b9050919050565b610718816106fd565b82525050565b6000602082019050610733600083018461070f565b92915050565b600080fd5b600080fd5b6000808585111561075757610756610739565b5b838611156107685761076761073e565b5b6001850283019150848603905094509492505050565b7f4e487b7100000000000000000000000000000000000000000000000000000000600052601160045260246000fd5b60006107b882610504565b91506107c383610504565b92508282019050808211156107db576107da61077e565b5b92915050565b600081905092915050565b82818337600083830152505050565b600061080783856107e1565b93506108148385846107ec565b82840190509392505050565b600061082d8284866107fb565b91508190509392505050565b600082825260208201905092915050565b7f556e61626c6520746f2076657269667920796f75722070726f6f662e2020536f60008201527f7272792100000000000000000000000000000000000000000000000000000000602082015250565b60006108a6602483610839565b91506108b18261084a565b604082019050919050565b600060208201905081810360008301526108d581610899565b9050919050565b600081519050919050565b7f4e487b7100000000000000000000000000000000000000000000000000000000600052604160045260246000fd5b7f4e487b7100000000000000000000000000000000000000000000000000000000600052602260045260246000fd5b6000600282049050600182168061095d57607f821691505b6020821081036109705761096f610916565b5b50919050565b60008190508160005260206000209050919050565b60006020601f8301049050919050565b600082821b905092915050565b6000600883026109d87fffffffffffffffffffffffffffffffffffffffffffffffffffffffffffffffff8261099b565b6109e2868361099b565b95508019841693508086168417925050509392505050565b6000819050919050565b6000610a1f610a1a610a1584610504565b6109fa565b610504565b9050919050565b6000819050919050565b610a3983610a04565b610a4d610a4582610a26565b8484546109a8565b825550505050565b600090565b610a62610a55565b610a6d818484610a30565b505050565b5b81811015610a9157610a86600082610a5a565b600181019050610a73565b5050565b601f821115610ad657610aa781610976565b610ab08461098b565b81016020851015610abf578190505b610ad3610acb8561098b565b830182610a72565b50505b505050565b600082821c905092915050565b6000610af960001984600802610adb565b1980831691505092915050565b6000610b128383610ae8565b9150826002028217905092915050565b610b2b826108dc565b67ffffffffffffffff811115610b4457610b436108e7565b5b610b4e8254610945565b610b59828285610a95565b600060209050601f831160018114610b8c5760008415610b7a578287015190505b610b848582610b06565b865550610bec565b601f198416610b9a86610976565b60005b82811015610bc257848901518255600182019150602085019450602081019050610b9d565b86831015610bdf5784890151610bdb601f891682610ae8565b8355505b6001600288020188555050505b505050505050565b7f4e487b7100000000000000000000000000000000000000000000000000000000600052603260045260246000fd5b6000610c2e826106a6565b915060ff8203610c4157610c4061077e565b5b600182019050919050565b6000610c5782610504565b9150610c6283610504565b9250828203905081811115610c7a57610c7961077e565b5b92915050565b6000610c8b82610504565b9150610c9683610504565b9250828202610ca481610504565b91508282048414831517610cbb57610cba61077e565b5b5092915050565b60008160011c9050919050565b6000808291508390505b6001851115610d1957808604811115610cf557610cf461077e565b5b6001851615610d045780820291505b8081029050610d1285610cc2565b9450610cd9565b94509492505050565b600082610d325760019050610dee565b81610d405760009050610dee565b8160018114610d565760028114610d6057610d8f565b6001915050610dee565b60ff841115610d7257610d7161077e565b5b8360020a915084821115610d8957610d8861077e565b5b50610dee565b5060208310610133831016604e8410600b8410161715610dc45782820a905083811115610dbf57610dbe61077e565b5b610dee565b610dd18484846001610ccf565b92509050818404811115610de857610de761077e565b5b81810290505b9392505050565b6000610e0082610504565b9150610e0b83610504565b9250610e387fffffffffffffffffffffffffffffffffffffffffffffffffffffffffffffffff8484610d22565b905092915050565b6000610e4b82610504565b91507fffffffffffffffffffffffffffffffffffffffffffffffffffffffffffffffff8203610e7d57610e7c61077e565b5b60018201905091905056fea2646970667358221220873aaa87594facb4861b5109b5a604d0b793fd2392b75d193a23cb2c2d15d01a64736f6c63430008120033",
  "linkReferences": {},
  "deployedLinkReferences": {}
}